:020000040800F2
:1000000000500020A5080008250700082D0700085B
:10001000350700083D0700084507000800000000FC
:100020000000000000000000000000004D07000874
:100030005907000800000000650700087107000864
:10004000ED080008ED080008ED080008ED080008BC
:10005000ED080008ED080008ED080008ED080008AC
:10006000ED080008ED080008ED080008ED0800089C
:10007000ED080008ED080008ED080008ED0800088C
:10008000ED080008ED080008ED080008ED0800087C
:10009000ED080008ED080008ED080008ED0800086C
:1000A000ED080008ED080008ED080008ED0800085C
:1000B000ED080008ED080008ED080008ED0800084C
:1000C000ED080008ED080008ED080008ED0800083C
:1000D000ED080008ED0800087D070008ED0800089D
:1000E000ED080008ED080008ED0800080000000019
:1000F0000000000000000000000000000000000000
:0C01000000000000000000005FF808F1A3
:10010C0010B5054C237833B9044B13B10448AFF345
:10011C0000800123237010BD7C0000200000000033
:10012C007047000808B5034B1BB103490348AFF3F4
:10013C00008008BD0000000080000020704700080F
:10014C00034613F8012B002AFBD1181A013870470B
:10015C0080B586B000AFF860B9607A60FB68012B9F
:10016C0002D0FB68022B11D17B689AB24FF0FF339F
:10017C00B968094802F0B6F90346FB75FB7D002B04
:10018C0001D17B6804E04FF0FF3301E04FF0FF3307
:10019C0018461837BD4680BDE000002080B582B0FF
:1001AC0000AF78607B681B68084A934209D1084B02
:1001BC001B78184602F0BEFF01220549054802F0E3
:1001CC001CFA00BF0837BD4680BD00BF004400408C
:1001DC00700100202801002080B500AF00F082FBE8
:1001EC0000F020F800F03AF900F0E4F800F00CF917
:1001FC0000F05EF8074803F01FFA074803F0B2F866
:10020C00064802F089FF01220549044802F0F5F97D
:10021C0000BFFDE788470008980000202801002057
:10022C007001002080B590B000AF07F118032822B0
:10023C000021184603F00EFB3B1D00221A605A6089
:10024C009A60DA601A610123BB614FF48033FB6161
:10025C0000233B620123BB6202237B634FF4803398
:10026C00BB634FF4E013FB6307F11803184600F06F
:10027C00F7FE0346002B01D000F03AF90F237B6008
:10028C000223BB600023FB604FF480633B610023BF
:10029C007B613B1D0221184601F064F90346002BDB
:1002AC0001D000F025F900BF4037BD4680BD0000ED
:1002BC0080B58EB000AF07F1280300221A605A6097
:1002CC009A60DA6007F1200300221A605A603B1D25
:1002DC0000221A605A609A60DA601A615A619A6157
:1002EC00324B334A1A60314B47225A602F4B002253
:1002FC009A602E4B4FF47A72DA602C4B00221A6102
:10030C002A4B00229A61294801F0BAFA0346002BC5
:10031C0001D000F0EDF84FF48053BB6207F12803D5
:10032C001946224801F0B8FC0346002B01D000F01E
:10033C00DFF81E4801F0F3FA0346002B01D000F061
:10034C00D7F800233B6200237B6207F12003194698
:10035C00164802F019F80346002B01D000F0C8F83B
:10036C0060237B600023BB600023FB6000237B6168
:10037C003B1D002219460D4801F0CCFB0346002B17
:10038C0001D000F0B5F83B1D04221946074801F0D6
:10039C00C1FB0346002B01D000F0AAF8034800F083
:1003AC00FDF800BF3837BD4680BD00BF9800002067
:1003BC000004004080B500AF114B124A1A60104B7C
:1003CC004FF4E1325A600E4B00229A600C4B002223
:1003DC00DA600B4B00221A61094B0C225A61084B54
:1003EC0000229A61064B0022DA61054802F02AF8D5
:1003FC000346002B01D000F07BF800BF80BD00BF8E
:10040C00E00000200038014080B500AF114B124ACB
:10041C001A60104B4FF4E1325A600E4B00229A6076
:10042C000C4B0022DA600B4B00221A61094B0C2298
:10043C005A61084B00229A61064B0022DA6105488A
:10044C0002F000F80346002B01D000F051F800BF79
:10045C0080BD00BF280100200044004080B588B05A
:10046C0000AF07F1100300221A605A609A60DA603C
:10047C001D4B9B691C4A43F0100393611A4B9B69FB
:10048C0003F01003FB60FB68174B9B69164A43F0A3
:10049C0020039361144B9B6903F02003BB60BB6882
:1004AC00114B9B69104A43F0040393610E4B9B69FB
:1004BC0003F004037B607B68002233210B4800F0BF
:1004CC00B7FD33233B6101237B610023BB61022316
:1004DC00FB6107F110031946044800F025FC00BF2E
:1004EC002037BD4680BD00BF00100240000801400F
:1004FC0080B400AF72B600BF00BFFDE780B485B01A
:10050C0000AF154B9B69144A43F001039361124BE6
:10051C009B6903F00103BB60BB680F4BDB690E4AA0
:10052C0043F08053D3610C4BDB6903F080537B6049
:10053C007B680A4B5B68FB60FB6823F0E063FB6045
:10054C00FB6843F00073FB60044AFB68536000BF18
:10055C001437BD4680BC70470010024000000140BB
:10056C0080B485B000AF78607B681B68094A934201
:10057C000BD1094BDB69084A43F00203D361064BEC
:10058C00DB6903F00203FB60FB6800BF1437BD4658
:10059C0080BC7047000400400010024080B588B059
:1005AC0000AF786007F1100300221A605A609A605D
:1005BC00DA607B681B680F4A934217D10E4B9B691C
:1005CC000D4A43F0040393610B4B9B6903F0040346
:1005DC00FB60FB68C0233B6102237B610223FB6150
:1005EC0007F110031946054800F09EFB00BF2037A9
:1005FC00BD4680BD000400400010024000080140D0
:10060C0080B58AB000AF786007F1180300221A6039
:10061C005A609A60DA607B681B683B4A934232D11D
:10062C003A4B9B69394A43F480439361374B9B693E
:10063C0003F480437B617B69344B9B69334A43F001
:10064C0004039361314B9B6903F004033B613B69E9
:10065C004FF40073BB610223FB6103237B6207F140
:10066C00180319462A4800F05FFB4FF48063BB6106
:10067C000023FB6100233B6207F118031946244851
:10068C0000F052FB3CE07B681B68224A934237D156
:10069C001E4BDB691D4A43F40033D3611B4BDB69F2
:1006AC0003F40033FB60FB68184B9B69174A43F05B
:1006BC0004039361154B9B6903F00403BB60BB6897
:1006CC000423BB610223FB6103237B6207F1180344
:1006DC0019460F4800F028FB0823BB610023FB617F
:1006EC0000233B6207F118031946094800F01CFB74
:1006FC0000220021262000F02EFA262000F047FAD6
:10070C0000BF2837BD4680BD0038014000100240B4
:10071C00000801400044004080B400AF00BFFDE77A
:10072C0080B400AF00BFFDE780B400AF00BFFDE7B1
:10073C0080B400AF00BFFDE780B400AF00BFFDE7A1
:10074C0080B400AF00BFBD4680BC704780B400AF22
:10075C0000BFBD4680BC704780B400AF00BFBD4633
:10076C0080BC704780B500AF00F002F900BF80BDBF
:10077C0080B500AF024801F065FF00BF80BD00BF2F
:10078C002801002080B586B000AFF860B9607A60AF
:10079C0000237B610AE0AFF300800146BB685A1C62
:1007AC00BA60CAB21A707B6901337B617A697B6863
:1007BC009A42F0DB7B6818461837BD4680BD80B482
:1007CC0083B000AF78604FF0FF3318460C37BD464E
:1007DC0080BC704780B483B000AF786039603B68F0
:1007EC004FF400525A60002318460C37BD4680BCAB
:1007FC00704780B483B000AF7860012318460C3783
:10080C00BD4680BC704780B485B000AFF860B9605D
:10081C007A60002318461437BD4680BC7047000030
:10082C0080B586B000AF7860144A154BD31A7B6143
:10083C007B693B61134B1B68002B02D1114B124A95
:10084C001A60104B1A687B6813443A699A4207D2B3
:10085C0003F060F803460C221A604FF0FF3309E0F6
:10086C00084B1B68FB60074B1A687B681344054AEE
:10087C001360FB6818461837BD4680BD0050002039
:10088C000004000074010020F802002080B400AFC6
:10089C0000BFBD4680BC7047FFF7F8FF0B480C4902
:1008AC000C4A002302E0D458C4500433C4188C42C0
:1008BC00F9D3094A094C002301E013600432A24227
:1008CC00FBD303F02DF8FFF787FC704700000020E6
:1008DC007C000020184900087C000020F402002055
:1008EC00FEE7000080B500AF084B1B68074A43F0D9
:1008FC0010031360032000F023F90F2000F008F818
:10090C00FFF7FCFD0023184680BD00BF002002400D
:10091C0080B582B000AF7860124B1A68124B1B780E
:10092C0019464FF47A73B3FBF1F3B2FBF3F31846A9
:10093C0000F03BF90346002B01D001230EE07B684D
:10094C000F2B0AD8002279684FF0FF3000F003F922
:10095C00064A7B681360002300E001231846083721
:10096C00BD4680BD000000200800002004000020CF
:10097C0080B400AF054B1B781A46054B1B6813441B
:10098C00034A136000BFBD4680BC704708000020BE
:10099C007801002080B400AF024B1B681846BD469E
:1009AC0080BC70477801002080B485B000AF7860BF
:1009BC007B6803F00703FB600C4BDB68BB60BA6819
:1009CC004FF6FF031340BB60FB681A02BB6813436E
:1009DC0043F0BF6343F40033BB60044ABB68D3608D
:1009EC0000BF1437BD4680BC704700BF00ED00E06F
:1009FC0080B400AF044BDB681B0A03F007031846F6
:100A0C00BD4680BC704700BF00ED00E080B483B0F1
:100A1C0000AF0346FB7197F90730002B0BDBFB791A
:100A2C0003F01F02064997F907305B09012000FA11
:100A3C0002F241F8232000BF0C37BD4680BC704742
:100A4C0000E100E080B483B000AF03463960FB7175
:100A5C0097F90730002B0ADB3B68DAB20C4997F99F
:100A6C0007301201D2B20B4483F800230AE03B6832
:100A7C00DAB20849FB7903F00F03043B1201D2B23E
:100A8C000B441A7600BF0C37BD4680BC704700BFC4
:100A9C0000E100E000ED00E080B489B000AFF86048
:100AAC00B9607A60FB6803F00703FB61FB69C3F173
:100ABC000703042B28BF0423BB61FB690433062BFB
:100ACC0002D9FB69033B00E000237B614FF0FF324E
:100ADC00BB6902FA03F3DA43BB681A407B699A409C
:100AEC004FF0FF317B6901FA03F3D9437B680B406C
:100AFC00134318462437BD4680BC704780B582B07E
:100B0C0000AF78607B68013BB3F1807F01D3012398
:100B1C000FE00A4A7B68013B53600F214FF0FF3016
:100B2C00FFF790FF054B00229A60044B07221A60D6
:100B3C00002318460837BD4680BD00BF10E000E01A
:100B4C0080B582B000AF78607868FFF72DFF00BFEA
:100B5C000837BD4680BD80B586B000AF0346B9608E
:100B6C007A60FB7300237B61FFF742FF78617A6840
:100B7C00B9687869FFF790FF024697F90F30114674
:100B8C001846FFF75FFF00BF1837BD4680BD80B524
:100B9C0082B000AF0346FB7197F907301846FFF798
:100BAC0035FF00BF0837BD4680BD80B582B000AFB1
:100BBC0078607868FFF7A2FF034618460837BD46F1
:100BCC0080BD80B485B000AF78600023FB737B6878
:100BDC0093F82130DBB2022B08D07B6804229A6395
:100BEC007B68002283F82020012320E07B681B68AF
:100BFC001A687B681B6822F00E021A607B681B68FF
:100C0C001A687B681B6822F001021A607B681A6CF8
:100C1C007B68DB6B012101FA02F25A607B680122CE
:100C2C0083F821207B68002283F82020FB7B184668
:100C3C001437BD4680BC704780B584B000AF786077
:100C4C000023FB737B6893F82130DBB2022B05D0B9
:100C5C007B6804229A630123FB7351E07B681B6859
:100C6C001A687B681B6822F00E021A607B681B688E
:100C7C001A687B681B6822F001021A607B681B688B
:100C8C00224A934229D07B681B68214A934222D086
:100C9C007B681B681F4A93421AD07B681B681E4AEC
:100CAC00934212D07B681B681C4A93420AD07B6823
:100CBC001B681B4A934202D14FF480130EE04FF095
:100CCC0080730BE04FF4803308E04FF4805305E061
:100CDC004FF4807302E0102300E00123114A5360AB
:100CEC007B68012283F821207B68002283F8202076
:100CFC007B685B6B002B03D07B685B6B78689847D9
:100D0C00FB7B18461037BD4680BD00BF0800024073
:100D1C001C000240300002404400024058000240D7
:100D2C006C0002400000024080B48BB000AF7860D1
:100D3C00396000237B6200233B6269E101227B6AFC
:100D4C0002FA03F3FB613B681B68FA691340BB6151
:100D5C00BA69FB699A4240F058813B685B689A4AD1
:100D6C0093425ED0984A934275D8984A934258D091
:100D7C00964A93426FD8964A934252D0944A9342E1
:100D8C0069D8944A93424CD0924A934263D8924A7F
:100D9C00934246D0904A93425DD8122B2AD8122BFC
:100DAC0059D801A252F823F02F0E0008090E0008A2
:100DBC001B0E00085D0E0008630E0008630E000891
:100DCC00630E0008630E0008630E0008630E000833
:100DDC00630E0008630E0008630E0008630E000823
:100DEC00630E0008630E0008630E0008110E000865
:100DFC00250E0008794A934213D02CE03B68DB683F
:100E0C003B6229E03B68DB6804333B6224E03B68CF
:100E1C00DB6808333B621FE03B68DB680C333B62EA
:100E2C001AE03B689B68002B02D104233B6213E061
:100E3C003B689B68012B05D108233B627B68FA69F0
:100E4C001A6109E008233B627B68FA695A6103E086
:100E5C0000233B6200E000BFBB69FF2B01D87B681D
:100E6C0001E07B6804337B61BB69FF2B02D87B6A92
:100E7C009B0002E07B6A083B9B003B617B691A6824
:100E8C000F213B6901FA03F3DB431A40396A3B69D2
:100E9C0001FA03F31A437B691A603B685B6803F041
:100EAC008053002B00F0B1804D4B9B694C4A43F0B2
:100EBC00010393614A4B9B6903F00103BB60BB6860
:100ECC00484A7B6A9B08023352F82330FB607B6AEA
:100EDC0003F003039B000F2202FA03F3DB43FA68CF
:100EEC001340FB607B68404A934213D07B683F4AB7
:100EFC0093420DD07B683E4A934207D07B683D4AB3
:100F0C00934201D1032306E0042304E0022302E010
:100F1C00012300E000237A6A02F00302920093405E
:100F2C00FA681343FB602F497B6A9B080233FA680B
:100F3C0041F823203B685B6803F48013002B06D038
:100F4C002D4B9A682C49BB6913438B6006E02A4BE6
:100F5C009A68BB69DB43284913408B603B685B682C
:100F6C0003F40013002B06D0234BDA682249BB692B
:100F7C001343CB6006E0204BDA68BB69DB431E49A8
:100F8C001340CB603B685B6803F40033002B06D046
:100F9C00194B5A681849BB6913434B6006E0164B52
:100FAC005A68BB69DB43144913404B603B685B6870
:100FBC0003F48033002B21D00F4B1A680E49BB6908
:100FCC0013430B6021E000BF000032100000311011
:100FDC00000022100000211000001210000011105F
:100FEC00001002400000014000080140000C0140CC
:100FFC000010014000140140000401400B4B1A6822
:10100C00BB69DB43094913400B607B6A01337B628C
:10101C003B681A687B6A22FA03F3002B7FF48EAECE
:10102C0000BF00BF2C37BD4680BC70470004014098
:10103C0080B483B000AF78600B467B8013467B7026
:10104C007B78002B03D07A887B681A6103E07B885D
:10105C001A047B681A6100BF0C37BD4680BC704710
:10106C0080B586B000AF78607B68002B01D101237E
:10107C0072E27B681B6803F00103002B00F0878091
:10108C00924B5B6803F00C03042B0CD08F4B5B680A
:10109C0003F00C03082B12D18C4B5B6803F48033E8
:1010AC00B3F5803F0BD1894B1B6803F40033002B45
:1010BC006CD07B685B68002B68D101234CE27B68A9
:1010CC005B68B3F5803F06D1804B1B687F4A43F4C5
:1010DC00803313602EE07B685B68002B0CD17B4B5C
:1010EC001B687A4A23F480331360784B1B68774A69
:1010FC0023F4802313601DE07B685B68B3F5A02F9D
:10110C000CD1724B1B68714A43F4802313606F4BF4
:10111C001B686E4A43F4803313600BE06B4B1B6807
:10112C006A4A23F480331360684B1B68674A23F4C4
:10113C00802313607B685B68002B13D0FFF72AFCBD
:10114C00386108E0FFF726FC02463B69D31A642B92
:10115C0001D9032300E25D4B1B6803F40033002B21
:10116C00F0D014E0FFF716FC386108E0FFF712FC32
:10117C0002463B69D31A642B01D90323ECE1534B90
:10118C001B6803F40033002BF0D100E000BF7B6838
:10119C001B6803F00203002B63D04C4B5B6803F01D
:1011AC000C03002B0BD0494B5B6803F00C03082B92
:1011BC001CD1464B5B6803F48033002B16D1434B98
:1011CC001B6803F00203002B05D07B681B69012B05
:1011DC0001D00123C0E13D4B1B6823F0F8027B6872
:1011EC005B69DB00394913430B603AE07B681B6990
:1011FC00002B20D0364B01221A60FFF7CBFB386155
:10120C0008E0FFF7C7FB02463B69D31A022B01D952
:10121C000323A1E12D4B1B6803F00203002BF0D03C
:10122C002A4B1B6823F0F8027B685B69DB002749BB
:10123C0013430B6015E0264B00221A60FFF7AAFB44
:10124C00386108E0FFF7A6FB02463B69D31A022B74
:10125C0001D9032380E11D4B1B6803F00203002B13
:10126C00F0D17B681B6803F00803002B3AD07B6835
:10127C009B69002B19D0174B01221A60FFF78AFBD0
:10128C00386108E0FFF786FB02463B69D31A022B54
:10129C0001D9032360E10D4B5B6A03F00203002BC1
:1012AC00F0D0012000F0CEFA1CE00A4B00221A60AC
:1012BC00FFF770FB38610FE0FFF76CFB02463B69F0
:1012CC00D31A022B08D9032346E100BF00100240B9
:1012DC000000424280044242924B5B6A03F00203DC
:1012EC00002BE9D17B681B6803F00403002B00F092
:1012FC00A6800023FB758B4BDB6903F08053002B1E
:10130C000DD1884BDB69874A43F08053D361854B01
:10131C00DB6903F08053BB60BB680123FB75824B18
:10132C001B6803F48073002B18D17F4B1B687E4A1B
:10133C0043F480731360FFF72DFB386108E0FFF76F
:10134C0029FB02463B69D31A642B01D9032303E121
:10135C00754B1B6803F48073002BF0D07B68DB6843
:10136C00012B06D16F4B1B6A6E4A43F001031362CB
:10137C002DE07B68DB68002B0CD16A4B1B6A694A39
:10138C0023F001031362674B1B6A664A23F00403C4
:10139C0013621CE07B68DB68052B0CD1614B1B6A6C
:1013AC00604A43F0040313625E4B1B6A5D4A43F0D0
:1013BC00010313620BE05B4B1B6A5A4A23F00103D7
:1013CC001362584B1B6A574A23F0040313627B6861
:1013DC00DB68002B15D0FFF7DDFA38610AE0FFF768
:1013EC00D9FA02463B69D31A41F28832934201D9A9
:1013FC000323B1E04B4B1B6A03F00203002BEED02E
:10140C0014E0FFF7C7FA38610AE0FFF7C3FA0246A7
:10141C003B69D31A41F28832934201D903239BE0F2
:10142C00404B1B6A03F00203002BEED1FB7D012B1A
:10143C0005D13C4BDB693B4A23F08053D3617B687D
:10144C00DB69002B00F08780364B5B6803F00C03E4
:10145C00082B61D07B68DB69022B46D1334B002211
:10146C001A60FFF797FA386108E0FFF793FA024623
:10147C003B69D31A022B01D903236DE0294B1B685E
:10148C0003F00073002BF0D17B681B6AB3F5803F2F
:10149C0008D1244B5B6823F400327B689B6821499C
:1014AC0013434B601F4B5B6823F474127B68196AFF
:1014BC007B685B6A0B431B4913434B601B4B01223C
:1014CC001A60FFF767FA386108E0FFF763FA024623
:1014DC003B69D31A022B01D903233DE0114B1B6846
:1014EC0003F00073002BF0D035E0104B00221A6093
:1014FC00FFF750FA386108E0FFF74CFA02463B69F7
:10150C00D31A022B01D9032326E0064B1B6803F0E8
:10151C000073002BF0D11EE07B68DB69012B07D137
:10152C00012319E0001002400070004060004242AC
:10153C000B4B5B68FB60FB6803F480327B681B6AB7
:10154C009A4206D1FB6803F470127B685B6A9A427C
:10155C0001D0012300E0002318461837BD4680BD9A
:10156C000010024080B584B000AF786039607B68B1
:10157C00002B01D10123D0E06A4B1B6803F0070359
:10158C003A689A4210D9674B1B6823F007026549E9
:10159C003B6813430B60634B1B6803F007033A680B
:1015AC009A4201D00123B8E07B681B6803F0020368
:1015BC00002B20D07B681B6803F00403002B05D0A4
:1015CC00594B5B68584A43F4E06353607B681B6873
:1015DC0003F00803002B05D0534B5B68524A43F4CD
:1015EC0060535360504B5B6823F0F0027B689B6840
:1015FC004D4913434B607B681B6803F00103002BC0
:10160C0040D07B685B68012B07D1474B1B6803F408
:10161C000033002B15D101237FE07B685B68022B24
:10162C0007D1414B1B6803F00073002B09D1012338
:10163C0073E03D4B1B6803F00203002B01D1012327
:10164C006BE0394B5B6823F003027B685B683649BF
:10165C0013434B60FFF79EF9F8600AE0FFF79AF925
:10166C000246FB68D31A41F28832934201D9032314
:10167C0053E02D4B5B6803F00C027B685B689B00AE
:10168C009A42EBD1274B1B6803F007033A689A4246
:10169C0010D2244B1B6823F0070222493B681343EA
:1016AC000B60204B1B6803F007033A689A4201D089
:1016BC00012332E07B681B6803F00403002B08D085
:1016CC00194B5B6823F4E0627B68DB6816491343B3
:1016DC004B607B681B6803F00803002B09D0124B8E
:1016EC005B6823F460527B681B69DB000E49134373
:1016FC004B6000F021F802460B4B5B681B0903F0B2
:10170C000F030A49CB5C22FA03F3094A1360094B15
:10171C001B681846FFF7FCF8002318461037BD4627
:10172C0080BD00BF0020024000100240BC470008F2
:10173C00000000200400002080B487B000AF00231C
:10174C00FB600023BB6000237B6100237B600023D4
:10175C003B611E4B5B68FB60FB6803F00C03042BC6
:10176C0002D0082B03D027E0194B3B6127E0FB6824
:10177C009B0C03F00F03174AD35C7B60FB6803F4EC
:10178C008033002B10D0114B5B685B0C03F0010312
:10179C00114AD35CBB607B680D4A03FB02F2BB6849
:1017AC00B2FBF3F37B6104E07B680C4A02FB03F3AE
:1017BC007B617B693B6102E0054B3B6100BF3B6990
:1017CC0018461C37BD4680BC704700BF0010024055
:1017DC0000127A00D4470008E447000800093D00D5
:1017EC0080B400AF024B1B681846BD4680BC7047E6
:1017FC000000002080B500AFFFF7F2FF0246054B5A
:10180C005B681B0A03F007030349CB5C22FA03F362
:10181C00184680BD00100240CC47000880B500AFD0
:10182C00FFF7DEFF0246054B5B68DB0A03F007039C
:10183C000349CB5C22FA03F3184680BD001002402A
:10184C00CC47000880B485B000AF78600A4B1B68A9
:10185C000A4AA2FB03235B0A7A6802FB03F3FB60D0
:10186C0000BFFB685A1EFA60002BF9D100BF00BF05
:10187C001437BD4680BC704700000020D34D621069
:10188C0080B582B000AF78607B68002B01D101235A
:10189C0041E07B6893F83D30DBB2002B06D17B68CE
:1018AC00002283F83C207868FEF75AFE7B680222FF
:1018BC0083F83D207B681A687B6804331946104610
:1018CC0000F0B2FA7B68012283F846207B68012283
:1018DC0083F83E207B68012283F83F207B6801223D
:1018EC0083F840207B68012283F841207B68012229
:1018FC0083F842207B68012283F843207B68012215
:10190C0083F844207B68012283F845207B68012200
:10191C0083F83D20002318460837BD4680BD80B5AE
:10192C0082B000AF78607B68002B01D1012341E0CD
:10193C007B6893F83D30DBB2002B06D17B6800222C
:10194C0083F83C20786800F039F87B68022283F831
:10195C003D207B681A687B6804331946104600F0FA
:10196C0063FA7B68012283F846207B68012283F8A6
:10197C003E207B68012283F83F207B68012283F89C
:10198C0040207B68012283F841207B68012283F888
:10199C0042207B68012283F843207B68012283F874
:1019AC0044207B68012283F845207B68012283F860
:1019BC003D20002318460837BD4680BD80B483B057
:1019CC0000AF786000BF0C37BD4680BC704700008C
:1019DC0080B584B000AF786039603B68002B09D1CA
:1019EC007B6893F83E30DBB2012B14BF012300233C
:1019FC00DBB222E03B68042B09D17B6893F83F30C3
:101A0C00DBB2012B14BF01230023DBB215E03B68D2
:101A1C00082B09D17B6893F84030DBB2012B14BF43
:101A2C0001230023DBB208E07B6893F84130DBB282
:101A3C00012B14BF01230023DBB2002B01D00123A7
:101A4C005EE03B68002B04D17B68022283F83E20C9
:101A5C0013E03B68042B04D17B68022283F83F20FF
:101A6C000BE03B68082B04D17B68022283F84020F2
:101A7C0003E07B68022283F841207B681B6801220B
:101A8C003968184600F05CFC7B681B681E4A934260
:101A9C0007D17B681B685A6C7B681B6842F4004258
:101AAC005A647B681B68184A93420ED07B681B688B
:101ABC00B3F1804F09D07B681B68144A934204D061
:101ACC007B681B68124A934211D17B681B689B6828
:101ADC0003F00703FB60FB68062B10D07B681B68C8
:101AEC001A687B681B6842F001021A6007E07B6889
:101AFC001B681A687B681B6842F001021A6000239D
:101B0C0018461037BD4680BD002C01400004004033
:101B1C000008004080B586B000AFF860B9607A600C
:101B2C000023FB75FB6893F83C30012B01D1022399
:101B3C00AEE0FB68012283F83C207B680C2B00F2A2
:101B4C009F8001A252F823F0891B00088D1C00080D
:101B5C008D1C00088D1C0008C91B00088D1C00087A
:101B6C008D1C00088D1C00080B1C00088D1C000827
:101B7C008D1C00088D1C00084B1C0008FB681B68A2
:101B8C00B968184600F0BEF9FB681B689A69FB68D7
:101B9C001B6842F008029A61FB681B689A69FB6833
:101BAC001B6822F004029A61FB681B689969BB6888
:101BBC001A69FB681B680A439A6164E0FB681B683E
:101BCC00B968184600F004FAFB681B689A69FB6850
:101BDC001B6842F400629A61FB681B689A69FB6897
:101BEC001B6822F480629A61FB681B689969BB6868
:101BFC001B691A02FB681B680A439A6143E0FB6885
:101C0C001B68B968184600F04DFAFB681B68DA6966
:101C1C00FB681B6842F00802DA61FB681B68DA6932
:101C2C00FB681B6822F00402DA61FB681B68D96947
:101C3C00BB681A69FB681B680A43DA6123E0FB681E
:101C4C001B68B968184600F097FAFB681B68DA69DC
:101C5C00FB681B6842F40062DA61FB681B68DA6996
:101C6C00FB681B6822F48062DA61FB681B68D96927
:101C7C00BB681B691A02FB681B680A43DA6102E045
:101C8C000123FB7500BFFB68002283F83C20FB7D21
:101C9C0018461837BD4680BD80B584B000AF78605B
:101CAC0039600023FB737B6893F83C30012B01D126
:101CBC000223B4E07B68012283F83C207B6802227B
:101CCC0083F83D207B681B689B68BB60BB6823F076
:101CDC007703BB60BB6823F47F43BB607B681B68E6
:101CEC00BA689A603B681B68B3F5005F3ED0B3F5E9
:101CFC00005F00F28780B3F5805F00F08680B3F55B
:101D0C00805F7FD8702B1AD0702B7BD8602B50D073
:101D1C00602B77D8502B3CD0502B73D8402B58D0FD
:101D2C00402B6FD8302B64D0302B6BD8202B60D04D
:101D3C00202B67D8002B5CD0102B5AD062E07B682C
:101D4C0018683B6899683B685A683B68DB6800F028
:101D5C00D8FA7B681B689B68BB60BB6843F0770351
:101D6C00BB607B681B68BA689A604FE07B68186838
:101D7C003B6899683B685A683B68DB6800F0C1FABD
:101D8C007B681B689A687B681B6842F480429A6087
:101D9C003CE07B6818683B6859683B68DB681A460E
:101DAC0000F038FA7B681B685021184600F08FFA57
:101DBC002CE07B6818683B6859683B68DB681A46FE
:101DCC0000F056FA7B681B686021184600F07FFA19
:101DDC001CE07B6818683B6859683B68DB681A46EE
:101DEC0000F018FA7B681B684021184600F06FFA67
:101DFC000CE07B681A683B681B681946104600F0BB
:101E0C0066FA03E00123FB7300E000BF7B6801224C
:101E1C0083F83D207B68002283F83C20FB7B18462E
:101E2C001037BD4680BD000080B485B000AF78602F
:101E3C0039607B681B68FB607B682F4A93420BD030
:101E4C007B68B3F1804F07D07B682C4A934203D058
:101E5C007B682B4A934208D1FB6823F07003FB602C
:101E6C003B685B68FA681343FB607B68224A9342C9
:101E7C000BD07B68B3F1804F07D07B681F4A93422D
:101E8C0003D07B681E4A934208D1FB6823F440734D
:101E9C00FB603B68DB68FA681343FB60FB6823F06C
:101EAC0080023B685B691343FB607B68FA681A60CD
:101EBC003B689A687B68DA623B681A687B689A624E
:101ECC007B680D4A934203D13B681A697B681A639D
:101EDC007B6801225A617B681B6903F00103002BAC
:101EEC0005D07B681B6923F001027B681A6100BF77
:101EFC001437BD4680BC7047002C014000040040E4
:101F0C000008004080B487B000AF786039607B680F
:101F1C001B6A7B617B681B6A23F001027B681A6277
:101F2C007B685B683B617B689B69FB60FB6823F0AB
:101F3C007003FB60FB6823F00303FB603B681B68CA
:101F4C00FA681343FB607B6923F002037B613B68F7
:101F5C009B687A6913437B617B681C4A93420CD162
:101F6C007B6923F008037B613B68DB687A69134368
:101F7C007B617B6923F004037B617B68134A93428A
:101F8C0011D13B6923F480733B613B6923F40073EB
:101F9C003B613B685B693A6913433B613B689B69F6
:101FAC003A6913433B617B683A695A607B68FA680B
:101FBC009A613B685A687B685A637B687A691A62D3
:101FCC0000BF1C37BD4680BC704700BF002C0140D1
:101FDC0080B487B000AF786039607B681B6A7B6126
:101FEC007B681B6A23F010027B681A627B685B6853
:101FFC003B617B689B69FB60FB6823F4E043FB60FF
:10200C00FB6823F44073FB603B681B681B02FA6897
:10201C001343FB607B6923F020037B613B689B6867
:10202C001B017A6913437B617B681D4A93420DD176
:10203C007B6923F080037B613B68DB681B017A6959
:10204C0013437B617B6923F040037B617B68144AFB
:10205C00934213D13B6923F480633B613B6923F4C6
:10206C0000633B613B685B699B003A6913433B61CE
:10207C003B689B699B003A6913433B617B683A69F7
:10208C005A607B68FA689A613B685A687B689A6305
:10209C007B687A691A6200BF1C37BD4680BC7047EA
:1020AC00002C014080B487B000AF786039607B6849
:1020BC001B6A7B617B681B6A23F480727B681A62E3
:1020CC007B685B683B617B68DB69FB60FB6823F0CA
:1020DC007003FB60FB6823F00303FB603B681B6829
:1020EC00FA681343FB607B6923F400737B613B68E4
:1020FC009B681B027A6913437B617B681D4A934280
:10210C000DD17B6923F400637B613B68DB681B02A8
:10211C007A6913437B617B6923F480637B617B6801
:10212C00144A934213D13B6923F480533B613B69BE
:10213C0023F400533B613B685B691B013A69134311
:10214C003B613B689B691B013A6913433B617B68AC
:10215C003A695A607B68FA68DA613B685A687B684E
:10216C00DA637B687A691A6200BF1C37BD4680BC93
:10217C00704700BF002C014080B487B000AF78607E
:10218C0039607B681B6A3B617B681B6A23F4805255
:10219C007B681A627B685B687B617B68DB69FB60D0
:1021AC00FB6823F4E043FB60FB6823F44073FB60A3
:1021BC003B681B681B02FA681343FB603B6923F402
:1021CC0000533B613B689B681B033A6913433B61BB
:1021DC007B680F4A934209D17B6923F480437B616E
:1021EC003B685B699B017A6913437B617B687A6905
:1021FC005A607B68FA68DA613B685A687B681A64D3
:10220C007B683A691A6200BF1C37BD4680BC7047B8
:10221C00002C014080B487B000AFF860B9607A60E0
:10222C00FB681B6A7B61FB681B6A23F00102FB687D
:10223C001A62FB689B693B613B6923F0F0033B61CD
:10224C007B681B013A6913433B617B6923F00A03EA
:10225C007B617A69BB6813437B61FB683A699A615D
:10226C00FB687A691A6200BF1C37BD4680BC704798
:10227C0080B487B000AFF860B9607A60FB681B6A05
:10228C007B61FB681B6A23F01002FB681A62FB6817
:10229C009B693B613B6923F470433B617B681B0387
:1022AC003A6913433B617B6923F0A0037B61BB68F4
:1022BC001B017A6913437B61FB683A699A61FB687D
:1022CC007A691A6200BF1C37BD4680BC704780B467
:1022DC0085B000AF786039607B689B68FB60FB68F9
:1022EC0023F07003FB603A68FB68134343F0070369
:1022FC00FB607B68FA689A6000BF1437BD4680BCEF
:10230C00704780B487B000AFF860B9607A603B600A
:10231C00FB689B687B617B6923F47F437B613B6833
:10232C001A027B681A43BB6813437A6913437B61B7
:10233C00FB687A699A6000BF1C37BD4680BC704749
:10234C0080B487B000AFF860B9607A60BB6803F006
:10235C001F03012202FA03F37B61FB681A6A7B6993
:10236C00DB431A40FB681A62FB681A6ABB6803F00D
:10237C001F03796801FA03F31A43FB681A6200BF62
:10238C001C37BD4680BC704780B485B000AF786008
:10239C0039607B6893F83C30012B01D1022346E075
:1023AC007B68012283F83C207B68022283F83D2065
:1023BC007B681B685B68FB607B681B689B68BB6009
:1023CC00FB6823F07003FB603B681B68FA681343DF
:1023DC00FB607B681B68FA685A607B681B68164A4E
:1023EC0093420ED07B681B68B3F1804F09D07B6899
:1023FC001B68124A934204D07B681B68104A9342B4
:10240C000CD1BB6823F08003BB603B685B68BA6887
:10241C001343BB607B681B68BA689A607B680122B7
:10242C0083F83D207B68002283F83C20002318466B
:10243C001437BD4680BC7047002C0140000400409E
:10244C000008004080B582B000AF78607B68002B3C
:10245C0001D1012342E07B6893F84130DBB2002BC1
:10246C0006D17B68002283F840207868FEF7C8F814
:10247C007B68242283F841207B681B68DA687B68C0
:10248C001B6822F40052DA60786800F0B7FD7B68B4
:10249C001B681A697B681B6822F490421A617B687E
:1024AC001B685A697B681B6822F02A025A617B6898
:1024BC001B68DA687B681B6842F40052DA607B6840
:1024CC0000225A647B68202283F841207B682022FA
:1024DC0083F842207B6800225A6300231846083791
:1024EC00BD4680BD80B58AB002AFF860B9603B6074
:1024FC001346FB8000237B61FB6893F84130DBB211
:10250C00202B75D1BB68002B02D0FB88002B01D18E
:10251C0001236EE0FB6800225A64FB68212283F8D9
:10252C004120FEF737FA7861FB68FA889A84FB68D9
:10253C00FA88DA84FB689B68B3F5805F08D1FB6886
:10254C001B69002B04D10023FB61BB68BB6103E05A
:10255C00BB68FB610023BB612EE03B6800937B6989
:10256C0000228021F86800F01CFB0346002B05D0EC
:10257C00FB68202283F8412003233AE0FB69002BFF
:10258C000BD1BB691B881A46FB681B68C2F3080297
:10259C005A60BB690233BB6107E0FB691A78FB68C0
:1025AC001B685A60FB690133FB61FB68DB8C9BB2D7
:1025BC00013B9AB2FB68DA84FB68DB8C9BB2002B84
:1025CC00CBD13B6800937B6900224021F86800F076
:1025DC00E8FA0346002B05D0FB68202283F8412043
:1025EC00032306E0FB68202283F84120002300E04F
:1025FC00022318462037BD4680BD80B584B000AF9D
:10260C00F860B9601346FB80FB6893F84230DBB28C
:10261C00202B12D1BB68002B02D0FB88002B01D1E0
:10262C0001230BE0FB6800221A63FB881A46B96889
:10263C00F86800F00FFB034600E002231846103741
:10264C00BD4680BD80B5BAB000AF78607B681B68B2
:10265C001B68C7F8E4307B681B68DB68C7F8E030A0
:10266C007B681B685B69C7F8DC300023C7F8D8307F
:10267C000023C7F8D430D7F8E43003F00F03C7F8C1
:10268C00D830D7F8D830002B0FD1D7F8E43003F07E
:10269C002003002B09D0D7F8E03003F02003002BE7
:1026AC0003D0786800F0ECFB5BE2D7F8D830002B55
:1026BC0000F0DE80D7F8DC3003F00103002B06D1EC
:1026CC00D7F8E03003F49073002B00F0D180D7F8EA
:1026DC00E43003F00103002B0BD0D7F8E03003F407
:1026EC008073002B05D07B685B6C43F001027B6828
:1026FC005A64D7F8E43003F00403002B0BD0D7F85E
:10270C00DC3003F00103002B05D07B685B6C43F0DD
:10271C0002027B685A64D7F8E43003F00203002B02
:10272C000BD0D7F8DC3003F00103002B05D07B680D
:10273C005B6C43F004027B685A64D7F8E43003F016
:10274C000803002B11D0D7F8E03003F02003002B46
:10275C0005D1D7F8DC3003F00103002B05D07B68E2
:10276C005B6C43F008027B685A647B685B6C002BE3
:10277C0000F0F281D7F8E43003F02003002B08D0EE
:10278C00D7F8E03003F02003002B02D0786800F07B
:10279C0077FB7B681B685B6903F04003002B14BF5D
:1027AC0001230023DBB2C7F8D4307B685B6C03F0E9
:1027BC000803002B03D1D7F8D430002B4FD0786806
:1027CC0000F081FA7B681B685B6903F04003002B07
:1027DC0041D07B681B681433C7F89C30D7F89C3009
:1027EC0053E8003FC7F89830D7F8983023F04003EF
:1027FC00C7F8D0307B681B681433D7F8D020C7F8E3
:10280C00A820C7F8A430D7F8A410D7F8A82041E81E
:10281C000023C7F8A030D7F8A030002BD9D17B68A3
:10282C00DB6B002B13D07B68DB6B7E4A5A637B68B7
:10283C00DB6B1846FEF700FA0346002B16D07B68BC
:10284C00DB6B5B6B7A68D26B104698470EE078684E
:10285C0000F093F90AE0786800F08FF906E07868E8
:10286C0000F08BF97B6800225A6475E100BF73E1BC
:10287C007B681B6B012B40F04F81D7F8E43003F0E1
:10288C001003002B00F04881D7F8E03003F0100360
:10289C00002B00F041810023BB607B681B681B6828
:1028AC00BB607B681B685B68BB60BB687B681B6834
:1028BC005B6903F04003002B00F0B6807B68DB6B98
:1028CC001B685B68A7F8BE30B7F8BE30002B00F071
:1028DC0045817B689B8DB7F8BE209A4280F03E8183
:1028EC007B68B7F8BE20DA857B68DB6B9B69202B95
:1028FC0000F088807B681B680C33C7F88830D7F8E9
:10290C00883053E8003FC7F88430D7F8843023F47C
:10291C008073C7F8B8307B681B680C33D7F8B820C5
:10292C00C7F89420C7F89030D7F89010D7F89420B7
:10293C0041E80023C7F88C30D7F88C30002BD9D164
:10294C007B681B6814337B677B6F53E8003F3B67E6
:10295C003B6F23F00103C7F8B4307B681B6814335A
:10296C00D7F8B420C7F88020FB67F96FD7F8802020
:10297C0041E80023BB67BB6F002BE1D17B681B6870
:10298C0014333B663B6E53E8003FFB65FB6D23F055
:10299C004003C7F8B0307B681B681433D7F8B020FD
:1029AC00FA66BB66B96EFA6E41E800237B667B6EF5
:1029BC00002BE3D17B68202283F842207B68002225
:1029CC001A637B681B680C33FB64FB6C53E8003F99
:1029DC00BB64BB6C23F01003C7F8AC307B681B687E
:1029EC000C33D7F8AC20BA657B65796DBA6D41E8CC
:1029FC0000233B653B6D002BE3D17B68DB6B1846FA
:102A0C00FEF7DFF87B6802225A637B689A8D7B683D
:102A1C00DB8D9BB2D31A9BB21946786800F0B6F8DE
:102A2C009CE000BF972D00087B689A8D7B68DB8D3E
:102A3C009BB2D31AA7F8CE307B68DB8D9BB2002BF0
:102A4C0000F08E80B7F8CE30002B00F089807B68C8
:102A5C001B680C33BB63BB6B53E8003F7B637B6B26
:102A6C0023F49073C7F8C8307B681B680C33D7F815
:102A7C00C8207A643B64396C7A6C41E80023FB63B0
:102A8C00FB6B002BE3D17B681B6814337B627B6A86
:102A9C0053E8003F3B623B6A23F00103C7F8C430A4
:102AAC007B681B681433D7F8C4203A63FB62F96A5D
:102ABC003A6B41E80023BB62BB6A002BE3D17B6815
:102ACC00202283F842207B6800221A637B681B68F3
:102ADC000C333B613B6953E8003FFB60FB6823F020
:102AEC001003C7F8C0307B681B680C33D7F8C020C4
:102AFC00FA61BB61B969FA6941E800237B617B69C2
:102B0C00002BE3D17B6802225A63B7F8CE3019460A
:102B1C00786800F03BF823E0D7F8E43003F080034A
:102B2C00002B09D0D7F8E03003F08003002B03D042
:102B3C00786800F03EF914E0D7F8E43003F0400375
:102B4C00002B0ED0D7F8E03003F04003002B08D058
:102B5C00786800F07DF904E000BF02E000BF00E0FF
:102B6C0000BFE837BD4680BD80B483B000AF78604D
:102B7C0000BF0C37BD4680BC704780B483B000AF3B
:102B8C00786000BF0C37BD4680BC704780B483B002
:102B9C0000AF78600B467B8000BF0C37BD4680BC15
:102BAC00704780B586B000AFF860B9603B601346E3
:102BBC00FB713BE03B6AB3F1FF3F37D0FDF7EAFE18
:102BCC0002463B68D31A3A6A9A4202D33B6A002BFC
:102BDC0001D103233AE0FB681B68DB6803F00403B4
:102BEC00002B23D0BB68802B20D0BB68402B1DD082
:102BFC00FB681B681B6803F00803082B16D1002325
:102C0C007B61FB681B681B687B61FB681B685B68EE
:102C1C007B617B69F86800F056F8FB6808225A64FF
:102C2C00FB68002283F8402001230FE0FB681B683F
:102C3C001A68BB681340BA689A420CBF0123002380
:102C4C00DBB21A46FB799A42B4D0002318461837E7
:102C5C00BD4680BD80B485B000AFF860B960134646
:102C6C00FB80FB68BA689A62FB68FA889A85FB68F5
:102C7C00FA88DA85FB6800225A64FB68222283F802
:102C8C004220FB681B69002B07D0FB681B68DA68C5
:102C9C00FB681B6842F48072DA60FB681B685A6937
:102CAC00FB681B6842F001025A61FB681B68DA681A
:102CBC00FB681B6842F02002DA60002318461437C8
:102CCC00BD4680BC704780B495B000AF78607B681F
:102CDC001B680C337B637B6B53E8003F3B633B6BA4
:102CEC0023F49073FB647B681B680C33FA6C3A64B6
:102CFC00FB63F96B3A6C41E80023BB63BB6B002BA5
:102D0C00E5D17B681B6814333B623B6A53E8003F98
:102D1C00FB61FB6923F00103BB647B681B68143304
:102D2C00BA6CFA62BB62B96AFA6A41E800237B6248
:102D3C007B6A002BE5D17B681B6B012B19D17B685F
:102D4C001B680C33FB60FB6853E8003FBB60BB683F
:102D5C0023F010037B647B681B680C337A6CBA61BC
:102D6C007B617969BA6941E800233B613B69002BBF
:102D7C00E5D17B68202283F842207B6800221A630D
:102D8C0000BF5437BD4680BC704780B584B000AFDF
:102D9C0078607B685B6AFB60FB680022DA85FB6805
:102DAC000022DA84F868FFF7E8FE00BF1037BD4652
:102DBC0080BD80B485B000AF78607B6893F84130FB
:102DCC00DBB2212B3ED17B689B68B3F5805F14D1BD
:102DDC007B681B69002B10D17B681B6AFB60FB684E
:102DEC001B881A467B681B68C2F308025A607B6812
:102DFC001B6A9A1C7B681A6208E07B681B6A591C68
:102E0C007A6811621A787B681B685A607B68DB8C65
:102E1C009BB2013B9BB27A681946D184002B0FD12F
:102E2C007B681B68DA687B681B6822F08002DA60BA
:102E3C007B681B68DA687B681B6842F04002DA60CA
:102E4C00002300E0022318461437BD4680BC7047AF
:102E5C0080B582B000AF78607B681B68DA687B68ED
:102E6C001B6822F04002DA607B68202283F8412044
:102E7C007868FFF779FE002318460837BD4680BDF9
:102E8C0080B58CB000AF78607B6893F84230DBB2D1
:102E9C00222B40F0AE807B689B68B3F5805F17D126
:102EAC007B681B69002B13D10023FB627B689B6A38
:102EBC00BB627B681B685B689BB2C3F308039AB266
:102ECC00BB6A1A807B689B6A9A1C7B689A6226E0B4
:102EDC007B689B6AFB620023BB627B689B68B3F5D3
:102EEC00805F07D07B689B68002B0AD17B681B69CD
:102EFC00002B06D17B681B685B68DAB2FB6A1A7020
:102F0C0008E07B681B685B68DBB203F07F03DAB216
:102F1C00FB6A1A707B689B6A5A1C7B689A627B6896
:102F2C00DB8D9BB2013B9BB27A681946D185002B95
:102F3C005DD17B681B68DA687B681B6822F0200215
:102F4C00DA607B681B68DA687B681B6822F4807225
:102F5C00DA607B681B685A697B681B6822F0010287
:102F6C005A617B68202283F842207B6800225A63D6
:102F7C007B681B6B012B35D17B6800221A637B6845
:102F8C001B680C337B617B6953E8003F3B613B69F9
:102F9C0023F010037B627B681B680C337A6A3A62FD
:102FAC00FB61F9693A6A41E80023BB61BB69002BFC
:102FBC00E5D17B681B681B6803F01003102B0AD14A
:102FCC000023FB607B681B681B68FB607B681B68CD
:102FDC005B68FB60FB687B689B8D19467868FFF724
:102FEC00D5FD02E07868FDF7D9F8002302E0002354
:102FFC0000E0022318463037BD4680BD80B584B052
:10300C0000AF78607B681B681B6923F440517B68B8
:10301C00DA687B681B680A431A617B689A687B686C
:10302C001B691A437B685B691343BB607B681B6835
:10303C00DB6823F4B05323F00C037A681268B96888
:10304C000B43D3607B681B685B6923F440717B681E
:10305C009A697B681B680A435A617B681B682C4A17
:10306C00934203D1FEF7DAFBF86002E0FEF7C2FBF5
:10307C00F860FA6813469B0013449A001A447B6864
:10308C005B689B00B2FBF3F3224AA2FB03235B09B0
:10309C001901FA6813469B0013449A001A447B6882
:1030AC005B689B00B2FBF3F21A4BA3FB02035B09B8
:1030BC00642000FB03F3D31A1B013233154AA2FB25
:1030CC0003235B0903F0F0031944FA6813469B00D1
:1030DC0013449A001A447B685B689B00B2FBF3F2C2
:1030EC000C4BA3FB02035B09642000FB03F3D31A14
:1030FC001B013233074AA2FB03235B0903F00F02C7
:10310C007B681B680A449A6000BF1037BD4680BDBF
:10311C00003801401F85EB5180B483B000AF78605C
:10312C00034A7B68136000BF0C37BD4680BC7047F8
:10313C007C01002080B582B000AF0346FB71FB79A7
:10314C000A2B02D0FB790D2B1FD1194B1B781A4679
:10315C00184B0021995402221749164800F082FBA3
:10316C000346002B0DD1154B154A1649114800F09A
:10317C006BFA134B1B68114A12681146184600F083
:10318C000DF90B4B00221A700DE0094B1B781E2B0E
:10319C0009D8074B1B785A1CD1B2054A1170194635
:1031AC00044AFB79535400BF0837BD4680BD00BFAD
:1031BC00A001002080010020A4470008100000207E
:1031CC000C000020A847000880B500AF104B1A88EF
:1031DC00104B1B681B685A630D4B1A880D4B1B68F0
:1031EC001B689A63002201210B48FDF721FF012285
:1031FC0002210948FDF71CFF012210210648FDF7AA
:10320C0017FF002220210448FDF712FF00BF80BDEC
:10321C001C000020A40100200008014080B500AF74
:10322C00104B1A88104B1B681B685A630D4B1A887D
:10323C000D4B1B681B689A63012201210B48FDF79B
:10324C00F7FE002202210948FDF7F2FE00221021B0
:10325C000648FDF7EDFE012220210448FDF7E8FEAB
:10326C0000BF80BD1C000020A4010020000801400C
:10327C0080B500AF104B1A88104B1B681B685A6343
:10328C000D4B1A880D4B1B681B689A630122012198
:10329C000B48FDF7CDFE002202210948FDF7C8FEC0
:1032AC00012210210648FDF7C3FE0022202104480C
:1032BC00FDF7BEFE00BF80BD1C000020A401002055
:1032CC000008014080B500AF104B1A88104B1B68EA
:1032DC001B685A630D4B1A880D4B1B681B689A634D
:1032EC00002201210B48FDF7A3FE0122022109480F
:1032FC00FDF79EFE002210210648FDF799FE0122E3
:10330C0020210448FDF794FE00BF80BD1C00002066
:10331C00A40100200008014080B500AF0F4B1B68D2
:10332C001B6800225A630D4B1B681B6800229A63B2
:10333C00002201210A48FDF77BFE002202210848E9
:10334C00FDF776FE002210210548FDF771FE0022E4
:10335C0020210348FDF76CFE00BF80BDA4010020B6
:10336C000008014080B582B000AF78600A4A7B68E3
:10337C001360094B1B6800211846FEF729FB064B0E
:10338C001B6804211846FEF723FBFFF7C5FF00BF9F
:10339C000837BD4680BD00BFA401002080B582B0B7
:1033AC0000AF78603960164A7B681360154A3B6839
:1033BC001360144B1B68B3F5167F02DDFFF704FF97
:1033CC0019E0104B1B68B3F5C87F02DAFFF726FF34
:1033DC0011E00B4B1B68B3F5C87F02DAFFF772FFE5
:1033EC0009E0074B1B68B3F5167F02DDFFF740FFC2
:1033FC0001E0FFF791FF00BF0837BD4680BD00BF5D
:10340C001400002018000020002310B50446C0E969
:10341C000033C0E90433836081814366C2818361D8
:10342C00194608225C3000F015FA0D4B24626362D9
:10343C000C4BA3620C4BE3620C4B23630C4B9C4276
:10344C0006D003F16802944202D0D0339C4205D1DD
:10345C0004F15800BDE8104000F086BA10BD00BF62
:10346C00AD360008D33600080B3700082F3700089C
:10347C00A8010020024A0349034800F069B800BFC4
:10348C00200000209D4200083000002041680C4BB9
:10349C0010B59942044601D000F0FAFEA168094B20
:1034AC00994202D0204600F0F3FEE168064B9942A7
:1034BC0004D02046BDE8104000F0EABE10BD00BFAD
:1034CC00A8010020100200207802002010B50B4B40
:1034DC000B4C0C4A20461A6004210022FFF794FF83
:1034EC0004F1680001220921FFF78EFF04F1D000DE
:1034FC000222BDE810401221FFF786BFE002002037
:10350C00A801002081340008014800F02EBA00BF49
:10351C00E9020020014800F029BA00BFE9020020AE
:10352C0010B50446FFF7F0FF236A1BB1BDE810404D
:10353C00FFF7F0BF044B2362044B1B68002BF5D143
:10354C00FFF7C4FFF2E700BF99340008E002002047
:10355C002DE9F8430746884614460026D4E9019520
:10356C00B9F1010905D52468002CF7D13046BDE826
:10357C00F883AB89012B07D9B5F90E30013303D091
:10358C0029463846C04706436835E9E7036A70B5F3
:10359C0005460E4684680BB9FFF7C2FF636EDB0766
:1035AC0005D4A389980502D4A06D00F0DEF9A38997
:1035BC00190702D52369002B35D12146284600F086
:1035CC00F3F880B34FF0FF35636EDA0705D4A389A7
:1035DC009B0502D4A06D00F0C9F9284670BD002BE4
:1035EC0004DAA2699A4217DC0A2915D023685A1CFE
:1035FC0022601970A36816F8011F013BA360002913
:10360C00EDD1002B11DA22460A21284600F08DF864
:10361C000130D7D00A25D7E72246284600F085F896
:10362C000130E7D1CEE7013EE4E723685A1C226063
:10363C000A221A70EEE70000024B01461868FFF7E9
:10364C00A5BF00BF2C0000200EB44FF4017270B562
:10365C0000259DB021AC54F8046BADF814201B95DB
:10366C0002900690FCF76CFD0B4B03900B934FF6FE
:10367C00FF7307900948ADF816303246234602A96D
:10368C0000680F951495019400F0C2FA1DB0BDE8C6
:10369C00704003B0704700BFCF3600082C000020EC
:1036AC0010B50C46B1F90E1000F010F90028ABBFA4
:1036BC00636DA3891B1823F48053ACBF6365A3818E
:1036CC0010BD002070472DE9F0411F468B8905463F
:1036DC00DB050C46164605D502230022B1F90E1067
:1036EC0000F0E2F8A389324623F48053A3812846E4
:1036FC003B46B4F90E10BDE8F04100F0F9B810B536
:10370C000C46B1F90E1000F0CFF8431CA38915BF7D
:10371C00606523F4805343F48053A38118BFA381C5
:10372C0010BDB1F90E1000F0AFB8F8B50E46144646
:10373C00054618B1036A0BB9FFF7F2FEA369A36043
:10374C00A3891A0701D5236943B92146284600F0FD
:10375C002BF818B14FF0FF373846F8BD23682269B3
:10376C00F6B2981A63693746834205DC214628462F
:10377C0000F08EFD0028EDD1A368013BA360236807
:10378C005A1C22601E706269431C9A4204D0A389A1
:10379C00DB07E1D50A2EDFD12146284600F078FD63
:1037AC000028D9D0D6E7000038B5294B0546186853
:1037BC000C4618B1036A0BB9FFF7B2FEB4F90C3022
:1037CC00190722D4DA0607D409222A6043F04003F1
:1037DC004FF0FF30A38133E0580712D5616B41B134
:1037EC0004F14403994202D0284600F0C1F80023AA
:1037FC006363A38923F02403A381002363602369FB
:10380C002360A38943F00803A38123694BB9A389DF
:10381C0003F42073B3F5007F03D02146284600F053
:10382C0084FDB4F90C3013F001020AD00022A2601E
:10383C0062695242A261226942B913F08000C5D17B
:10384C0038BD990758BF6269A260F4E70020F7E71A
:10385C002C00002003460244934200D1704703F829
:10386C00011BF9E710B56AB10139841810F8012B66
:10387C0011F8013F9A4203D1A04201D0002AF5D1A0
:10388C00D01A10BD1046FCE738B50023054D044690
:10389C0008462B60FCF793FF431C02D12B6803B145
:1038AC00236038BDE402002038B5044608461146B2
:1038BC000022054D2A601A46FCF7A5FF431C02D1D5
:1038CC002B6803B1236038BDE402002038B50446F0
:1038DC00084611460022054D2A601A46FCF752FF95
:1038EC00431C02D12B6803B1236038BDE4020020D5
:1038FC0038B50446084611460022054D2A601A4682
:10390C00FCF726FC431C02D12B6803B1236038BDA5
:10391C00E4020020014B1868704700BF2C00002007
:10392C0070B500260C4D0D4C641BA410A64209D199
:10393C0000F018FF00260A4D0A4C641BA410A64286
:10394C0005D170BD55F8043B98470136EEE755F8A4
:10395C00043B98470136F2E710490008104900086B
:10396C001049000814490008704770477047000060
:10397C0038B50546002940D051F8043C0C1F002BEB
:10398C00B8BFE41800F0DEF81C4A136833B9636062
:10399C0014602846BDE8384000F0DAB8A34208D9D4
:1039AC00206821188B4201BF19685B6809182160D7
:1039BC00EDE71A465B680BB1A342FAD911685018AF
:1039CC00A0420BD120680144501883421160E0D111
:1039DC0018685B68084410605360DAE702D90C235E
:1039EC002B60D6E7206821188B4201BF19685B68F1
:1039FC000918216063605460CBE738BDF0020020E9
:103A0C0070B50F4E0C463168054611B900F05CFDDF
:103A1C0030602146284600F057FD431C03D14FF07F
:103A2C00FF34204670BDC41C24F00304A042F8D01F
:103A3C00211A284600F048FD0130F2D1EFE700BF13
:103A4C00EC0200202DE9F843CD1C25F003050835C8
:103A5C000C2D38BF0C25002D064601DBA94204D9DC
:103A6C000C2333600020BDE8F883DFF8D48000F02D
:103A7C0069F8D8F800301C4644BB29463046FFF79D
:103A8C00BFFF431C044658D1D8F800402746002FEE
:103A9C0043D1002C4BD023683946304604EB030944
:103AAC0000F012FD814542D1216830466D1A29463D
:103ABC00FFF7A6FF01303AD023682B442360D8F8D7
:103ACC0000305A6862BBC8F800700FE02268521BC5
:103ADC0020D40B2A17D96119A342256018BF59604D
:103AEC00636808BFC8F8001062514B60304600F0A4
:103AFC002FF804F10B00231D20F00700C21A1CBF85
:103B0C001B1AA350AFE76268A3420CBFC8F8002091
:103B1C005A60EBE723466468AEE73C467F68B6E73D
:103B2C001A465B68A342FBD100235360DEE70C23EB
:103B3C003046336000F00CF894E70560D6E700BF20
:103B4C00F00200200148FFF710BF00BFE802002080
:103B5C000148FFF70BBF00BFE802002038B54B1C33
:103B6C00144603D14FF0FF35284638BD9389CDB2AA
:103B7C0023F020039381636B52688BB1A36B934248
:103B8C0008DD23685A1E226003F8015C6368013368
:103B9C006360E9E7214600F03DFC0028F1D0E1E745
:103BAC002169236851B1994208D213F8011CA9422A
:103BBC0004D1013B013223606260D5E7C4E90F32C6
:103BCC0004F1440363630323A363234603F8465FB2
:103BDC0023600123DCE710B50C46496B69B104F195
:103BEC004403994201D0FFF7C3FE0020236C6063AD
:103BFC00636013B1E36B236010BD23694FF0FF309A
:103C0C00236000236360A38943F02003A381F3E7BF
:103C1C002DE9F04F0C4600210646ADF5237DCDE98C
:103C2C004411AB490DF10408A091AA49AA4FCDF853
:103C3C001881A191009392F80090B9F1000F00F057
:103C4C00598117F80930551C13F0080319D0636813
:103C5C00002B0FDD23681A78BA5C120701D42A46B0
:103C6C00E9E7459A01330132459262682360013AD3
:103C7C006260ECE721463046A19B98470028E9D0CA
:103C8C00EDE7B9F1250F40F08680419343935378CB
:103C9C002A2B04BF1023951C4FF00A0208BF419336
:103CAC00AA461AF8011BA1F13003092B1ED9DFF823
:103CBC002CB20322584600F017FC38B101235546AC
:103CCC00419AA0EB0B0083401343419315F8013B41
:103CDC00782B06D8572B10D8252B5CD056D8002B18
:103CEC0074D0032347930A23429387E0439B5546A2
:103CFC0002FB031130394391D2E7A3F15802202A79
:103D0C00EFD801A151F822F0E73D0008EF3C000884
:103D1C00EF3C0008413E0008EF3C0008EF3C000877
:103D2C00EF3C0008EF3C0008EF3C0008EF3C0008BB
:103D3C00EF3C0008573E00083D3E00089F3D000840
:103D4C009F3D00089F3D0008EF3C0008F93D00082E
:103D5C00EF3C0008EF3C0008EF3C0008EF3C00088B
:103D6C00673E0008013E0008DF3D0008EF3C0008FC
:103D7C00EF3C0008633E0008EF3C00083D3E0008A5
:103D8C00EF3C0008EF3C0008E73D0008453B022BE8
:103D9C00A7D8052331E06368002B0DDD23681A7862
:103DAC004A4540F0A780013362682360459B013A85
:103DBC0001336260459352E721463046A19B9847F8
:103DCC000028EBD04498002840F08C804FF0FF3056
:103DDC008CE0419A42F020024192419A42F40072E6
:103DEC00419210226E2B429202D905E0002342939D
:103DFC00032302E008234293042347936368002BB8
:103E0C0039DD419B590604D423681A78BA5C120731
:103E1C0038D4479B022B47DC6B462246304641A9DF
:103E2C0000F06AF8012865D002287FF418AFC9E7C2
:103E3C000A22D7E72946404600F0B3FA419B0546D3
:103E4C0043F0400341930123D7E7419B43F04003E8
:103E5C0041930023D1E70223CFE74198C3063FF5F6
:103E6C00FEAE009B459A191D00911B68C0074CBF04
:103E7C001A801A60F3E621463046A19B9847002829
:103E8C00BFD09FE7459A013245926268013A002AF9
:103E9C00626002DD01332360B6E721463046A19B08
:103EAC0098470028B0D08DE7042B06DC6B462246E1
:103EBC00304641A900F07AF8B4E7094B002B3FF4E7
:103ECC00CEAE6B462246304641A9AFF30080A9E73F
:103EDC00693B0008E33B000806480008E647000879
:103EEC0000000000A3895B063FF570AF0DF5237D44
:103EFC00BDE8F08F4498F9E72DE9F84315468A6838
:103F0C0080460C4632B98A69002A14BF4FF0FF3242
:103F1C0001228A6000272268DFF88C90D1065FBFEF
:103F2C001A68111D19601668A06988B1012807D19B
:103F3C002B681A7863699B5C53B9002F31D022E04F
:103F4C00022820D12B681B7819F803301B071AD4D0
:103F5C0023680137DA065EBF2B681B7806F8013B35
:103F6C002A686B6801322A60A268013B013A6B60D7
:103F7C00A26042B1002BD7DC29464046D4F88031F0
:103F8C0098470028D0D0236813F0100305D1E268BD
:103F9C000132E260A26902B13370002023693B4414
:103FAC002361BDE8F88300BF064800082DE9F04FF7
:103FBC000C469846724B87B08246164693E807002B
:103FCC0003AB83E807006F4BA1696F4A27460329AF
:103FDC0008BF1A46A36801925A1EB2F5AE7F81BF84
:103FEC006FF4AE7503EB050940F25D13A36057F84F
:103FFC001C3B98BF4FF000093D464FF0000B43F4BB
:10400C0050632360316803AB0222097853F82B000C
:10401C0000F06AFA28B3BBF1010F59D162682AB9D2
:10402C0008212268616042F400722260226822F446
:10403C00A0622260A268511EA16092B13268511C2C
:10404C003160127805F8012B7268013A002A72600F
:10405C0007DC31465046D4F880219047002840F0C8
:10406C0085800BF1010BBBF1030FCBD163680BB94E
:10407C000A236360636845496069C91A00F091F9C5
:10408C004FF0000BA3682268002B3DD031686069AB
:10409C0091F800C010F80C00002835D0BCF1300F9E
:1040AC0024D1100522D50BF1010BB9F1000F03D06F
:1040BC00013309F1FF39A3607368013B002B736076
:1040CC001BDD336801333360A368013BA360D9E780
:1040DC00BBF1020FAED1226802F4C061B1F5007FD2
:1040EC00C4D1102142F480726160A2E722F4106204
:1040FC0022600B7805F8013BDEE731465046D4F8D8
:10410C00803198470028DFD02368D9050DD5BD42F2
:10411C0009D915F8011C32465046D4F87C3105F10A
:10412C00FF3998474D46BD4228D0226812F0100244
:10413C0013D12A70394663685046019EB047D8F8AF
:10414C00003021681A1DC8F8002011F0200F1B68E0
:10415C000FD01860E3680133E36000202369ED1B86
:10416C005D442B44236107B0BDE8F08F4FF0000B8A
:10417C00CAE7CA074CBF18801860EBE70120F2E7CA
:10418C00B04700087D4600085D470008FA47000864
:10419C00B1F90C20F8B5160705460C4654D44B68FB
:1041AC00002B02DC0B6C002B48DDE66A002E45D0A0
:1041BC00002312F480522F68216A2B6030D0626D7C
:1041CC00A389590705D56368D21A636B0BB1236CAD
:1041DC00D21A00232846E66A216AB047431CA389F9
:1041EC0006D129681D292BD8284ACA40D60727D5BD
:1041FC00002262602269D904226004D5421C01D1DC
:10420C002B6803B96065616B2F60B9B104F144038D
:10421C00994202D02846FFF7ABFB002363630DE005
:10422C0001232846B0470246501CC9D12B68002BED
:10423C00C6D01D2B01D0162B1DD12F60002021E0E4
:10424C0043F040031BB21AE00F69002FF6D093071E
:10425C0018BF00230E6808BF4B69F61B0F608B60FC
:10426C00002EEBDD33463A462846216AD4F828C0A6
:10427C00E047002807DCB4F90C3043F040034FF062
:10428C00FF30A381F8BD0744361AE9E7010040204E
:10429C0038B50B6905460C4613B90025284638BDC0
:1042AC0018B1036A0BB9FFF73BF9B4F90C30002BCA
:1042BC00F3D0626ED00704D4990502D4A06DFFF739
:1042CC0054FB28462146FFF763FF636E0546DA0769
:1042DC00E4D4A3899B05E1D4A06DFFF747FBDDE790
:1042EC0070B50C46B1F90E10154600291E4696B055
:1042FC000CDAA389002113F0800F14BF40234FF474
:10430C008063002031602B6016B070BD6A4600F0EF
:10431C00B9F80028EDDB019901F47041A1F50053C7
:10432C00594259414FF48063EBE78B89F7B59D07F0
:10433C0006460C4607D504F147032360236101238D
:10434C00636103B0F0BD6A4601ABFFF7C9FF009F84
:10435C00054639463046FFF775FB48B9B4F90C30C1
:10436C009A05EED423F0030343F00203A381E2E7A2
:10437C00A389C4E9040743F08003A381019B206057
:10438C005BB13046B4F90E1000F08EF828B1A38959
:10439C0023F0030343F00103A381A3891D43A581EB
:1043AC00CFE770B50B7804465E2B0BBF4B784A1CDD
:1043BC008A1C002108BF0121013804F1FF0500F817
:1043CC00011FA842FBD10BB9501E70BD81F0010139
:1043DC001046E154024612F8015B2D2D05D05D2DDF
:1043EC0016D0002DF1D02B46F2E746785D2EFAD090
:1043FC00B342F8DC1A46023001329642A154FBDC7F
:10440C00F21A013AB342A8BF00225D1CAB18E1E7D7
:10441C001046DAE72DE9F0410C46496B04F14403F0
:10442C0099421BD14FF48061FFF70CFB18B94FF088
:10443C00FF30BDE8F0814FF48063A36394F84630FD
:10444C00606380F8FF3394F8453000F2FD30437020
:10445C0094F84430037020600020EAE7A66B7700E4
:10446C003A4600F05DF805460028E0D000EB06085F
:10447C0001463246404600F045F8C4E90D57C4F8F1
:10448C000080E9E738B50023064D0446084611467E
:10449C002B60FCF79FF9431C02D12B6803B12360FE
:1044AC0038BD00BFE402002038B50023054D04469A
:1044BC0008462B60FCF79DF9431C02D12B6803B115
:1044CC00236038BDE402002038B50023054D0446B6
:1044DC0008462B60FCF7A4F9431C02D12B6803B1EE
:1044EC00236038BDE4020020034610B5C9B2024473
:1044FC009342184601D1002003E0047801338C422A
:10450C00F6D110BD0A44914200F1FF3300D170473F
:10451C0010B511F8014B914203F8014FF9D110BDC0
:10452C002DE9F041074614460D4621B91146BDE868
:10453C00F041FFF787BA2AB9FFF71AFA2546284641
:10454C00BDE8F08100F006F98442064602D8B4EBCF
:10455C00500FF4D821463846FFF774FA804608B954
:10456C004546ECE7B4422246294628BF3246FFF7BF
:10457C00C9FF29463846FFF7FBF9F1E7242B2DE953
:10458C00F0478646904601D8012B06D1FFF7C2F9B9
:10459C00162303600020BDE8F0870D4633482A46F9
:1045AC0015F8014B065D16F00806F8D12D2C10D12C
:1045BC0001262C78951C33F0100215D1302C0DD11E
:1045CC002A7802F0DF02582A08D16C7802351023C1
:1045DC000AE02B2C04BF2C78951CECE7002BF6D1B1
:1045EC00302C14BF0A230823002206F1004C0CF1D6
:1045FC00FF3CBCFBF3F9104603FB19CAA4F13007CE
:10460C00092F0FD83C46A3421BDD571C07D0814510
:10461C0014D301D1A24511DB012200FB034015F894
:10462C00014BEBE7A4F14107192F01D8373CEAE71E
:10463C00A4F16107192F04D8573CE4E74FF0FF327F
:10464C00EDE7531C08D122236046CEF80030B8F1B8
:10465C00000FA0D0691E06E006B14042B8F1000F71
:10466C0099D0002AF6D1C8F8001094E70648000843
:10467C00FFF784BF2DE9F04386460D46334E28469E
:10468C0015F8014B375D17F00807F8D12D2C10D118
:10469C0001272C78851C33F0100015D1302C0DD14E
:1046AC00287800F0DF00582808D16C7802351023E8
:1046BC000AE02B2C04BF2C78851CECE7002BF6D1E0
:1046CC00302C14BF0A2308234FF0FF38B8FBF3F843
:1046DC00002603FB08F930466FEA0909A4F1300CF7
:1046EC00BCF1090F10D86446A3421EDDB6F1FF3FA2
:1046FC0007D0804516D301D1A14513DB012600FB61
:10470C00034015F8014BE9E7A4F1410CBCF1190F7A
:10471C0001D8373CE8E7A4F1610CBCF1190F04D8BF
:10472C00573CE1E74FF0FF36EBE7731C06D1222331
:10473C003046CEF8003032B9BDE8F08307B14042C4
:10474C00002AF9D006B1691E1160F5E70648000889
:10475C00FFF790BF51F8043C181F002BBCBF0B583F
:10476C00C0187047F8B500BFF8BC08BC9E4670472F
:0C477C00F8B500BFF8BC08BC9E467047B2
:104788000D0A2D2D2D2D5374617274696E67205595
:104798004152542D2D2D2D0D000000004A3A0000E5
:1047A8004A3A25642C256400FC470008FF470008A6
:1047B8000248000800000000000000000102030495
:1047C80006070809000000000102030402030405AB
:1047D800060708090A0B0C0D0E0F10100102686C71
:1047E8004C00412D46612D6638393031323334352D
:1047F80036375D002B2D003030007858000020201F
:104808002020202020202028282828282020202078
:104818002020202020202020202020202020881038
:104828001010101010101010101010101010040498
:10483800040404040404040410101010101010419F
:104848004141414141010101010101010101010110
:1048580001010101010101010110101010101042A5
:1048680042424242420202020202020202020202E0
:1048780002020202020202020210101010200000BE
:104888000000000000000000000000000000000020
:104898000000000000000000000000000000000010
:1048A8000000000000000000000000000000000000
:1048B80000000000000000000000000000000000F0
:1048C80000000000000000000000000000000000E0
:1048D80000000000000000000000000000000000D0
:1048E80000000000000000000000000000000000C0
:1048F80000000000000000000000000000000000B0
:0849080044B8FF7F010000002C
:044910003101000869
:044914000D01000889
:1049180000127A00100000000100000000020000F0
:10492800000200000002000000020000E80300008E
:104938000000000003000000A80100203000002053
:1049480000000000A80100201002002078020020CA
:10495800000000000000000000000000000000004F
:10496800000000000000000000000000000000003F
:10497800000000000000000000000000000000002F
:0C49880000000000000000000000000023
:04000005080008A542
:00000001FF
