:020000040800F2
:1000000000500020FD1500083914000841140008B4
:100010004914000851140008591400080000000099
:100020000000000000000000000000006114000853
:100030006D14000800000000791400088514000801
:100040004516000845160008451600084516000824
:100050004516000845160008451600084516000814
:100060004516000845160008451600084516000804
:1000700045160008451600084516000845160008F4
:1000800045160008451600084516000845160008E4
:1000900045160008451600084516000845160008D4
:1000A00045160008451600084516000845160008C4
:1000B00045160008451600084516000845160008B4
:1000C00045160008451600084516000845160008A4
:1000D000451600084516000891140008451600084A
:1000E00045160008451600084516000800000000E7
:1000F0000000000000000000000000000000000000
:0C01000000000000000000005FF808F1A3
:1001100010B5054C237833B9044B13B10448AFF341
:1001200000800123237010BDEC01002000000000BE
:10013000F076000808B5034B1BB103490348AFF341
:10014000008008BD00000000F0010020F0760008EB
:10015000034613F8012B002AFBD1181A0138704707
:100160004FF0FF0C1CEAD0521EBF1CEAD15392EA9A
:100170000C0F93EA0C0F6FD01A4480EA010C400276
:1001800018BF5FEA41211ED04FF0006343EA5010D0
:1001900043EA5111A0FB01310CF00040B1F5000F12
:1001A0003EBF490041EAD3715B0040EA010062F1C1
:1001B0007F02FD2A1DD8B3F1004F40EBC25008BFAB
:1001C00020F00100704790F0000F0CF0004C08BFC9
:1001D00049024CEA502040EA51207F3AC2BFD2F196
:1001E000FF0340EAC250704740F400004FF00003A4
:1001F000013A5DDC12F1190FDCBF00F000407047DE
:10020000C2F10002410021FA02F1C2F1200200FA1B
:1002100002FC5FEA310040F1000053EA4C0308BFE2
:1002200020EADC70704792F0000F00F0004C02BF33
:10023000400010F4000F013AF9D040EA0C0093F0AE
:10024000000F01F0004C02BF490011F4000F013B08
:10025000F9D041EA0C018FE70CEAD15392EA0C0F76
:1002600018BF93EA0C0F0AD030F0004C18BF31F0E1
:10027000004CD8D180EA010000F00040704790F0B7
:10028000000F17BF90F0004F084691F0000F91F05B
:10029000004F14D092EA0C0F01D142020FD193EA21
:1002A0000C0F03D14B0218BF084608D180EA0100A9
:1002B00000F0004040F0FE4040F40000704740F085
:1002C000FE4040F44000704781F0004102E000BF72
:1002D00083F0004330B54FEA41044FEA430594EA06
:1002E000050F08BF90EA020F1FBF54EA000C55EA41
:1002F000020C7FEA645C7FEA655C00F0E2804FEA12
:100300005454D4EB5555B8BF6D420CDD2C4480EAF3
:10031000020281EA030382EA000083EA010180EA23
:10032000020281EA0303362D88BF30BD11F0004F71
:100330004FEA01314FF4801C4CEA113102D04042A7
:1003400061EB410113F0004F4FEA03334CEA1333E2
:1003500002D0524263EB430394EA050F00F0A780FA
:10036000A4F10104D5F1200E0DDB02FA0EFC22FAF5
:1003700005F2801841F1000103FA0EF2801843FAE9
:1003800005F359410EE0A5F120050EF1200E012ADA
:1003900003FA0EFC28BF4CF0020C43FA05F3C01818
:1003A00051EBE37101F0004507D54FF0000EDCF191
:1003B000000C7EEB00006EEB0101B1F5801F1BD33A
:1003C000B1F5001F0CD349085FEA30004FEA3C0C3E
:1003D00004F101044FEA445212F5800F80F09A8034
:1003E000BCF1004F08BF5FEA500C50F1000041EB38
:1003F000045141EA050130BD5FEA4C0C404141EB3C
:100400000101013C28BFB1F5801FE9D291F0000F36
:1004100004BF01460020B1FA81F308BF2033A3F1E5
:100420000B03B3F120020CDA0C3208DD02F1140CDC
:10043000C2F10C0201FA0CF021FA02F10CE002F117
:100440001402D8BFC2F1200C01FA02F120FA0CFC10
:10045000DCBF41EA0C019040E41AA2BF01EB045159
:10046000294330BD6FEA04041F3C1CDA0C340EDC57
:1004700004F11404C4F1200220FA04F001FA02F39A
:1004800040EA030021FA04F345EA030130BDC4F158
:100490000C04C4F1200220FA02F001FA04F340EA4D
:1004A0000300294630BD21FA04F0294630BD94F0FE
:1004B000000F83F4801306BF81F480110134013DE5
:1004C0004EE77FEA645C18BF7FEA655C29D094EA56
:1004D000050F08BF90EA020F05D054EA000C04BFD4
:1004E0001946104630BD91EA030F1EBF00210020BF
:1004F00030BD5FEA545C05D14000494128BF41F05E
:10050000004130BD14F580043CBF01F5801130BDC1
:1005100001F0004545F0FE4141F470014FF000004C
:1005200030BD7FEA645C1ABF194610467FEA655CFD
:100530001CBF0B46024650EA013406BF52EA03359F
:1005400091EA030F41F4002130BD00BF90F0000F8D
:1005500004BF0021704730B54FF4806404F13204C9
:100560004FF000054FF0000150E700BF90F0000F82
:1005700004BF0021704730B54FF4806404F13204A9
:1005800010F0004548BF40424FF000013EE700BF79
:1005900042004FEAE2014FEA31014FEA02701FBF09
:1005A00012F07F4393F07F4F81F06051704732F03B
:1005B0007F4208BF704793F07F4F04BF41F4002192
:1005C000704730B54FF4607401F0004521F00041F0
:1005D0001CE700BF50EA010208BF704730B54FF07A
:1005E00000050AE050EA010208BF704730B511F07B
:1005F000004502D5404261EB41014FF4806404F1B3
:1006000032045FEA915C3FF4D8AE4FF003025FEA38
:10061000DC0C18BF03325FEADC0C18BF033202EBBC
:10062000DC02C2F1200300FA03FC20FA02F001FA16
:1006300003FE40EA0E0021FA02F11444BDE600BFB9
:1006400070B54FF0FF0C4CF4E06C1CEA11541DBF68
:100650001CEA135594EA0C0F95EA0C0F00F0DEF833
:100660002C4481EA030621EA4C5123EA4C5350EA18
:10067000013518BF52EA033541F4801143F4801369
:1006800038D0A0FB02CE4FF00005E1FB02E506F0FA
:100690000042E0FB03E54FF00006E1FB03569CF04F
:1006A000000F18BF4EF0010EA4F1FF04B6F5007F55
:1006B00064F5407404D25FEA4E0E6D4146EB0606C7
:1006C00042EAC62141EA55514FEAC52040EA5E5050
:1006D0004FEACE2EB4F1FD0C88BFBCF5E06F1ED8FA
:1006E000BEF1004F08BF5FEA500E50F1000041EB31
:1006F000045170BD06F0004646EA010140EA0200DE
:1007000081EA0301B4EB5C04C2BFD4EB0C0541EAFF
:10071000045170BD41F480114FF0000E013C00F314
:10072000AB8014F1360FDEBF002001F0004170BD38
:10073000C4F10004203C35DA0C341BDC04F1140451
:10074000C4F1200500FA05F320FA04F001FA05F2DD
:1007500040EA020001F0004221F0004110EBD370AA
:1007600021FA04F642EB06015EEA430E08BF20EAD6
:10077000D37070BDC4F10C04C4F1200500FA04F379
:1007800020FA05F001FA04F240EA020001F000410B
:1007900010EBD37041F100015EEA430E08BF20EA7E
:1007A000D37070BDC4F1200500FA05F24EEA020EC6
:1007B00020FA04F301FA05F243EA020321FA04F0F5
:1007C00001F0004121FA04F220EA020000EBD370AC
:1007D0005EEA430E08BF20EAD37070BD94F0000FAC
:1007E0000FD101F00046400041EB010111F4801FE0
:1007F00008BF013CF7D041EA060195F0000F18BF91
:10080000704703F00046520043EB030313F4801FCC
:1008100008BF013DF7D043EA0603704794EA0C0F86
:100820000CEA135518BF95EA0C0F0CD050EA41069C
:1008300018BF52EA4306D1D181EA030101F0004119
:100840004FF0000070BD50EA410606BF1046194641
:1008500052EA430619D094EA0C0F02D150EA01364D
:1008600013D195EA0C0F05D152EA03361CBF10468E
:1008700019460AD181EA030101F0004141F0FE412D
:1008800041F470014FF0000070BD41F0FE4141F4B1
:10089000780170BD70B54FF0FF0C4CF4E06C1CEAB1
:1008A00011541DBF1CEA135594EA0C0F95EA0C0F66
:1008B00000F0A7F8A4EB050481EA030E52EA033521
:1008C0004FEA013100F088804FEA03334FF0805542
:1008D00045EA131343EA12634FEA022245EA11156F
:1008E00045EA10654FEA00260EF000419D4208BF20
:1008F000964244F1FD0404F5407402D25B084FEACD
:100900003202B61A65EB03055B084FEA32024FF478
:1009100080104FF4002CB6EB020E75EB030E22BFD5
:10092000B61A754640EA0C005B084FEA3202B6EB95
:10093000020E75EB030E22BFB61A754640EA5C0044
:100940005B084FEA3202B6EB020E75EB030E22BFD4
:10095000B61A754640EA9C005B084FEA3202B6EBD5
:10096000020E75EB030E22BFB61A754640EADC0094
:1009700055EA060E18D04FEA051545EA16754FEAF6
:1009800006164FEAC30343EA52734FEAC2025FEA14
:100990001C1CC0D111F4801F0BD141EA00014FF0A3
:1009A00000004FF0004CB6E711F4801F04BF014374
:1009B0000020B4F1FD0C88BFBCF5E06F3FF6AFAE90
:1009C000B5EB030C04BFB6EB020C5FEA500C50F120
:1009D000000041EB045170BD0EF0004E4EEA1131A3
:1009E00014EB5C04C2BFD4EB0C0541EA045170BDAA
:1009F00041F480114FF0000E013C90E645EA060EEE
:100A00008DE60CEA135594EA0C0F08BF95EA0C0F1B
:100A10003FF43BAF94EA0C0F0AD150EA01347FF463
:100A200034AF95EA0C0F7FF425AF104619462CE73A
:100A300095EA0C0F06D152EA03353FF4FDAE10469D
:100A4000194622E750EA410618BF52EA43067FF4EE
:100A5000C5AE50EA41047FF40DAF52EA43057FF47E
:100A6000EBAE12E74FF0FF3C06E000BF4FF0010C89
:100A700002E000BF4FF0010C4DF804CD4FEA410CED
:100A80007FEA6C5C4FEA430C18BF7FEA6C5C1BD0BA
:100A900001B050EA410C0CBF52EA430C91EA030F3B
:100AA00002BF90EA020F0020704710F1000F91EA98
:100AB000030F58BF994208BF90422CBFD8176FEA66
:100AC000E37040F0010070474FEA410C7FEA6C5C34
:100AD00002D150EA013C07D14FEA430C7FEA6C5C3B
:100AE000D6D152EA033CD3D05DF8040B704700BF67
:100AF0008446104662468C461946634600E000BFB5
:100B000001B5FFF7B7FF002848BF10F1000F01BD86
:100B10004DF808EDFFF7F4FF0CBF012000205DF851
:100B200008FB00BF4DF808EDFFF7EAFF34BF0120D6
:100B300000205DF808FB00BF4DF808EDFFF7E0FF6F
:100B400094BF012000205DF808FB00BF4DF808EDC0
:100B5000FFF7CEFF94BF012000205DF808FB00BF27
:100B60004DF808EDFFF7C4FF34BF012000205DF809
:100B700008FB00BF4FEA410C7FEA6C5C02D150EAEF
:100B8000013C0AD14FEA430C7FEA6C5C02D152EA85
:100B9000033C02D14FF0000070474FF00100704756
:100BA0004FEA410212F5001215D211D56FF4787395
:100BB000B3EB625212D94FEAC12343F0004343EA38
:100BC000505311F0004F23FA02F018BF4042704713
:100BD0004FF00000704750EA013005D111F000409D
:100BE00008BF6FF0004070474FF00000704700BF33
:100BF00080F0004002E000BF81F0004142001FBFD2
:100C00005FEA410392EA030F7FEA226C7FEA236CDA
:100C10006AD04FEA1262D2EB1363C1BFD2184140CF
:100C200048404140B8BF5B42192B88BF704710F065
:100C3000004F40F4000020F07F4018BF404211F008
:100C4000004F41F4000121F07F4118BF494292EA70
:100C5000030F3FD0A2F1010241FA03FC10EB0C009C
:100C6000C3F1200301FA03F100F0004302D5494229
:100C700060EB4000B0F5000F13D3B0F1807F06D3D6
:100C800040084FEA310102F10102FE2A51D2B1F1CE
:100C9000004F40EBC25008BF20F0010040EA0300C3
:100CA0007047490040EB0000013A28BFB0F5000F43
:100CB000EDD2B0FA80FCACF1080CB2EB0C0200FAF9
:100CC0000CF0AABF00EBC25052421843BCBFD04048
:100CD0001843704792F0000F81F4000106BF80F4C2
:100CE00000000132013BB5E74FEA41037FEA226C85
:100CF00018BF7FEA236C21D092EA030F04D092F050
:100D0000000F08BF0846704790EA010F1CBF002083
:100D1000704712F07F4F04D1400028BF40F00040E0
:100D2000704712F100723CBF00F50000704700F000
:100D3000004343F0FE4040F4000070477FEA226227
:100D400016BF08467FEA23630146420206BF5FEAF8
:100D5000412390EA010F40F4800070474FF00003F8
:100D600004E000BF10F0004348BF40425FEA000CBF
:100D700008BF704743F0964301464FF000001CE067
:100D800050EA010208BF70474FF000030AE000BFBD
:100D900050EA010208BF704711F0004302D54042FB
:100DA00061EB41015FEA010C02BF8446014600206D
:100DB00043F0B64308BFA3F18053A3F50003BCFA88
:100DC0008CF2083AA3EBC25310DB01FA02FC634435
:100DD00000FA02FCC2F12002BCF1004F20FA02F23C
:100DE00043EB020008BF20F00100704702F120022F
:100DF00001FA02FCC2F1200250EA4C0021FA02F290
:100E000043EB020008BF20EADC70704780B584B075
:100E100000AFF860B9607A607B689AB24FF0FF3338
:100E2000B968044802F072FA7B6818461037BD466C
:100E300080BD00BF9802002080B582B000AF78600E
:100E40007B681B68084A934209D1084B1B781846F7
:100E500003F076F801220549054802F0E2FA00BFE6
:100E60000837BD4680BD00BF00440040E0020020BE
:100E70009802002080B500AF00F0E6FB00F048F8D3
:100E800000F084F900F058F900F0D4F800F086F88A
:100E9000164803F033FA164803F0CCF8012215493E
:100EA000154802F0BEFA03F0D7F80346134A136060
:100EB00000F022FC0346124A1360114B1A68114BD2
:100EC0001B68D21A104B1B689A42ECD90B4B1B685B
:100ED0001846FFF75DFB02460B460C4803F092FFF5
:100EE000074B1B68074A1360DDE700BF5002002074
:100EF00008020020E002002098020020E402002006
:100F0000E8020020EC020020000000200877000822
:100F100080B590B000AF07F11803282200211846D1
:100F200003F0F3FF3B1D00221A605A609A60DA60FA
:100F30001A610123BB614FF48033FB6100233B62E4
:100F40000123BB6202237B634FF48033BB634FF406
:100F5000E013FB6307F11803184600F04BFF03464C
:100F6000002B01D000F07CF90F237B600223BB60D3
:100F70000023FB604FF480633B6100237B613B1DDA
:100F80000221184601F0B8F90346002B01D000F009
:100F900067F900BF4037BD4680BD000080B586B010
:100FA00000AF07F1080300221A605A609A60DA6005
:100FB0003B4600221A605A601D4B4FF080421A6077
:100FC0001B4B47225A601A4B00229A60184B4FF66F
:100FD000FF72DA60164B00221A61154B00229A61EB
:100FE000134801F017FB0346002B01D000F038F93D
:100FF0004FF48053BB6007F1080319460C4801F019
:101000005FFD0346002B01D000F02AF900233B606E
:1010100000237B603B461946054802F0C9F80346A9
:10102000002B01D000F01CF900BF1837BD4680BD71
:101030000802002080B58EB000AF07F1280300221F
:101040001A605A609A60DA6007F1200300221A6081
:101050005A603B1D00221A605A609A60DA601A6179
:101060005A619A61324B334A1A60314B47225A60B7
:101070002F4B00229A602E4B4FF47A72DA602C4B81
:1010800000221A612A4B00229A61294801F0C2FA13
:101090000346002B01D000F0E3F84FF48053BB620D
:1010A00007F128031946224801F00AFD0346002BE8
:1010B00001D000F0D5F81E4801F046FB0346002B96
:1010C00001D000F0CDF800233B6200237B6207F1E2
:1010D00020031946164802F06BF80346002B01D096
:1010E00000F0BEF860237B600023BB600023FB6040
:1010F00000237B613B1D002219460D4801F01EFCB8
:101100000346002B01D000F0ABF83B1D042219462A
:10111000074801F013FC0346002B01D000F0A0F8B3
:10112000034800F005F900BF3837BD4680BD00BF59
:10113000500200200004004080B500AF114B124A5D
:101140001A60104B4FF4E1325A600E4B00229A6045
:101150000C4B0022DA600B4B00221A61094B0C2267
:101160005A61084B00229A61064B0022DA61054859
:1011700002F07CF80346002B01D000F071F800BFAC
:1011800080BD00BF980200200044004080B588B0B8
:1011900000AF07F1100300221A605A609A60DA600B
:1011A0002C4B9B692B4A43F020039361294B9B698D
:1011B00003F02003FB60FB68264B9B69254A43F044
:1011C00004039361234B9B6903F00403BB60BB687A
:1011D000204B9B691F4A43F0080393611D4B9B6999
:1011E00003F008037B607B68002233211A4800F07B
:1011F000E8FD00220121194800F0E3FD33233B61A3
:1012000001237B610023BB610223FB6107F1100313
:101210001946114800F03AFC01233B6101237B6130
:101220000023BB610223FB6107F1100319460B4841
:1012300000F02CFC02233B6100237B610023BB6197
:1012400007F110031946054800F020FC00BF2037C5
:10125000BD4680BD0010024000080140000C014066
:1012600080B400AF72B600BF00BFFDE780B485B0A8
:1012700000AF154B9B69144A43F001039361124B75
:101280009B6903F00103BB60BB680F4BDB690E4A2F
:1012900043F08053D3610C4BDB6903F080537B60D8
:1012A0007B680A4B5B68FB60FB6823F0E063FB60D4
:1012B000FB6843F00073FB60044AFB68536000BFA7
:1012C0001437BD4680BC704700100240000001404A
:1012D00080B485B000AF78607B681B68B3F1804F45
:1012E0000CD1114BDB69104A43F00103D3610E4B63
:1012F000DB6903F00103FB60FB6810E07B681B689F
:101300000A4A93420BD1084BDB69074A43F00203B8
:10131000D361054BDB6903F00203BB60BB6800BF10
:101320001437BD4680BC70470010024000040040E6
:1013300080B588B000AF786007F1100300221A6012
:101340005A609A60DA607B681B680F4A934217D133
:101350000E4B9B690D4A43F0040393610B4B9B6951
:1013600003F00403FB60FB68C0233B6102237B6145
:101370000223FB6107F110031946054800F086FBC4
:1013800000BF2037BD4680BD000400400010024071
:101390000008014080B588B000AF786007F1100305
:1013A00000221A605A609A60DA607B681B681F4AE4
:1013B000934237D11E4BDB691D4A43F40033D3619E
:1013C0001B4BDB6903F40033FB60FB68184B9B6924
:1013D000174A43F004039361154B9B6903F0040320
:1013E000BB60BB6804233B6102237B610323FB6179
:1013F00007F1100319460F4800F048FB08233B6132
:1014000000237B610023BB6107F1100319460948E3
:1014100000F03CFB00220021262000F04EFA26209E
:1014200000F067FA00BF2037BD4680BD0044004091
:10143000001002400008014080B400AF00BFFDE78B
:1014400080B400AF00BFFDE780B400AF00BFFDE790
:1014500080B400AF00BFFDE780B400AF00BFFDE780
:1014600080B400AF00BFBD4680BC704780B400AF01
:1014700000BFBD4680BC704780B400AF00BFBD4612
:1014800080BC704780B500AF00F024F900BF80BD7C
:1014900080B500AF024801F0E9FF00BF80BD00BF8A
:1014A0009802002080B400AF01231846BD4680BCDE
:1014B000704780B582B000AF7860396003F08AFD74
:1014C000034616221A604FF0FF3318460837BD4610
:1014D00080BD80B582B000AF78604FF0FF31786892
:1014E000FFF7E7FF00BFFDE780B586B000AFF8600B
:1014F000B9607A6000237B610AE0AFF300800146A7
:10150000BB685A1CBA60CAB21A707B6901337B612E
:101510007A697B689A42F0DB7B6818461837BD46CB
:1015200080BD80B483B000AF78604FF0FF331846C1
:101530000C37BD4680BC704780B483B000AF786084
:1015400039603B684FF400525A60002318460C374C
:10155000BD4680BC704780B483B000AF7860012383
:1015600018460C37BD4680BC704780B485B000AFCC
:10157000F860B9607A60002318461437BD4680BC15
:101580007047000080B586B000AF7860144A154BF4
:10159000D31A7B617B693B61134B1B68002B02D123
:1015A000114B124A1A60104B1A687B6813443A694F
:1015B0009A4207D203F00EFD03460C221A604FF048
:1015C000FF3309E0084B1B68FB60074B1A687B6818
:1015D0001344054A1360FB6818461837BD4680BDA2
:1015E0000050002000040000F002002070040020E1
:1015F00080B400AF00BFBD4680BC7047FFF7F8FF66
:101600000B480C490C4A002302E0D458C450043360
:10161000C4188C42F9D3094A094C002301E0136035
:101620000432A242FBD303F0DBFCFFF723FC70473C
:1016300000000020EC010020FC7A0008EC010020F2
:1016400070040020FEE7000080B500AF084B1B6867
:10165000074A43F010031360032000F023F90F2022
:1016600000F008F8FFF702FE0023184680BD00BF17
:101670000020024080B582B000AF7860124B1A683B
:10168000124B1B7819464FF47A73B3FBF1F3B2FB9C
:10169000F3F3184600F03BF90346002B01D0012379
:1016A0000EE07B680F2B0AD8002279684FF0FF30DC
:1016B00000F003F9064A7B681360002300E0012371
:1016C00018460837BD4680BD040000200C000020ED
:1016D0000800002080B400AF054B1B781A46054B6C
:1016E0001B681344034A136000BFBD4680BC7047AB
:1016F0000C000020F402002080B400AF024B1B68F5
:101700001846BD4680BC7047F402002080B485B006
:1017100000AF78607B6803F00703FB600C4BDB686D
:10172000BB60BA684FF6FF031340BB60FB681A0248
:10173000BB68134343F0BF6343F40033BB60044A08
:10174000BB68D36000BF1437BD4680BC704700BF84
:1017500000ED00E080B400AF044BDB681B0A03F02F
:1017600007031846BD4680BC704700BF00ED00E08F
:1017700080B483B000AF0346FB7197F90730002BAC
:101780000BDBFB7903F01F02064997F907305B0971
:10179000012000FA02F241F8232000BF0C37BD46B9
:1017A00080BC704700E100E080B483B000AF034626
:1017B0003960FB7197F90730002B0ADB3B68DAB21E
:1017C0000C4997F907301201D2B20B4483F8002379
:1017D0000AE03B68DAB20849FB7903F00F03043BE7
:1017E0001201D2B20B441A7600BF0C37BD4680BC42
:1017F000704700BF00E100E000ED00E080B489B078
:1018000000AFF860B9607A60FB6803F00703FB6122
:10181000FB69C3F10703042B28BF0423BB61FB69E9
:101820000433062B02D9FB69033B00E000237B61F4
:101830004FF0FF32BB6902FA03F3DA43BB681A4088
:101840007B699A404FF0FF317B6901FA03F3D9437A
:101850007B680B40134318462437BD4680BC704755
:1018600080B582B000AF78607B68013BB3F1807FC8
:1018700001D301230FE00A4A7B68013B53600F212B
:101880004FF0FF30FFF790FF054B00229A60044BAA
:1018900007221A60002318460837BD4680BD00BFE6
:1018A00010E000E080B582B000AF78607868FFF7A4
:1018B0002DFF00BF0837BD4680BD80B586B000AFA4
:1018C0000346B9607A60FB7300237B61FFF742FF38
:1018D00078617A68B9687869FFF790FF024697F9EE
:1018E0000F3011461846FFF75FFF00BF1837BD469F
:1018F00080BD80B582B000AF0346FB7197F9073019
:101900001846FFF735FF00BF0837BD4680BD80B5DC
:1019100082B000AF78607868FFF7A2FF03461846F0
:101920000837BD4680BD80B485B000AF7860002325
:10193000FB737B6893F82130DBB2022B08D07B6805
:1019400004229A637B68002283F82020012320E090
:101950007B681B681A687B681B6822F00E021A609D
:101960007B681B681A687B681B6822F001021A609A
:101970007B681A6C7B68DB6B012101FA02F25A600A
:101980007B68012283F821207B68002283F82020D5
:10199000FB7B18461437BD4680BC704780B584B0C9
:1019A00000AF78600023FB737B6893F82130DBB2D3
:1019B000022B05D07B6804229A630123FB7351E05C
:1019C0007B681B681A687B681B6822F00E021A602D
:1019D0007B681B681A687B681B6822F001021A602A
:1019E0007B681B68224A934229D07B681B68214A86
:1019F000934222D07B681B681F4A93421AD07B68AF
:101A00001B681E4A934212D07B681B681C4A934293
:101A10000AD07B681B681B4A934202D14FF48013A3
:101A20000EE04FF080730BE04FF4803308E04FF48A
:101A3000805305E04FF4807302E0102300E001239F
:101A4000114A53607B68012283F821207B680022C1
:101A500083F820207B685B6B002B03D07B685B6B7B
:101A600078689847FB7B18461037BD4680BD00BF9D
:101A7000080002401C0002403000024044000240C6
:101A8000580002406C0002400000024080B48BB05D
:101A900000AF7860396000237B6200233B6269E11C
:101AA00001227B6A02FA03F3FB613B681B68FA6957
:101AB0001340BB61BA69FB699A4240F058813B68A8
:101AC0005B689A4A93425ED0984A934275D8984A86
:101AD000934258D0964A93426FD8964A934252D036
:101AE000944A934269D8944A93424CD0924A934282
:101AF00063D8924A934246D0904A93425DD8122BC3
:101B00002AD8122B59D801A252F823F0871B0008BB
:101B1000611B0008731B0008B51B0008BB1B0008F5
:101B2000BB1B0008BB1B0008BB1B0008BB1B00083D
:101B3000BB1B0008BB1B0008BB1B0008BB1B00082D
:101B4000BB1B0008BB1B0008BB1B0008BB1B00081D
:101B5000691B00087D1B0008794A934213D02CE0D2
:101B60003B68DB683B6229E03B68DB6804333B622F
:101B700024E03B68DB6808333B621FE03B68DB68BE
:101B80000C333B621AE03B689B68002B02D10423B4
:101B90003B6213E03B689B68012B05D108233B6245
:101BA0007B68FA691A6109E008233B627B68FA697D
:101BB0005A6103E000233B6200E000BFBB69FF2BDA
:101BC00001D87B6801E07B6804337B61BB69FF2B34
:101BD00002D87B6A9B0002E07B6A083B9B003B616A
:101BE0007B691A680F213B6901FA03F3DB431A4052
:101BF000396A3B6901FA03F31A437B691A603B684F
:101C00005B6803F08053002B00F0B1804D4B9B6963
:101C10004C4A43F0010393614A4B9B6903F0010373
:101C2000BB60BB68484A7B6A9B08023352F823308A
:101C3000FB607B6A03F003039B000F2202FA03F3AD
:101C4000DB43FA681340FB607B68404A934213D041
:101C50007B683F4A93420DD07B683E4A934207D04F
:101C60007B683D4A934201D1032306E0042304E04C
:101C7000022302E0012300E000237A6A02F003025B
:101C800092009340FA681343FB602F497B6A9B08DC
:101C90000233FA6841F823203B685B6803F4801341
:101CA000002B06D02D4B9A682C49BB6913438B60DF
:101CB00006E02A4B9A68BB69DB43284913408B60D6
:101CC0003B685B6803F40013002B06D0234BDA68F3
:101CD0002249BB691343CB6006E0204BDA68BB693D
:101CE000DB431E491340CB603B685B6803F4003361
:101CF000002B06D0194B5A681849BB6913434B6037
:101D000006E0164B5A68BB69DB43144913404B602D
:101D10003B685B6803F48033002B21D00F4B1A68BB
:101D20000E49BB6913430B6021E000BF0000321075
:101D300000003110000022100000211000001210DD
:101D40000000111000100240000001400008014096
:101D5000000C01400010014000140140000401404B
:101D60000B4B1A68BB69DB43094913400B607B6A64
:101D700001337B623B681A687B6A22FA03F3002B0B
:101D80007FF48EAE00BF00BF2C37BD4680BC7047CD
:101D90000004014080B485B000AF78600B467B80C2
:101DA0007B689A687B881340002B02D00123FB7369
:101DB00001E00023FB73FB7B18461437BD4680BC53
:101DC000704780B483B000AF78600B467B801346C9
:101DD0007B707B78002B03D07A887B681A6103E0E4
:101DE0007B881A047B681A6100BF0C37BD4680BC33
:101DF0007047000080B586B000AF78607B68002B2C
:101E000001D1012372E27B681B6803F00103002B00
:101E100000F08780924B5B6803F00C03042B0CD01E
:101E20008F4B5B6803F00C03082B12D18C4B5B6863
:101E300003F48033B3F5803F0BD1894B1B6803F467
:101E40000033002B6CD07B685B68002B68D10123CA
:101E50004CE27B685B68B3F5803F06D1804B1B6822
:101E60007F4A43F4803313602EE07B685B68002B6D
:101E70000CD17B4B1B687A4A23F480331360784B78
:101E80001B68774A23F4802313601DE07B685B683E
:101E9000B3F5A02F0CD1724B1B68714A43F4802319
:101EA00013606F4B1B686E4A43F4803313600BE082
:101EB0006B4B1B686A4A23F480331360684B1B68C2
:101EC000674A23F4802313607B685B68002B13D080
:101ED000FFF712FC386108E0FFF70EFC02463B6991
:101EE000D31A642B01D9032300E25D4B1B6803F472
:101EF0000033002BF0D014E0FFF7FEFB386108E060
:101F0000FFF7FAFB02463B69D31A642B01D903237E
:101F1000ECE1534B1B6803F40033002BF0D100E0DD
:101F200000BF7B681B6803F00203002B63D04C4B9F
:101F30005B6803F00C03002B0BD0494B5B6803F08C
:101F40000C03082B1CD1464B5B6803F48033002B39
:101F500016D1434B1B6803F00203002B05D07B68AE
:101F60001B69012B01D00123C0E13D4B1B6823F00D
:101F7000F8027B685B69DB00394913430B603AE088
:101F80007B681B69002B20D0364B01221A60FFF7BB
:101F9000B3FB386108E0FFF7AFFB02463B69D31A99
:101FA000022B01D90323A1E12D4B1B6803F002038F
:101FB000002BF0D02A4B1B6823F0F8027B685B698A
:101FC000DB00274913430B6015E0264B00221A6003
:101FD000FFF792FB386108E0FFF78EFB02463B6992
:101FE000D31A022B01D9032380E11D4B1B6803F098
:101FF0000203002BF0D17B681B6803F00803002B61
:102000003AD07B689B69002B19D0174B01221A60CC
:10201000FFF772FB386108E0FFF76EFB02463B6991
:10202000D31A022B01D9032360E10D4B5B6A03F045
:102030000203002BF0D0012000F0CEFA1CE00A4B86
:1020400000221A60FFF758FB38610FE0FFF754FBDE
:1020500002463B69D31A022B08D9032346E100BF8D
:10206000001002400000424280044242924B5B6AF0
:1020700003F00203002BE9D17B681B6803F0040323
:10208000002B00F0A6800023FB758B4BDB6903F06F
:102090008053002B0DD1884BDB69874A43F0805376
:1020A000D361854BDB6903F08053BB60BB680123C0
:1020B000FB75824B1B6803F48073002B18D17F4B98
:1020C0001B687E4A43F480731360FFF715FB386189
:1020D00008E0FFF711FB02463B69D31A642B01D9D4
:1020E000032303E1754B1B6803F48073002BF0D0CE
:1020F0007B68DB68012B06D16F4B1B6A6E4A43F08D
:10210000010313622DE07B68DB68002B0CD16A4B66
:102110001B6A694A23F001031362674B1B6A664A14
:1021200023F0040313621CE07B68DB68052B0CD1F1
:10213000614B1B6A604A43F0040313625E4B1B6AE7
:102140005D4A43F0010313620BE05B4B1B6A5A4A82
:1021500023F001031362584B1B6A574A23F0040310
:1021600013627B68DB68002B15D0FFF7C5FA386176
:102170000AE0FFF7C1FA02463B69D31A41F28832FE
:10218000934201D90323B1E04B4B1B6A03F00203D6
:10219000002BEED014E0FFF7AFFA38610AE0FFF74A
:1021A000ABFA02463B69D31A41F28832934201D915
:1021B00003239BE0404B1B6A03F00203002BEED18C
:1021C000FB7D012B05D13C4BDB693B4A23F080535F
:1021D000D3617B68DB69002B00F08780364B5B683E
:1021E00003F00C03082B61D07B68DB69022B46D11E
:1021F000334B00221A60FFF77FFA386108E0FFF7DF
:102200007BFA02463B69D31A022B01D903236DE006
:10221000294B1B6803F00073002BF0D17B681B6A0D
:10222000B3F5803F08D1244B5B6823F400327B6810
:102230009B68214913434B601F4B5B6823F4741266
:102240007B68196A7B685B6A0B431B4913434B60CD
:102250001B4B01221A60FFF74FFA386108E0FFF7C5
:102260004BFA02463B69D31A022B01D903233DE006
:10227000114B1B6803F00073002BF0D035E0104BBE
:1022800000221A60FFF738FA386108E0FFF734FAE5
:1022900002463B69D31A022B01D9032326E0064BE1
:1022A0001B6803F00073002BF0D11EE07B68DB6934
:1022B000012B07D1012319E00010024000700040FB
:1022C000600042420B4B5B68FB60FB6803F48032AA
:1022D0007B681B6A9A4206D1FB6803F470127B6824
:1022E0005B6A9A4201D0012300E0002318461837A8
:1022F000BD4680BD0010024080B584B000AF78605C
:1023000039607B68002B01D10123D0E06A4B1B6848
:1023100003F007033A689A4210D9674B1B6823F011
:10232000070265493B6813430B60634B1B6803F06E
:1023300007033A689A4201D00123B8E07B681B6822
:1023400003F00203002B20D07B681B6803F004031A
:10235000002B05D0594B5B68584A43F4E063536047
:102360007B681B6803F00803002B05D0534B5B68A8
:10237000524A43F460535360504B5B6823F0F002C1
:102380007B689B684D4913434B607B681B6803F077
:102390000103002B40D07B685B68012B07D1474BC2
:1023A0001B6803F40033002B15D101237FE07B6809
:1023B0005B68022B07D1414B1B6803F00073002BB5
:1023C00009D1012373E03D4B1B6803F00203002B8E
:1023D00001D101236BE0394B5B6823F003027B687A
:1023E0005B68364913434B60FFF786F9F8600AE0F3
:1023F000FFF782F90246FB68D31A41F28832934212
:1024000001D9032353E02D4B5B6803F00C027B687A
:102410005B689B009A42EBD1274B1B6803F00703D4
:102420003A689A4210D2244B1B6823F007022249D3
:102430003B6813430B60204B1B6803F007033A68AB
:102440009A4201D0012332E07B681B6803F0040349
:10245000002B08D0194B5B6823F4E0627B68DB68D3
:10246000164913434B607B681B6803F00803002B7D
:1024700009D0124B5B6823F460527B681B69DB0058
:102480000E4913434B6000F021F802460B4B5B688A
:102490001B0903F00F030A49CB5C22FA03F3094A34
:1024A0001360094B1B681846FFF7E4F80023184631
:1024B0001037BD4680BD00BF002002400010024022
:1024C00038770008040000200800002080B487B09E
:1024D00000AF0023FB600023BB6000237B6100236F
:1024E0007B6000233B611E4B5B68FB60FB6803F075
:1024F0000C03042B02D0082B03D027E0194B3B61BF
:1025000027E0FB689B0C03F00F03174AD35C7B604A
:10251000FB6803F48033002B10D0114B5B685B0C1D
:1025200003F00103114AD35CBB607B680D4A03FBD7
:1025300002F2BB68B2FBF3F37B6104E07B680C4AF8
:1025400002FB03F37B617B693B6102E0054B3B616E
:1025500000BF3B6918461C37BD4680BC704700BFB2
:102560000010024000127A005077000860770008DF
:1025700000093D0080B400AF024B1B681846BD4601
:1025800080BC70470400002080B500AFFFF7F2FF69
:102590000246054B5B681B0A03F007030349CB5C4B
:1025A00022FA03F3184680BD001002404877000865
:1025B00080B500AFFFF7DEFF0246054B5B68DB0A24
:1025C00003F007030349CB5C22FA03F3184680BDEE
:1025D000001002404877000880B485B000AF7860F2
:1025E0000A4B1B680A4AA2FB03235B0A7A6802FBB8
:1025F00003F3FB6000BFFB685A1EFA60002BF9D1A1
:1026000000BF00BF1437BD4680BC704704000020E7
:10261000D34D621080B582B000AF78607B68002B2C
:1026200001D1012341E07B6893F83D30DBB2002B00
:1026300006D17B68002283F83C207868FEF748FECC
:102640007B68022283F83D207B681A687B6804332C
:102650001946104600F0FCFA7B68012283F84620F8
:102660007B68012283F83E207B68012283F83F20AB
:102670007B68012283F840207B68012283F8412097
:102680007B68012283F842207B68012283F8432083
:102690007B68012283F844207B68012283F845206F
:1026A0007B68012283F83D20002318460837BD4689
:1026B00080BD000080B485B000AF78607B6893F87F
:1026C0003D30DBB2012B01D0012332E07B680222D6
:1026D00083F83D207B681B68184A93420ED07B68C4
:1026E0001B68B3F1804F09D07B681B68144A934282
:1026F00004D07B681B68134A934211D17B681B6826
:102700009B6803F00703FB60FB68062B10D07B6817
:102710001B681A687B681B6842F001021A6007E0B8
:102720007B681B681A687B681B6842F001021A60AC
:10273000002318461437BD4680BC7047002C01406A
:10274000000400400008004080B582B000AF78600F
:102750007B68002B01D1012341E07B6893F83D3079
:10276000DBB2002B06D17B68002283F83C2078681E
:1027700000F039F87B68022283F83D207B681A68F4
:102780007B6804331946104600F062FA7B68012228
:1027900083F846207B68012283F83E207B68012273
:1027A00083F83F207B68012283F840207B68012268
:1027B00083F841207B68012283F842207B68012254
:1027C00083F843207B68012283F844207B68012240
:1027D00083F845207B68012283F83D2000231846BA
:1027E0000837BD4680BD80B483B000AF786000BFBD
:1027F0000C37BD4680BC704780B584B000AF7860B0
:1028000039603B68002B09D17B6893F83E30DBB21E
:10281000012B14BF01230023DBB222E03B68042B11
:1028200009D17B6893F83F30DBB2012B14BF012341
:102830000023DBB215E03B68082B09D17B6893F8D5
:102840004030DBB2012B14BF01230023DBB208E0D0
:102850007B6893F84130DBB2012B14BF01230023C6
:10286000DBB2002B01D001235EE03B68002B04D1DA
:102870007B68022283F83E2013E03B68042B04D1DE
:102880007B68022283F83F200BE03B68082B04D1D1
:102890007B68022283F8402003E07B68022283F8F1
:1028A00041207B681B6801223968184600F05CFCF7
:1028B0007B681B681E4A934207D17B681B685A6C71
:1028C0007B681B6842F400425A647B681B68184AA4
:1028D00093420ED07B681B68B3F1804F09D07B68B0
:1028E0001B68144A934204D07B681B68124A9342C7
:1028F00011D17B681B689B6803F00703FB60FB68D2
:10290000062B10D07B681B681A687B681B6842F036
:1029100001021A6007E07B681B681A687B681B6805
:1029200042F001021A60002318461037BD4680BDF0
:10293000002C0140000400400008004080B586B033
:1029400000AFF860B9607A600023FB75FB6893F80C
:102950003C30012B01D10223AEE0FB68012283F859
:102960003C207B680C2B00F29F8001A252F823F0E0
:10297000A5290008A92A0008A92A0008A92A0008F0
:10298000E5290008A92A0008A92A0008A92A0008A0
:10299000272A0008A92A0008A92A0008A92A00084D
:1029A000672A0008FB681B68B968184600F0BEF982
:1029B000FB681B689A69FB681B6842F008029A6111
:1029C000FB681B689A69FB681B6822F004029A6125
:1029D000FB681B689969BB681A69FB681B680A4336
:1029E0009A6164E0FB681B68B968184600F004FA55
:1029F000FB681B689A69FB681B6842F400629A6175
:102A0000FB681B689A69FB681B6822F480629A6104
:102A1000FB681B689969BB681B691A02FB681B6825
:102A20000A439A6143E0FB681B68B968184600F0E6
:102A30004DFAFB681B68DA69FB681B6842F0080204
:102A4000DA61FB681B68DA69FB681B6822F0040224
:102A5000DA61FB681B68D969BB681A69FB681B6887
:102A60000A43DA6123E0FB681B68B968184600F086
:102A700097FAFB681B68DA69FB681B6842F400621E
:102A8000DA61FB681B68DA69FB681B6822F4806204
:102A9000DA61FB681B68D969BB681B691A02FB68AD
:102AA0001B680A43DA6102E00123FB7500BFFB6883
:102AB000002283F83C20FB7D18461837BD4680BDB8
:102AC00080B584B000AF786039600023FB737B6809
:102AD00093F83C30012B01D10223B4E07B68012242
:102AE00083F83C207B68022283F83D207B681B68CA
:102AF0009B68BB60BB6823F07703BB60BB6823F4B3
:102B00007F43BB607B681B68BA689A603B681B6840
:102B1000B3F5005F3ED0B3F5005F00F28780B3F5F8
:102B2000805F00F08680B3F5805F7FD8702B1AD06D
:102B3000702B7BD8602B50D0602B77D8502B3CD09B
:102B4000502B73D8402B58D0402B6FD8302B64D0EB
:102B5000302B6BD8202B60D0202B67D8002B5CD07B
:102B6000102B5AD062E07B6818683B6899683B6814
:102B70005A683B68DB6800F0D8FA7B681B689B6882
:102B8000BB60BB6843F07703BB607B681B68BA68B7
:102B90009A604FE07B6818683B6899683B685A68A0
:102BA0003B68DB6800F0C1FA7B681B689A687B6849
:102BB0001B6842F480429A603CE07B6818683B687E
:102BC00059683B68DB681A4600F038FA7B681B6876
:102BD0005021184600F08FFA2CE07B6818683B689B
:102BE00059683B68DB681A4600F056FA7B681B6838
:102BF0006021184600F07FFA1CE07B6818683B688B
:102C000059683B68DB681A4600F018FA7B681B6855
:102C10004021184600F06FFA0CE07B681A683B68A8
:102C20001B681946104600F066FA03E00123FB73A7
:102C300000E000BF7B68012283F83D207B68002212
:102C400083F83C20FB7B18461037BD4680BD000052
:102C500080B485B000AF786039607B681B68FB602A
:102C60007B682F4A93420BD07B68B3F1804F07D02B
:102C70007B682C4A934203D07B682B4A934208D14D
:102C8000FB6823F07003FB603B685B68FA681343E2
:102C9000FB607B68224A93420BD07B68B3F1804F84
:102CA00007D07B681F4A934203D07B681E4A934239
:102CB00008D1FB6823F44073FB603B68DB68FA686B
:102CC0001343FB60FB6823F080023B685B6913439E
:102CD000FB607B68FA681A603B689A687B68DA6216
:102CE0003B681A687B689A627B680D4A934203D1FD
:102CF0003B681A697B681A637B6801225A617B68AA
:102D00001B6903F00103002B05D07B681B6923F0CE
:102D100001027B681A6100BF1437BD4680BC704752
:102D2000002C0140000400400008004080B487B03F
:102D300000AF786039607B681B6A7B617B681B6AC7
:102D400023F001027B681A627B685B683B617B68E9
:102D50009B69FB60FB6823F07003FB60FB6823F05A
:102D60000303FB603B681B68FA681343FB607B69E5
:102D700023F002037B613B689B687A6913437B61A4
:102D80007B681C4A93420CD17B6923F008037B616A
:102D90003B68DB687A6913437B617B6923F004033A
:102DA0007B617B68134A934211D13B6923F48073A2
:102DB0003B613B6923F400733B613B685B693A69A3
:102DC00013433B613B689B693A6913433B617B68F2
:102DD0003A695A607B68FA689A613B685A687B680E
:102DE0005A637B687A691A6200BF1C37BD4680BC93
:102DF000704700BF002C014080B487B000AF7860FE
:102E000039607B681B6A7B617B681B6A23F0100258
:102E10007B681A627B685B683B617B689B69FB60CF
:102E2000FB6823F4E043FB60FB6823F44073FB6022
:102E30003B681B681B02FA681343FB607B6923F045
:102E400020037B613B689B681B017A6913437B61AC
:102E50007B681D4A93420DD17B6923F080037B611F
:102E60003B68DB681B017A6913437B617B6923F054
:102E700040037B617B68144A934213D13B6923F47E
:102E800080633B613B6923F400633B613B685B69A2
:102E90009B003A6913433B613B689B699B003A691D
:102EA00013433B617B683A695A607B68FA689A61B0
:102EB0003B685A687B689A637B687A691A6200BFCC
:102EC0001C37BD4680BC7047002C014080B487B0E1
:102ED00000AF786039607B681B6A7B617B681B6A26
:102EE00023F480727B681A627B685B683B617B6855
:102EF000DB69FB60FB6823F07003FB60FB6823F079
:102F00000303FB603B681B68FA681343FB607B6943
:102F100023F400737B613B689B681B027A6913434F
:102F20007B617B681D4A93420DD17B6923F400636A
:102F30007B613B68DB681B027A6913437B617B69B9
:102F400023F480637B617B68144A934213D13B690D
:102F500023F480533B613B6923F400533B613B689E
:102F60005B691B013A6913433B613B689B691B0129
:102F70003A6913433B617B683A695A607B68FA6837
:102F8000DA613B685A687B68DA637B687A691A623F
:102F900000BF1C37BD4680BC704700BF002C0140FD
:102FA00080B487B000AF786039607B681B6A3B6192
:102FB0007B681B6A23F480527B681A627B685B68BB
:102FC0007B617B68DB69FB60FB6823F4E043FB60AB
:102FD000FB6823F44073FB603B681B681B02FA68C4
:102FE0001343FB603B6923F400533B613B689B68E0
:102FF0001B033A6913433B617B680F4A934209D133
:103000007B6923F480437B613B685B699B017A6940
:1030100013437B617B687A695A607B68FA68DA617E
:103020003B685A687B681A647B683A691A6200BF19
:103030001C37BD4680BC7047002C014080B487B06F
:1030400000AFF860B9607A60FB681B6A7B61FB685F
:103050001B6A23F00102FB681A62FB689B693B61F3
:103060003B6923F0F0033B617B681B013A69134322
:103070003B617B6923F00A037B617A69BB68134378
:103080007B61FB683A699A61FB687A691A6200BFE2
:103090001C37BD4680BC704780B487B000AFF86075
:1030A000B9607A60FB681B6A7B61FB681B6A23F06E
:1030B0001002FB681A62FB689B693B613B6923F461
:1030C00070433B617B681B033A6913433B617B6937
:1030D00023F0A0037B61BB681B017A6913437B610A
:1030E000FB683A699A61FB687A691A6200BF1C370B
:1030F000BD4680BC704780B485B000AF7860396051
:103100007B689B68FB60FB6823F07003FB603A6898
:10311000FB68134343F00703FB607B68FA689A601F
:1031200000BF1437BD4680BC704780B487B000AF85
:10313000F860B9607A603B60FB689B687B617B6983
:1031400023F47F437B613B681A027B681A43BB68A8
:1031500013437A6913437B61FB687A699A6000BF05
:103160001C37BD4680BC704780B487B000AFF860A4
:10317000B9607A60BB6803F01F03012202FA03F30F
:103180007B61FB681A6A7B69DB431A40FB681A6241
:10319000FB681A6ABB6803F01F03796801FA03F33E
:1031A0001A43FB681A6200BF1C37BD4680BC7047DB
:1031B00080B485B000AF786039607B6893F83C30AC
:1031C000012B01D1022346E07B68012283F83C20D9
:1031D0007B68022283F83D207B681B685B68FB608C
:1031E0007B681B689B68BB60FB6823F07003FB6017
:1031F0003B681B68FA681343FB607B681B68FA68CE
:103200005A607B681B68164A93420ED07B681B6825
:10321000B3F1804F09D07B681B68124A934204D0F7
:103220007B681B68104A93420CD1BB6823F0800373
:10323000BB603B685B68BA681343BB607B681B6814
:10324000BA689A607B68012283F83D207B6800227F
:1032500083F83C20002318461437BD4680BC7047D5
:10326000002C0140000400400008004080B582B0FE
:1032700000AF78607B68002B01D1012342E07B68BE
:1032800093F84130DBB2002B06D17B68002283F833
:1032900040207868FEF77EF87B68242283F841207E
:1032A0007B681B68DA687B681B6822F40052DA606E
:1032B000786800F0B7FD7B681B681A697B681B683B
:1032C00022F490421A617B681B685A697B681B680C
:1032D00022F02A025A617B681B68DA687B681B68E7
:1032E00042F40052DA607B6800225A647B68202234
:1032F00083F841207B68202283F842207B680022EB
:103300005A63002318460837BD4680BD80B58AB091
:1033100002AFF860B9603B601346FB8000237B611D
:10332000FB6893F84130DBB2202B75D1BB68002BD2
:1033300002D0FB88002B01D101236EE0FB68002244
:103340005A64FB68212283F84120FEF7D5F97861A1
:10335000FB68FA889A84FB68FA88DA84FB689B68C1
:10336000B3F5805F08D1FB681B69002B04D10023F3
:10337000FB61BB68BB6103E0BB68FB610023BB6111
:103380002EE03B6800937B6900228021F86800F002
:103390001CFB0346002B05D0FB68202283F841204C
:1033A00003233AE0FB69002B0BD1BB691B881A464B
:1033B000FB681B68C2F308025A60BB690233BB6139
:1033C00007E0FB691A78FB681B685A60FB690133E8
:1033D000FB61FB68DB8C9BB2013B9AB2FB68DA8431
:1033E000FB68DB8C9BB2002BCBD13B6800937B69E5
:1033F00000224021F86800F0E8FA0346002B05D0CF
:10340000FB68202283F84120032306E0FB6820228A
:1034100083F84120002300E0022318462037BD46F0
:1034200080BD80B584B000AFF860B9601346FB8002
:10343000FB6893F84230DBB2202B12D1BB68002B23
:1034400002D0FB88002B01D101230BE0FB68002296
:103450001A63FB881A46B968F86800F00FFB034648
:1034600000E0022318461037BD4680BD80B5BAB0D3
:1034700000AF78607B681B681B68C7F8E4307B6826
:103480001B68DB68C7F8E0307B681B685B69C7F8BE
:10349000DC300023C7F8D8300023C7F8D430D7F881
:1034A000E43003F00F03C7F8D830D7F8D830002B3A
:1034B0000FD1D7F8E43003F02003002B09D0D7F860
:1034C000E03003F02003002B03D0786800F0ECFB21
:1034D0005BE2D7F8D830002B00F0DE80D7F8DC3084
:1034E00003F00103002B06D1D7F8E03003F490730A
:1034F000002B00F0D180D7F8E43003F00103002B5B
:103500000BD0D7F8E03003F48073002B05D07B6834
:103510005B6C43F001027B685A64D7F8E43003F037
:103520000403002B0BD0D7F8DC3003F00103002B91
:1035300005D07B685B6C43F002027B685A64D7F865
:10354000E43003F00203002B0BD0D7F8DC3003F09B
:103550000103002B05D07B685B6C43F004027B68A1
:103560005A64D7F8E43003F00803002B11D0D7F8E1
:10357000E03003F02003002B05D1D7F8DC3003F056
:103580000103002B05D07B685B6C43F008027B686D
:103590005A647B685B6C002B00F0F281D7F8E43052
:1035A00003F02003002B08D0D7F8E03003F020030D
:1035B000002B02D0786800F077FB7B681B685B69A2
:1035C00003F04003002B14BF01230023DBB2C7F834
:1035D000D4307B685B6C03F00803002B03D1D7F871
:1035E000D430002B4FD0786800F081FA7B681B68DC
:1035F0005B6903F04003002B41D07B681B681433E8
:10360000C7F89C30D7F89C3053E8003FC7F8983093
:10361000D7F8983023F04003C7F8D0307B681B6898
:103620001433D7F8D020C7F8A820C7F8A430D7F8AB
:10363000A410D7F8A82041E80023C7F8A030D7F895
:10364000A030002BD9D17B68DB6B002B13D07B68BB
:10365000DB6B7E4A5A637B68DB6B1846FEF79EF98C
:103660000346002B16D07B68DB6B5B6B7A68D26BF2
:10367000104698470EE0786800F093F90AE0786801
:1036800000F08FF906E0786800F08BF97B68002283
:103690005A6475E100BF73E17B681B6B012B40F03E
:1036A0004F81D7F8E43003F01003002B00F048817D
:1036B000D7F8E03003F01003002B00F04181002325
:1036C000BB607B681B681B68BB607B681B685B68B2
:1036D000BB60BB687B681B685B6903F04003002B21
:1036E00000F0B6807B68DB6B1B685B68A7F8BE30B8
:1036F000B7F8BE30002B00F045817B689B8DB7F892
:10370000BE209A4280F03E817B68B7F8BE20DA8501
:103710007B68DB6B9B69202B00F088807B681B68D3
:103720000C33C7F88830D7F8883053E8003FC7F823
:103730008430D7F8843023F48073C7F8B8307B68BE
:103740001B680C33D7F8B820C7F89420C7F890301E
:10375000D7F89010D7F8942041E80023C7F88C30B0
:10376000D7F88C30002BD9D17B681B6814337B676A
:103770007B6F53E8003F3B673B6F23F00103C7F8C3
:10378000B4307B681B681433D7F8B420C7F88020A6
:10379000FB67F96FD7F8802041E80023BB67BB6F58
:1037A000002BE1D17B681B6814333B663B6E53E80A
:1037B000003FFB65FB6D23F04003C7F8B0307B682A
:1037C0001B681433D7F8B020FA66BB66B96EFA6E80
:1037D00041E800237B667B6E002BE3D17B682022CF
:1037E00083F842207B6800221A637B681B680C33D5
:1037F000FB64FB6C53E8003FBB64BB6C23F010031D
:10380000C7F8AC307B681B680C33D7F8AC20BA65BE
:103810007B65796DBA6D41E800233B653B6D002BFC
:10382000E3D17B68DB6B1846FEF77DF87B680222EC
:103830005A637B689A8D7B68DB8D9BB2D31A9BB2EF
:103840001946786800F0B6F89CE000BFB33B00086A
:103850007B689A8D7B68DB8D9BB2D31AA7F8CE303C
:103860007B68DB8D9BB2002B00F08E80B7F8CE30EA
:10387000002B00F089807B681B680C33BB63BB6B3B
:1038800053E8003F7B637B6B23F49073C7F8C83029
:103890007B681B680C33D7F8C8207A643B64396CAA
:1038A0007A6C41E80023FB63FB6B002BE3D17B6860
:1038B0001B6814337B627B6A53E8003F3B623B6AC0
:1038C00023F00103C7F8C4307B681B681433D7F8B2
:1038D000C4203A63FB62F96A3A6B41E80023BB6299
:1038E000BB6A002BE3D17B68202283F842207B68EF
:1038F00000221A637B681B680C333B613B6953E809
:10390000003FFB60FB6823F01003C7F8C0307B6802
:103910001B680C33D7F8C020FA61BB61B969FA693A
:1039200041E800237B617B69002BE3D17B680222A5
:103930005A63B7F8CE301946786800F03BF823E0B8
:10394000D7F8E43003F08003002B09D0D7F8E0303B
:1039500003F08003002B03D0786800F03EF914E0F8
:10396000D7F8E43003F04003002B0ED0D7F8E03056
:1039700003F04003002B08D0786800F07DF904E0E4
:1039800000BF02E000BF00E000BFE837BD4680BDD9
:1039900080B483B000AF786000BF0C37BD4680BCF8
:1039A000704780B483B000AF786000BF0C37BD466D
:1039B00080BC704780B483B000AF78600B467B80DA
:1039C00000BF0C37BD4680BC704780B586B000AFE5
:1039D000F860B9603B601346FB713BE03B6AB3F1B2
:1039E000FF3F37D0FDF788FE02463B68D31A3A6A9C
:1039F0009A4202D33B6A002B01D103233AE0FB68D1
:103A00001B68DB6803F00403002B23D0BB68802B0A
:103A100020D0BB68402B1DD0FB681B681B6803F0DF
:103A20000803082B16D100237B61FB681B681B6809
:103A30007B61FB681B685B687B617B69F86800F0F1
:103A400056F8FB6808225A64FB68002283F840207D
:103A500001230FE0FB681B681A68BB681340BA6853
:103A60009A420CBF01230023DBB21A46FB799A422B
:103A7000B4D0002318461837BD4680BD80B485B049
:103A800000AFF860B9601346FB80FB68BA689A62C1
:103A9000FB68FA889A85FB68FA88DA85FB68002259
:103AA0005A64FB68222283F84220FB681B69002BC2
:103AB00007D0FB681B68DA68FB681B6842F48072F9
:103AC000DA60FB681B685A69FB681B6842F00102F8
:103AD0005A61FB681B68DA68FB681B6842F02002C9
:103AE000DA60002318461437BD4680BC704780B4A6
:103AF00095B000AF78607B681B680C337B637B6B91
:103B000053E8003F3B633B6B23F49073FB647B689B
:103B10001B680C33FA6C3A64FB63F96B3A6C41E84E
:103B20000023BB63BB6B002BE5D17B681B681433A0
:103B30003B623B6A53E8003FFB61FB6923F00103F2
:103B4000BB647B681B681433BA6CFA62BB62B96AE7
:103B5000FA6A41E800237B627B6A002BE5D17B682F
:103B60001B6B012B19D17B681B680C33FB60FB6856
:103B700053E8003FBB60BB6823F010037B647B68A5
:103B80001B680C337A6CBA617B617969BA6941E868
:103B900000233B613B69002BE5D17B68202283F841
:103BA00042207B6800221A6300BF5437BD4680BCA8
:103BB000704780B584B000AF78607B685B6AFB605B
:103BC000FB680022DA85FB680022DA84F868FFF7D8
:103BD000E8FE00BF1037BD4680BD80B485B000AFA1
:103BE00078607B6893F84130DBB2212B3ED17B6853
:103BF0009B68B3F5805F14D17B681B69002B10D1E3
:103C00007B681B6AFB60FB681B881A467B681B6825
:103C1000C2F308025A607B681B6A9A1C7B681A62AE
:103C200008E07B681B6A591C7A6811621A787B6805
:103C30001B685A607B68DB8C9BB2013B9BB27A6845
:103C40001946D184002B0FD17B681B68DA687B682A
:103C50001B6822F08002DA607B681B68DA687B6888
:103C60001B6842F04002DA60002300E0022318469D
:103C70001437BD4680BC704780B582B000AF786015
:103C80007B681B68DA687B681B6822F04002DA6098
:103C90007B68202283F841207868FFF779FE0023B3
:103CA00018460837BD4680BD80B58CB000AF78603F
:103CB0007B6893F84230DBB2222B40F0AE807B6809
:103CC0009B68B3F5805F17D17B681B69002B13D10C
:103CD0000023FB627B689B6ABB627B681B685B6836
:103CE0009BB2C3F308039AB2BB6A1A807B689B6AD3
:103CF0009A1C7B689A6226E07B689B6AFB620023C1
:103D0000BB627B689B68B3F5805F07D07B689B686C
:103D1000002B0AD17B681B69002B06D17B681B68CE
:103D20005B68DAB2FB6A1A7008E07B681B685B6844
:103D3000DBB203F07F03DAB2FB6A1A707B689B6A1E
:103D40005A1C7B689A627B68DB8D9BB2013B9BB2FD
:103D50007A681946D185002B5DD17B681B68DA68CB
:103D60007B681B6822F02002DA607B681B68DA68D7
:103D70007B681B6822F48072DA607B681B685A6972
:103D80007B681B6822F001025A617B68202283F85D
:103D900042207B6800225A637B681B6B012B35D164
:103DA0007B6800221A637B681B680C337B617B692C
:103DB00053E8003F3B613B6923F010037B627B6863
:103DC0001B680C337A6A3A62FB61F9693A6A41E826
:103DD0000023BB61BB69002BE5D17B681B681B68B6
:103DE00003F01003102B0AD10023FB607B681B68D3
:103DF0001B68FB607B681B685B68FB60FB687B681B
:103E00009B8D19467868FFF7D5FD02E07868FDF7CD
:103E100013F8002302E0002300E0022318463037A5
:103E2000BD4680BD80B584B000AF78607B681B68FC
:103E30001B6923F440517B68DA687B681B680A437E
:103E40001A617B689A687B681B691A437B685B69A7
:103E50001343BB607B681B68DB6823F4B05323F01B
:103E60000C037A681268B9680B43D3607B681B68DF
:103E70005B6923F440717B689A697B681B680A431D
:103E80005A617B681B682C4A934203D1FEF790FB72
:103E9000F86002E0FEF778FBF860FA6813469B00D2
:103EA00013449A001A447B685B689B00B2FBF3F3EF
:103EB000224AA2FB03235B091901FA6813469B00FF
:103EC00013449A001A447B685B689B00B2FBF3F2D0
:103ED0001A4BA3FB02035B09642000FB03F3D31A14
:103EE0001B013233154AA2FB03235B0903F0F003E5
:103EF0001944FA6813469B0013449A001A447B68DD
:103F00005B689B00B2FBF3F20C4BA3FB02035B0963
:103F1000642000FB03F3D31A1B013233074AA2FBD0
:103F200003235B0903F00F027B681B680A449A6055
:103F300000BF1037BD4680BD003801401F85EB51E2
:103F400080B584B000AF0346FB71FB790A2B02D029
:103F5000FB790D2B32D1224B1B781A46214B0021C5
:103F60009954022220491F4800F0D7FF0346002B36
:103F70000DD11E4B1E4A1F491A4800F055FF1C4B1D
:103F80001B681A4A12681146184600F0D3F902223B
:103F90001949144800F0C1FF0346002B0AD107F16C
:103FA0000C031A4615490F4800F03EFFFB681846FF
:103FB00000F0F6F90A4B00221A700DE0084B1B784E
:103FC0001E2B09D8064B1B785A1CD1B2044A11701B
:103FD0001946044AFB79535400BF1037BD4680BDD3
:103FE00018030020F80200201477000814000020B5
:103FF00010000020187700082077000824770008B8
:1040000080B483B000AF0346FB80094B1B681B687C
:1040100000225A6200BF064B1B681B685A6AFB8865
:104020009A42F8D300BF00BF0C37BD4680BC704732
:104030001C03002080B582B000AF7860054A7B6821
:104040001360044B1B681846FEF734FB00BF0837AB
:10405000BD4680BD1C03002080B586B000AF0023A4
:104060003B610023FB60002201213948FDF7A9FED6
:104070000220FFF7C5FF012201213548FDF7A1FE0F
:104080000A20FFF7BDFF002201213148FDF799FE0C
:10409000304B1B681B6800225A622E4B1B681B6842
:1040A0005B6ABB600BE02B4B1B681B685A6ABB68E2
:1040B000D31A4EF66022934201D9274B44E00221E5
:1040C0002348FDF767FE0346002BECD0214B1B680D
:1040D0001B685B6A3B610BE01E4B1B681B685A6ADE
:1040E0003B69D31A4EF66022934201D91A4B2BE05A
:1040F00002211748FDF74EFE0346012BECD0154B6D
:104100001B681B685B6AFB60FA683B699A4204D3D0
:10411000FA683B69D31A7B6105E0FA683B69D31AF8
:1041200003F580337B617869FCF718FE03460B4981
:104130001846FCF715F803464FF07C511846FCF77B
:104140000FF803467B607B6818461837BD4680BD74
:10415000000C01401C030020000080BF287E0C3DA5
:1041600080B500AF104B1A88104B1B681B685A6350
:104170000D4B1A880D4B1B681B689A6300220121A6
:104180000B48FDF71EFE012202210948FDF719FE2A
:10419000012210210648FDF714FE002220210448C8
:1041A000FDF70FFE00BF80BD20000020200300208F
:1041B0000008014080B500AF104B1A88104B1B68F7
:1041C0001B685A630D4B1A880D4B1B681B689A635A
:1041D000012201210B48FDF7F4FD002202210948CC
:1041E000FDF7EFFD002210210648FDF7EAFD012250
:1041F00020210448FDF7E5FD00BF80BD2000002020
:10420000200300200008014080B500AF104B1A8841
:10421000104B1B681B685A630D4B1A880D4B1B68AB
:104220001B689A63012201210B48FDF7CAFD002299
:1042300002210948FDF7C5FD012210210648FDF7BE
:10424000C0FD002220210448FDF7BBFD00BF80BD5A
:1042500020000020200300200008014080B500AFAE
:10426000104B1A88104B1B681B685A630D4B1A8839
:104270000D4B1B681B689A63002201210B48FDF758
:10428000A0FD012202210948FDF79BFD002210211B
:104290000648FDF796FD012220210448FDF791FD17
:1042A00000BF80BD20000020200300200008014046
:1042B00080B500AF0F4B1B681B6800225A630D4B83
:1042C0001B681B6800229A63002201210A48FDF73F
:1042D00078FD002202210848FDF773FD002210211D
:1042E0000548FDF76EFD002220210348FDF769FD1A
:1042F00000BF80BD200300200008014080B582B0CF
:1043000000AF78600A4A7B681360094B1B68002184
:104310001846FEF771FA064B1B6804211846FEF793
:104320006BFAFFF7C5FF00BF0837BD4680BD00BF71
:104330002003002080B582B000AF78603960164A53
:104340007B681360154A3B681360144B1B68B3F518
:10435000167F02DDFFF704FF19E0104B1B68B3F571
:10436000C87F02DAFFF726FF11E00B4B1B68B3F59D
:10437000C87F02DAFFF772FF09E0074B1B68B3F54D
:10438000167F02DDFFF740FF01E0FFF791FF00BF5E
:104390000837BD4680BD00BF180000201C0000206B
:1043A00080B483B000AF78607B68B3F57A7F02DDBC
:1043B0004FF47A737B607B689AB2034B1A8000BF1C
:1043C0000C37BD4680BC704720000020002B2DE933
:1043D000F0471D46BBBF03F100431D4600232D23BC
:1043E00088B01446B8BF1446129A109E1370149BDE
:1043F000DDF84CA023F02008B8F1460F05D0B8F145
:10440000450F00D10136022300E0032307AA0492DE
:1044100006AACDE902A2CDE9003622462B4600F0DD
:104420009FFEB8F1470F074619D1119BDB070ED548
:1044300000EB06090022002320462946FCF768FB12
:1044400008B1CDF81C903022079B4B451ED338464F
:10445000079B159ADB1B136008B0BDE8F087B8F125
:10446000460F00EB0609E5D10378302B0AD1002274
:10447000002320462946FCF74BFB18B9C6F101067C
:10448000CAF80060DAF800309944D3E7591C079164
:104490001A70D9E7F7B50029B6BF2D232B2349425F
:1044A00009290270437029DD0DF107031D460A2713
:1044B000B1FBF7F61A4607FB1614303402F8014C2C
:1044C0000C46632C314603F1FF33F1DC3031941E8E
:1044D00003F8011C2346411CAB420AD30DF109032A
:1044E0009B1AAC4288BF002302330344181A03B05E
:1044F000F0BD13F8016B01F8016FEDE730233031A7
:104500008370C170031DF1E72DE9F04F91B00C46A7
:10451000DDF8688016461F46054600F011FD036869
:1045200018460893FBF714FE00230E93D8F80030CA
:104530000990073323F0070303F1080294F818A049
:10454000D4F800B0C8F80020D3E9008929F000436E
:104550000B93CDF828804FF0FF32DDE90A01C4E962
:1045600012899C4BFCF706FB70BBDDE90A014FF09A
:10457000FF32984BFCF7E0FA30BB002200234046A4
:104580004946FCF7CFFA10B12D2384F84330924A04
:10459000924BBAF1470F8CBF9046984603234FF0D9
:1045A000000923612BF0040323603346214628468B
:1045B00000970FAA00F0D4F9013040F090804FF03E
:1045C000FF3011B0BDE8F08F42464B4640464946A9
:1045D000FCF7D0FA48B14B46002BB8BF2D23804AD8
:1045E000B8BF84F843307F4BD3E763680AF0DF013C
:1045F0005A1C3FD10623636000224BF48063236082
:1046000006920EAACDE904A20DAA03920DF133027F
:10461000CDE9013263684246009328464B460A9131
:10462000FFF7D4FE0A99804647290D9928D1C81C66
:1046300002DB6368994240DDAAF1020A5FFA8AFA56
:104640005246013904F150000D91FFF723FF0E9AF5
:1046500081461318012A236102DC2268D20701D5A2
:10466000013323619DF83330002B9ED02D2384F835
:1046700043309AE74729BFD1002BBDD10123BAE7C8
:10468000BAF1650FDCD9BAF1660F18D10029636859
:104690000BDD216113B92268D00702D501330B4429
:1046A00023614FF00009A165DCE713B92268D20746
:1046B00001D50233F4E70123F2E74FF0670A0E9BBE
:1046C000994205DB23682161D807EAD54B1CE7E74F
:1046D0000029CCBF0122C1F102021344E0E72368A4
:1046E0005A0507D42369424631462846B847013067
:1046F0002BD164E7BAF1650F40F2DC80D4E91201F6
:1047000000220023FCF704FA002833D001233146AD
:104710002846354AB84701303FF451AFDDE90D383E
:10472000434502DB2368D8070FD5DDE9082331466E
:104730002846B84701303FF442AF4FF0000908F176
:10474000FF3804F11A0AC84509DC23689B0700F109
:104750000281E0680F9B9842B8BF184631E70123F9
:10476000524631462846B84701303FF428AF09F198
:104770000109E8E70D9B002B38DC01233146284670
:10478000194AB84701303FF41AAFDDE90D3959EA4B
:10479000030302D12368D907D7D5DDE908233146C1
:1047A0002846B84701303FF40AAF4FF0000A04F141
:1047B0001A0B0D9B5B42534501DC4B4693E70123EB
:1047C0005A4631462846B84701303FF4F8AE0AF160
:1047D000010AEEE7FFFFEF7F6677000862770008C7
:1047E0006E7700086A770008A1780008A36DDDF8ED
:1047F00038A05345A8BF5346002B994636DC4FF0EE
:10480000000B29EAE97904F11A02A36D0A93A3EBDC
:1048100009035B4531DC0D9B9A453ADC2368DA07D6
:1048200037D40D9BAAEB03090A9BAAEB0303994516
:10483000A8BF9946B9F1000F33DC4FF0000829EA10
:10484000E97904F11A0B0D9BAAEB0303A3EB09030F
:1048500043457FF77AAF01235A4631462846B84789
:1048600001303FF4ACAE08F10108ECE742463146B6
:104870002846B8470130C2D1A1E601233146284677
:104880000A92B84701303FF49AAE0A9A0BF1010B35
:10489000BBE73146DDE908232846B8470130C0D1DF
:1048A0008DE60A9A4B46314628464244B8470130C5
:1048B000C3D184E6DDF838A0BAF1010F01DCDB07D3
:1048C00036D50123424631462846B84701303FF4E9
:1048D00076AEDDE9082331462846B84701303FF47B
:1048E0006EAED4E91201002200230AF1FF3AFCF770
:1048F0000FF9C0B9534608F1010231462846B847BE
:1049000001300CD15BE601235A4631462846B847B0
:1049100001303FF454AE08F10108D045F3DB4B46BB
:1049200004F15002E0E64FF0000804F11A0BF4E73E
:1049300001234246E1E701234A4631462846B8476B
:1049400001303FF43CAE08F10108E3680F995B1AAF
:104950004345F0DCFDE64FF0000804F11909F4E7E7
:104960002DE9F047164698468A680B690746934238
:10497000B8BF1346336091F843200C46DDF8209011
:104980000AB1013333602368990642BF33680233AA
:104990003360256815F0060506D104F1190AE368AD
:1049A00032689B1AAB422BDC94F843302268003B00
:1049B00018BF0123920630D44146384604F1430221
:1049C000C847013023D02368226903F00603042B73
:1049D00014BF002533684FF0000608BFE56804F1F6
:1049E0001A0408BFED1A54F8123C08BF25EAE57511
:1049F0009342C4BF9B1AED18B5421AD1002008E0BB
:104A00000123524641463846C847013003D14FF092
:104A1000FF30BDE8F0870135C1E73020E11881F8AB
:104A200043005A1C94F845102244023382F8431084
:104A3000C2E70123224641463846C8470130E6D046
:104A40000136D9E72DE9FF470F7E9146782F804642
:104A50000C469A460C9E01F1430207D8622F0AD8F1
:104A6000002F00F0D180582F00F0B88004F14206EA
:104A700084F842703AE0A7F16303152BF6D801A140
:104A800051F823F0DD4A0008F14A00086D4A000899
:104A90006D4A00086D4A00086D4A0008F14A000896
:104AA0006D4A00086D4A00086D4A00086D4A00080A
:104AB000EF4B00081B4B0008A94B00086D4A00088B
:104AC0006D4A0008114C00086D4A00081B4B000895
:104AD0006D4A00086D4A0008B14B000833681A1D82
:104AE0001B68326004F1420684F8423001239CE0E6
:104AF00033682068191D3160060601D51D6803E082
:104B00004506FBD5B3F90050002D03DA2D236D4285
:104B100084F843300A23584811E0216833680806B6
:104B200053F8045B02D4490648BFADB26F2F33601F
:104B300014BF0A2308235048002184F843106668F4
:104B4000002EA66005DB21682E4321F004012160C0
:104B50004BD01646B5FBF3F103FB1157C75D06F8C2
:104B6000017D2F46BB420D46F4D9082B0BD123689B
:104B7000DF0708D5236961689942DEBF302306F854
:104B8000013C06F1FF36921B22614B46214640460E
:104B9000CDF800A003AAFFF7E3FE01304AD14FF0A1
:104BA000FF3004B0BDE8F087236843F020032360A2
:104BB0007827324884F84570236831681F0651F819
:104BC000045B02D45F0648BFADB23160D90744BF71
:104BD00043F0200323601DB11023ADE72648E9E729
:104BE000236823F020032360F6E71646BDE7336809
:104BF0002568181D616930602E061B6801D5196093
:104C000002E06806FBD51980002316462361BCE745
:104C1000336800211A1D32601E686268304600F059
:104C200006FA08B1801B606063682361002384F882
:104C30004330AAE73246494640462369D04701300F
:104C4000ADD023689B0713D4E068039B9842B8BF9C
:104C50001846A6E70123324649464046D047013070
:104C60009DD00135E36803995B1AAB42F2DCEBE7B8
:104C7000002504F11906F5E772770008837700082C
:104C8000002310B50446C0E90033C0E90433836053
:104C900081814366C2818361194608225C3000F03D
:104CA00034F90D4B246263620C4BA3620C4BE3623C
:104CB0000C4B23630C4B9C4206D003F168029442D8
:104CC00002D0D0339C4205D104F15800BDE8104019
:104CD00000F0AAB910BD00BF814E0008A74E000821
:104CE000DF4E0008034F000824030020024A034956
:104CF000034800F069B800BF24000020AD6F000831
:104D00003400002041680C4B10B59942044601D094
:104D100002F04CF9A168094B994202D0204602F0FA
:104D200045F9E168064B994204D02046BDE81040A1
:104D300002F03CB910BD00BF240300208C0300200A
:104D4000F403002010B50B4B0B4C0C4A20461A60A4
:104D500004210022FFF794FF04F1680001220921D9
:104D6000FFF78EFF04F1D0000222BDE810401221AF
:104D7000FFF786BF5C04002024030020ED4C0008F0
:104D8000014800F052B900BF65040020014800F05E
:104D90004DB900BF6504002010B50446FFF7F0FFD1
:104DA000236A1BB1BDE81040FFF7F0BF044B23623C
:104DB000044B1B68002BF5D1FFF7C4FFF2E700BFDF
:104DC000054D00085C0400202DE9F843074688469D
:104DD00014460026D4E90195B9F1010905D52468E6
:104DE000002CF7D13046BDE8F883AB89012B07D9F9
:104DF000B5F90E30013303D029463846C047064383
:104E00006835E9E70FB407B5064904AB086853F8FD
:104E1000042B8168019301F0E5FD03B05DF804EB1C
:104E200004B07047300000200EB44FF4017270B52A
:104E300000259DB021AC54F8046BADF814201B95EF
:104E400002900690FBF784F90B4B03900B934FF6FF
:104E5000FF7307900948ADF816303246234602A981
:104E600000680F951495019401F020FC1DB0BDE879
:104E7000704003B0704700BFA34E00083000002010
:104E800010B50C46B1F90E1000F080F80028ABBF49
:104E9000636DA3891B1823F48053ACBF6365A381A2
:104EA00010BD002070472DE9F0411F468B89054653
:104EB000DB050C46164605D502230022B1F90E107B
:104EC00000F052F8A389324623F48053A381284688
:104ED0003B46B4F90E10BDE8F04100F069B810B5DA
:104EE0000C46B1F90E1000F03FF8431CA38915BF22
:104EF000606523F4805343F48053A38118BFA381DA
:104F000010BDB1F90E1000F01FB8034602449342E1
:104F100000D1704703F8011BF9E710B56AB10139F8
:104F2000841810F8012B11F8013F9A4203D1A042D6
:104F300001D0002AF5D1D01A10BD1046FCE70000C0
:104F4000004870477001002038B50023054D044625
:104F500008462B60FCF7E5FA431C02D12B6803B12D
:104F6000236038BD6004002038B504460846114669
:104F70000022054D2A601A46FCF7F7FA431C02D1BD
:104F80002B6803B1236038BD6004002038B50446A7
:104F9000084611460022054D2A601A46FCF7A4FA7D
:104FA000431C02D12B6803B1236038BD600400208C
:104FB00038B50446084611460022054D2A601A46B7
:104FC000FBF724FF431C02D12B6803B1236038BDDB
:104FD00060040020014B1868704700BF30000020BB
:104FE00070B500260C4D0D4C641BA410A64209D1CF
:104FF00002F07EFB00260A4D0A4C641BA410A64258
:1050000005D170BD55F8043B98470136EEE755F8D9
:10501000043B98470136F2E7F47A0008F47A000876
:10502000F47A0008F87A0008704770477047034622
:1050300010B5C9B202449342184601D1002003E0E2
:10504000047801338C42F6D110BD2DE9F74F036986
:105050000C690746A3427EDB013CA30000F1140566
:1050600001F11408009305EB8403019358F82430F0
:1050700055F8242001339A42B2FBF3F608EB840979
:105080002ED34FF0000AC446AE46D3465CF8043B2C
:1050900098B206FB00A01B0C020C06FB0323DEF8F3
:1050A000002080B292B2121A5A44DEF800004FEA91
:1050B000134A9BB2C3EB224303EB104392B242EA82
:1050C0000342E1454FEA234B4EF8042BDED2009B0E
:1050D000EB582BB9019B043B9D421A462FD33C61F0
:1050E000384601F081F9002825DB2946002058F8D0
:1050F000042BD1F800C01FFA82FE1FFA8CF3A3EB39
:105100000E030344120CC2EB234202EB1C429BB27F
:1051100043EA0243C1454FEA224041F8043BE6D24C
:1051200055F8242005EB840322B9043B9D421A461E
:105130000BD33C610136304603B0BDE8F08F1268F6
:10514000043B002ACBD1013CC6E71268043B002A8D
:10515000EFD1013CEAE70020EEE70000000000008C
:105160002DE9F04F14461D46C76997B08146CDE939
:105170000645239E7FB9102000F00EFE0246C9F8B6
:105180001C0020B9EF21AC4BAC4802F05BF8C0E941
:1051900001770760C760D9F81C30196859B15A689F
:1051A000012393404A608B60484600F0EBFE0022EA
:1051B000D9F81C301A602B1EAFBF0023012223F048
:1051C00000430793A8BF3360DDF81C809C4BB8BF39
:1051D000326033EA080312D142F20F73229A13604D
:1051E000C8F31303234300F05E85249BDFF854A229
:1051F000002B00F060850AF1030300F05ABDDDE9E1
:105200000623CDE90C23DDE90C0100220023FBF786
:105210007FFC074658B10123229A1360249B13B1E7
:10522000894B249A1360DFF824A200F044BD14AB2C
:10523000019315AB00934846DDE90C2301F084F996
:10524000C8F30A560390002E78D0DDE90C010D9BBF
:10525000A6F2FF36C3F3130343F07F5343F4401326
:105260001297194600227A4BFBF732F86CA3D3E968
:105270000023FBF7E5F96CA3D3E90023FBF72AF839
:10528000044630460D46FBF771F969A3D3E90023C4
:10529000FBF7D6F902460B4620462946FBF71AF8DB
:1052A00004460D46FBF77CFC0022074600232046FF
:1052B0002946FBF737FC40B13846FBF757F9224641
:1052C0002B46FBF725FC00B9013F162F54D8DDE92A
:1052D0000C01604B03EBC703D3E90023FBF722FC6F
:1052E00000284BD00023013F0F93149B9B1B5A1E99
:1052F00049BFC3F10103002304930023099254BF63
:1053000004930993002F3BDB099B0E973B440993C1
:1053100000230A93209B092B65D8052BC4BF043BAF
:105320002093209BC8BF0024A3F10203D8BF01240F
:10533000032B64D8DFE803F05355382CDDE9146300
:105340001E4406F23243202BC1BFC3F1400308FACA
:1053500003F806F2124324FA03F3D6BFC3F1200385
:1053600048EA030004FA03F0FBF7F0F80122A1F188
:10537000F873013E129274E70123B5E70F90B4E78A
:10538000049BDB1B04937B420A9300230E93C1E72B
:1053900001230B93219B07EB030B0BF10103012B63
:1053A0000893B8BF012306E001230B93219B002B38
:1053B00028DD9B46089300210422D9F81C0002F145
:1053C00014059D4226D94160484600F09BFD824667
:1053D000002843D1024640F2AF111F4BD4E6002310
:1053E000E3E70023D5E7012400230B9420934FF03B
:1053F000FF3B00221223CDF820B02192DBE70123EE
:105400000B93F4E74FF0010B5B46CDF820B0CDF8DD
:1054100084B0D0E701315200D1E700BFAFF3008084
:1054200061436F63A787D23FB3C8608B288AC63FAA
:10543000FB799F501344D33FA1770008B877000849
:105440000000F07F9D770008A2780008A17800088E
:105450000000F83F2079000810780008D9F81C30C7
:105460001860089B0E2B00F2A180002C00F09E809B
:10547000002F33DD9C4B07F00F0203EBC203F8054E
:10548000D3E90034CDE910344FEA271416D5DDE90D
:105490000C01964B0326D3E90823FBF7FBF9CDE972
:1054A000060104F00F04914D54B9DDE91023DDE944
:1054B0000601FBF7EFF9CDE9060128E00226F2E745
:1054C000E10708D5DDE91001D5E90023FBF7B8F8BD
:1054D000CDE91001013664100835E5E700F0AF8032
:1054E000DDE90C017C42804B04F00F0203EBC203A8
:1054F000D3E90023FBF7A4F802260023CDE9060137
:105500007A4D2411002C40F08F80002BD3D1DDE99F
:1055100006450F9B002B00F0948000222046294670
:10552000734BFBF7FFFA002800F08B80089B002BE1
:1055300000F08780BBF1000F34DD204600222946B1
:105540006C4BFBF77DF85C46CDE9060107F1FF38AF
:1055500001363046FBF70AF8DDE90623FBF770F861
:105560000022654BFAF7B6FE0546A1F15076002CF5
:105570006AD1DDE906010022604BFAF7A9FE024676
:105580000B46CDE906232A463346FBF7E9FA002805
:1055900040F09882DDE906012A4606F10043FBF758
:1055A000C1FA38BBDDE90C34CDE90634159B002B7C
:1055B000C0F257810E2F00F354814B4B03EBC7030E
:1055C000D3E90034CDE90434219B002B80F2E5803F
:1055D000089B002B00F3E1800CD1DDE904010022DF
:1055E000464BFBF72DF8DDE90623FBF7AFFA002861
:1055F00000F0668200242546219B56466FEA030888
:1056000000272146484600F0BDFC002D00F0BD807B
:105610002FB1AF4203D03946484600F0B3FC2946CB
:10562000484600F0AFFCB0E0E20705D5D5E900231D
:10563000FBF706F8012301366410083562E70226FD
:1056400065E7B846089C84E7274B0B9903EBC40336
:1056500053E902235444002954D000202849FBF781
:1056600019F933462A46FAF733FE5646CDE91001BA
:10567000DDE90601FBF794FA0546FAF777FF0246E3
:105680000B46DDE90601FAF723FE02460B463035EC
:10569000CDE90623DDE9102306F8015BFBF742FAAA
:1056A000002872D1DDE9062300201149FAF710FE27
:1056B000DDE91023FBF736FA002840F0B480A6425B
:1056C0003FF470AFDDE9100100220A4BFAF7B8FF92
:1056D0000022CDE91001DDE90601064BFAF7B0FF23
:1056E000CDE90601C4E700BF20790008F87800087A
:1056F0000000F03F0000244000001C400000144067
:105700000000E03F31462846FAF79AFF5646CDE9B9
:1057100010011394DDE90601FBF742FA0546FAF79A
:1057200025FF02460B46DDE90601FAF7D1FD0246E8
:105730000B46303506F8015BA642CDE906234FF053
:10574000000224D1DDE91001AE4BFAF7C3FD024699
:105750000B46DDE90601FBF703FA002863D1DDE91A
:1057600010230020A749FAF7B3FD02460B46DDE9F6
:105770000601FBF7D7F900283FF414AF139E731E00
:10578000139316F8013C302BF8D047463BE09E4B74
:10579000FAF756FFCDE90601BCE75646DDE90645B6
:1057A000DDE9042320462946FBF774F8FBF7F8F9F6
:1057B0008046FAF7DBFEDDE90423FAF741FF0246F3
:1057C0000B4620462946FAF783FD08F13004089D70
:1057D00006F8014BA6EB0A04A54202460B4633D15C
:1057E000FAF778FDDDE9042304460D46FBF7B8F926
:1057F000C0B9DDE9042320462946FBF789F910B139
:1058000018F0010F0ED14846039900F0BBFB0023AE
:105810003370229B01371F60249B002B00F04B82CA
:105820001E6048E2B84633461E4613F8012D392A59
:1058300006D19A45F8D1302208F101088AF80020F3
:105840001A7801321A70A0E700226F4BFAF7F8FEBF
:105850000022002304460D46FBF75AF900289FD08A
:10586000D1E70B9A002A00F0EA80209A012A00F37F
:10587000CD80129A002A00F0C18003F233430A9CC3
:10588000049E049A01211A440492099A48461A4433
:10589000099200F02BFC054666B1099B002B09DD3F
:1058A000B342A8BF3346049AF61AD21A0492099A50
:1058B000D31A09930A9B0BB30B9B002B00F0C680F5
:1058C000002C00F0C08029462246484600F0C6FC65
:1058D000039A01460546484600F01EFC039980469F
:1058E000484600F04FFB0A9B1B1B0A9300F0B18057
:1058F00041460A9A484600F0B1FC0390012148460F
:1059000000F0F4FB0E9B0446002B00F0D8811A46F1
:105910000146484600F0A2FC209B0446012B00F300
:105920009F80069B002B40F09780079BC3F31303D7
:10593000002B40F09380079B23F000431B0D1B05B9
:1059400033B1049B01330493099B01330993012371
:105950000A930E9B002B00F0B881236904EB8303AC
:10596000186900F077FBC0F12000099B184410F083
:105970001F0000F08280C0F12003042B73DD049B24
:10598000C0F11C0003440493099B0644034409939B
:10599000049B002B05DD1A464846039900F0B8FC2D
:1059A0000390099B002B05DD21461A46484600F06E
:1059B000AFFC04460F9B002B61D02146039800F0FA
:1059C00013FD00285BDA00230A224846039900F001
:1059D000FBFA0B9B07F1FF380390002B00F0778157
:1059E000294600230A22484600F0EEFABBF1000FD8
:1059F00005466FDC209B022B49DC6BE0149BC3F156
:105A000036033CE70000E03F00002440089B5C1E9A
:105A10000A9BA34209DB1C1B089B002BBFF630AF7F
:105A2000049B089A9E1A00232BE70A9B0E9AE31AFE
:105A30001A440A94049E0024089B0E9221E70A9CB3
:105A4000049E0B9D28E7DDF80C8051E70A9A039924
:105A500050E7CDF80C8051E7002379E7069B77E704
:105A600000230A9379E793D0049A1C331A440492D2
:105A7000099A1E441A4409928AE70346F4E7089BF0
:105A8000B846002B20DC9B46209B022B1EDDBBF181
:105A9000000F7FF4B1AD21465B460522484600F079
:105AA00093FA01460446039800F09EFC00287FF715
:105AB000A3AD5646312308F1010806F8013B9FE5E6
:105AC000B846089C2546F4E7DDF820B00B9B002B78
:105AD00000F00181002E05DD29463246484600F0DF
