:020000040800F2
:100000000050002049190008851700088D170008C6
:10001000951700089D170008A517000800000000AC
:10002000000000000000000000000000AD17000804
:10003000B917000800000000C5170008D117000814
:1000400091190008911900089119000891190008E8
:1000500091190008911900089119000891190008D8
:1000600091190008911900089119000891190008C8
:1000700091190008911900089119000891190008B8
:1000800091190008911900089119000891190008A8
:100090009119000891190008911900089119000898
:1000A0009119000891190008911900089119000888
:1000B0009119000891190008911900089119000878
:1000C0009119000891190008911900089119000868
:1000D0009119000891190008DD170008911900080E
:1000E00091190008911900089119000800000000FA
:1000F0000000000000000000000000000000000000
:0C01000000000000000000005FF808F1A3
:1001100010B5054C237833B9044B13B10448AFF341
:1001200000800123237010BDEC01002000000000BE
:10013000108E000808B5034B1BB103490348AFF309
:10014000008008BD00000000F0010020108E0008B3
:10015000034613F8012B002AFBD1181A0138704707
:1001600081F0004102E000BF83F0004330B54FEA68
:1001700041044FEA430594EA050F08BF90EA020FD5
:100180001FBF54EA000C55EA020C7FEA645C7FEA68
:10019000655C00F0E2804FEA5454D4EB5555B8BF8B
:1001A0006D420CDD2C4480EA020281EA030382EAFC
:1001B000000083EA010180EA020281EA0303362D8E
:1001C00088BF30BD11F0004F4FEA01314FF4801C61
:1001D0004CEA113102D0404261EB410113F0004F73
:1001E0004FEA03334CEA133302D0524263EB43032A
:1001F00094EA050F00F0A780A4F10104D5F1200EC8
:100200000DDB02FA0EFC22FA05F2801841F1000122
:1002100003FA0EF2801843FA05F359410EE0A5F1F6
:1002200020050EF1200E012A03FA0EFC28BF4CF027
:10023000020C43FA05F3C01851EBE37101F00045DD
:1002400007D54FF0000EDCF1000C7EEB00006EEBEA
:100250000101B1F5801F1BD3B1F5001F0CD3490874
:100260005FEA30004FEA3C0C04F101044FEA4452CB
:1002700012F5800F80F09A80BCF1004F08BF5FEA52
:10028000500C50F1000041EB045141EA050130BD32
:100290005FEA4C0C404141EB0101013C28BFB1F544
:1002A000801FE9D291F0000F04BF01460020B1FA8F
:1002B00081F308BF2033A3F10B03B3F120020CDA62
:1002C0000C3208DD02F1140CC2F10C0201FA0CF040
:1002D00021FA02F10CE002F11402D8BFC2F1200CA5
:1002E00001FA02F120FA0CFCDCBF41EA0C0190405B
:1002F000E41AA2BF01EB0451294330BD6FEA0404A4
:100300001F3C1CDA0C340EDC04F11404C4F120028E
:1003100020FA04F001FA02F340EA030021FA04F3A0
:1003200045EA030130BDC4F10C04C4F1200220FAF7
:1003300002F001FA04F340EA0300294630BD21FA35
:1003400004F0294630BD94F0000F83F4801306BFFB
:1003500081F480110134013D4EE77FEA645C18BFEF
:100360007FEA655C29D094EA050F08BF90EA020F86
:1003700005D054EA000C04BF1946104630BD91EA7E
:10038000030F1EBF0021002030BD5FEA545C05D181
:100390004000494128BF41F0004130BD14F58004C0
:1003A0003CBF01F5801130BD01F0004545F0FE4134
:1003B00041F470014FF0000030BD7FEA645C1ABF69
:1003C000194610467FEA655C1CBF0B46024650EAA0
:1003D000013406BF52EA033591EA030F41F40021CC
:1003E00030BD00BF90F0000F04BF0021704730B552
:1003F0004FF4806404F132044FF000054FF0000127
:1004000050E700BF90F0000F04BF0021704730B5E7
:100410004FF4806404F1320410F0004548BF4042BC
:100420004FF000013EE700BF42004FEAE2014FEA11
:1004300031014FEA02701FBF12F07F4393F07F4FEC
:1004400081F06051704732F07F4208BF704793F0EF
:100450007F4F04BF41F40021704730B54FF4607402
:1004600001F0004521F000411CE700BF50EA010205
:1004700008BF704730B54FF000050AE050EA0102AE
:1004800008BF704730B511F0004502D5404261EB1E
:1004900041014FF4806404F132045FEA915C3FF45F
:1004A000D8AE4FF003025FEADC0C18BF03325FEAFC
:1004B000DC0C18BF033202EBDC02C2F1200300FAAD
:1004C00003FC20FA02F001FA03FE40EA0E0021FAD2
:1004D00002F11444BDE600BF70B54FF0FF0C4CF4C0
:1004E000E06C1CEA11541DBF1CEA135594EA0C0F72
:1004F00095EA0C0F00F0DEF82C4481EA030621EAAD
:100500004C5123EA4C5350EA013518BF52EA0335E7
:1005100041F4801143F4801338D0A0FB02CE4FF099
:100520000005E1FB02E506F00042E0FB03E54FF0C9
:100530000006E1FB03569CF0000F18BF4EF0010EC1
:10054000A4F1FF04B6F5007F64F5407404D25FEABD
:100550004E0E6D4146EB060642EAC62141EA555170
:100560004FEAC52040EA5E504FEACE2EB4F1FD0CB2
:1005700088BFBCF5E06F1ED8BEF1004F08BF5FEA30
:10058000500E50F1000041EB045170BD06F00046E2
:1005900046EA010140EA020081EA0301B4EB5C048F
:1005A000C2BFD4EB0C0541EA045170BD41F4801187
:1005B0004FF0000E013C00F3AB8014F1360FDEBFAC
:1005C000002001F0004170BDC4F10004203C35DA88
:1005D0000C341BDC04F11404C4F1200500FA05F30B
:1005E00020FA04F001FA05F240EA020001F00042AC
:1005F00021F0004110EBD37021FA04F642EB060122
:100600005EEA430E08BF20EAD37070BDC4F10C044B
:10061000C4F1200500FA04F320FA05F001FA04F20F
:1006200040EA020001F0004110EBD37041F10001FB
:100630005EEA430E08BF20EAD37070BDC4F1200506
:1006400000FA05F24EEA020E20FA04F301FA05F26E
:1006500043EA020321FA04F001F0004121FA04F216
:1006600020EA020000EBD3705EEA430E08BF20EAE6
:10067000D37070BD94F0000F0FD101F00046400020
:1006800041EB010111F4801F08BF013CF7D041EAA2
:10069000060195F0000F18BF704703F000465200A6
:1006A00043EB030313F4801F08BF013DF7D043EA77
:1006B0000603704794EA0C0F0CEA135518BF95EA2D
:1006C0000C0F0CD050EA410618BF52EA4306D1D1B4
:1006D00081EA030101F000414FF0000070BD50EAD3
:1006E000410606BF1046194652EA430619D094EA5D
:1006F0000C0F02D150EA013613D195EA0C0F05D147
:1007000052EA03361CBF104619460AD181EA03019A
:1007100001F0004141F0FE4141F470014FF0000052
:1007200070BD41F0FE4141F4780170BD70B54FF0ED
:10073000FF0C4CF4E06C1CEA11541DBF1CEA13556D
:1007400094EA0C0F95EA0C0F00F0A7F8A4EB05044F
:1007500081EA030E52EA03354FEA013100F0888046
:100760004FEA03334FF0805545EA131343EA12630F
:100770004FEA022245EA111545EA10654FEA0026C4
:100780000EF000419D4208BF964244F1FD0404F57D
:10079000407402D25B084FEA3202B61A65EB0305D9
:1007A0005B084FEA32024FF480104FF4002CB6EB96
:1007B000020E75EB030E22BFB61A754640EA0C0016
:1007C0005B084FEA3202B6EB020E75EB030E22BF56
:1007D000B61A754640EA5C005B084FEA3202B6EB97
:1007E000020E75EB030E22BFB61A754640EA9C0056
:1007F0005B084FEA3202B6EB020E75EB030E22BF26
:10080000B61A754640EADC0055EA060E18D04FEAE3
:10081000051545EA16754FEA06164FEAC30343EA83
:1008200052734FEAC2025FEA1C1CC0D111F4801F50
:100830000BD141EA00014FF000004FF0004CB6E749
:1008400011F4801F04BF01430020B4F1FD0C88BFE8
:10085000BCF5E06F3FF6AFAEB5EB030C04BFB6EBF3
:10086000020C5FEA500C50F1000041EB045170BDE6
:100870000EF0004E4EEA113114EB5C04C2BFD4EB13
:100880000C0541EA045170BD41F480114FF0000E97
:10089000013C90E645EA060E8DE60CEA135594EA13
:1008A0000C0F08BF95EA0C0F3FF43BAF94EA0C0F16
:1008B0000AD150EA01347FF434AF95EA0C0F7FF48B
:1008C00025AF104619462CE795EA0C0F06D152EADF
:1008D00003353FF4FDAE1046194622E750EA4106C3
:1008E00018BF52EA43067FF4C5AE50EA41047FF4D4
:1008F0000DAF52EA43057FF4EBAE12E74FF0FF3C39
:1009000006E000BF4FF0010C02E000BF4FF0010C09
:100910004DF804CD4FEA410C7FEA6C5C4FEA430C82
:1009200018BF7FEA6C5C1BD001B050EA410C0CBFD1
:1009300052EA430C91EA030F02BF90EA020F002033
:10094000704710F1000F91EA030F58BF994208BF9A
:1009500090422CBFD8176FEAE37040F00100704757
:100960004FEA410C7FEA6C5C02D150EA013C07D1AE
:100970004FEA430C7FEA6C5CD6D152EA033CD3D0F9
:100980005DF8040B704700BF8446104662468C46F3
:100990001946634600E000BF01B5FFF7B7FF002826
:1009A00048BF10F1000F01BD4DF808EDFFF7F4FF4F
:1009B0000CBF012000205DF808FB00BF4DF808EDDA
:1009C000FFF7EAFF34BF012000205DF808FB00BFFD
:1009D0004DF808EDFFF7E0FF94BF012000205DF81F
:1009E00008FB00BF4DF808EDFFF7CEFF94BF0120D4
:1009F00000205DF808FB00BF4DF808EDFFF7C4FFCD
:100A000034BF012000205DF808FB00BF4FEA410C15
:100A10007FEA6C5C02D150EA013C0AD14FEA430CF8
:100A20007FEA6C5C02D152EA033C02D14FF0000035
:100A300070474FF0010070474FEA410212F5001273
:100A400015D211D56FF47873B3EB625212D94FEA15
:100A5000C12343F0004343EA505311F0004F23FAFF
:100A600002F018BF404270474FF00000704750EA54
:100A7000013005D111F0004008BF6FF00040704711
:100A80004FF00000704700BF80F0004002E000BF60
:100A900081F0004142001FBF5FEA410392EA030F69
:100AA0007FEA226C7FEA236C6AD04FEA1262D2EBB3
:100AB0001363C1BFD218414048404140B8BF5B42B8
:100AC000192B88BF704710F0004F40F4000020F051
:100AD0007F4018BF404211F0004F41F4000121F067
:100AE0007F4118BF494292EA030F3FD0A2F10102B1
:100AF00041FA03FC10EB0C00C3F1200301FA03F1EF
:100B000000F0004302D5494260EB4000B0F5000F11
:100B100013D3B0F1807F06D340084FEA310102F1D0
:100B20000102FE2A51D2B1F1004F40EBC25008BF82
:100B300020F0010040EA03007047490040EB00004C
:100B4000013A28BFB0F5000FEDD2B0FA80FCACF14D
:100B5000080CB2EB0C0200FA0CF0AABF00EBC2507A
:100B600052421843BCBFD0401843704792F0000F68
:100B700081F4000106BF80F400000132013BB5E7BB
:100B80004FEA41037FEA226C18BF7FEA236C21D031
:100B900092EA030F04D092F0000F08BF0846704796
:100BA00090EA010F1CBF0020704712F07F4F04D164
:100BB000400028BF40F00040704712F100723CBF77
:100BC00000F50000704700F0004343F0FE4040F4A1
:100BD000000070477FEA226216BF08467FEA23635F
:100BE0000146420206BF5FEA412390EA010F40F44A
:100BF000800070474FF0000304E000BF10F0004396
:100C000048BF40425FEA000C08BF704743F096437C
:100C100001464FF000001CE050EA010208BF704797
:100C20004FF000030AE000BF50EA010208BF70471E
:100C300011F0004302D5404261EB41015FEA010C33
:100C400002BF84460146002043F0B64308BFA3F12B
:100C50008053A3F50003BCFA8CF2083AA3EBC2530D
:100C600010DB01FA02FC634400FA02FCC2F120022C
:100C7000BCF1004F20FA02F243EB020008BF20F063
:100C80000100704702F1200201FA02FCC2F12002C9
:100C900050EA4C0021FA02F243EB020008BF20EABE
:100CA000DC7070474FF0FF0C1CEAD0521EBF1CEAEC
:100CB000D15392EA0C0F93EA0C0F6FD01A4480EADA
:100CC000010C400218BF5FEA41211ED04FF00063C3
:100CD00043EA501043EA5111A0FB01310CF00040EF
:100CE000B1F5000F3EBF490041EAD3715B0040EA15
:100CF000010062F17F02FD2A1DD8B3F1004F40EBE5
:100D0000C25008BF20F00100704790F0000F0CF0B7
:100D1000004C08BF49024CEA502040EA51207F3A7B
:100D2000C2BFD2F1FF0340EAC250704740F4000056
:100D30004FF00003013A5DDC12F1190FDCBF00F047
:100D400000407047C2F10002410021FA02F1C2F1F5
:100D5000200200FA02FC5FEA310040F1000053EA91
:100D60004C0308BF20EADC70704792F0000F00F0DF
:100D7000004C02BF400010F4000F013AF9D040EAE5
:100D80000C0093F0000F01F0004C02BF490011F479
:100D9000000F013BF9D041EA0C018FE70CEAD15377
:100DA00092EA0C0F18BF93EA0C0F0AD030F0004CF7
:100DB00018BF31F0004CD8D180EA010000F00040AB
:100DC000704790F0000F17BF90F0004F084691F069
:100DD000000F91F0004F14D092EA0C0F01D14202A3
:100DE0000FD193EA0C0F03D14B0218BF084608D16C
:100DF00080EA010000F0004040F0FE4040F40000B6
:100E0000704740F0FE4040F4400070474FF0FF0C48
:100E10001CEAD0521EBF1CEAD15392EA0C0F93EA8F
:100E20000C0F69D0A2EB030280EA010C49024FEAE1
:100E3000402037D04FF0805343EA111143EA10139A
:100E40000CF000408B4238BF5B0042F17D024FF452
:100E5000000C8B4224BF5B1A40EA0C00B3EB510F2D
:100E600024BFA3EB510340EA5C00B3EB910F24BF16
:100E7000A3EB910340EA9C00B3EBD10F24BFA3EB9B
:100E8000D10340EADC001B0118BF5FEA1C1CE0D163
:100E9000FD2A3FF650AF8B4240EBC25008BF20F016
:100EA000010070470CF0004C4CEA50207F32C2BF6A
:100EB000D2F1FF0340EAC250704740F400004FF007
:100EC0000003013A37E792F0000F00F0004C02BF38
:100ED000400010F4000F013AF9D040EA0C0093F002
:100EE000000F01F0004C02BF490011F4000F013B5C
:100EF000F9D041EA0C0195E70CEAD15392EA0C0FC4
:100F000008D142027FF47DAF93EA0C0F7FF470AFFB
:100F1000084676E793EA0C0F04D14B023FF44CAF3E
:100F200008466EE730F0004C18BF31F0004CCAD1D3
:100F300030F000427FF45CAF31F000437FF43CAF0F
:100F40005FE700BF4FF0FF3C06E000BF4FF0010C31
:100F500002E000BF4FF0010C4DF804CD4FEA400213
:100F60004FEA41037FEA226C18BF7FEA236C11D05D
:100F700001B052EA530C18BF90EA010F58BFB2EB10
:100F8000030088BFC81738BF6FEAE17018BF40F090
:100F9000010070477FEA226C02D15FEA402C05D144
:100FA0007FEA236CE4D15FEA412CE1D05DF8040BC9
:100FB000704700BF844608466146FFE70FB5FFF75C
:100FC000C9FF002848BF10F1000F0FBD4DF808ED14
:100FD000FFF7F4FF0CBF012000205DF808FB00BF05
:100FE0004DF808EDFFF7EAFF34BF012000205DF85F
:100FF00008FB00BF4DF808EDFFF7E0FF94BF0120AC
:1010000000205DF808FB00BF4DF808EDFFF7D2FFA8
:1010100094BF012000205DF808FB00BF4DF808EDEB
:10102000FFF7C8FF34BF012000205DF808FB00BFB8
:1010300080B584B000AFF860B9607A607B689AB21E
:101040004FF0FF33B968044803F090FB7B68184603
:101050001037BD4680BD00BFEC02002080B582B0D5
:1010600000AF78607B681B68084A934209D1084B3F
:101070001B78184604F094F901220549054803F04D
:1010800000FC00BF0837BD4680BD00BF00440040E3
:1010900034030020EC020020B0B582B002AF00F0B3
:1010A00079FC00F06FF800F0D9F900F0ADF900F02C
:1010B00029F900F0DBF800F0ABF8264804F01CFB3F
:1010C000254804F0E7F9254804F07EFB04F018FCFD
:1010D00001222349234803F0D4FB00F0B3FC03466C
:1010E000214A136004F082FC0346204A13601E4B21
:1010F0001A681F4B1B68D31A322B08D904F0DCF98D
:1011000003461C4A1360184B1B68194A1360164BA0
:101110001A68194B1B68D21A184B1B689A42DCD903
:10112000144B1B681846FFF77FF904460D460F4B1A
:101130001B681846FFF778F902460B46CDE90023F5
:1011400022462B460E4805F0EFF9074B1B680A4A6A
:101150001360C2E7A40200205C0200200802002005
:1011600034030020EC020020400300203C03002058
:101170004803002038030020440300200000002022
:10118000288E000880B590B000AF07F11803282220
:101190000021184605F04BFA3B1D00221A605A60E8
:1011A0009A60DA601A610123BB614FF48033FB61FE
:1011B00000233B620123BB6202237B634FF4803335
:1011C000BB634FF4E013FB6307F11803184602F00A
:1011D00041F80346002B01D000F0AAF90F237B60F1
:1011E0000223BB600023FB604FF480633B6100235C
:1011F0007B613B1D0221184602F0AEFA0346002B2C
:1012000001D000F095F900BF4037BD4680BD000019
:1012100080B500AF124B134A1A60114B124A5A6044
:101220000F4B00229A600E4B0022DA600C4B4FF4F9
:1012300080421A610A4B00225A61094B00229A61CE
:10124000074B0022DA61064B00221A62044800F0C4
:101250009BFF0346002B01D000F06AF900BF80BD60
:101260000802002000540040801A060080B586B0B5
:1012700000AF07F1080300221A605A609A60DA6032
:101280003B4600221A605A601D4B4FF080421A60A4
:101290001B4B47225A601A4B00229A60184B4FF69C
:1012A000FF72DA60164B00221A61154B00229A6118
:1012B000134802F0DFFB0346002B01D000F038F9A1
:1012C0004FF48053BB6007F1080319460C4802F045
:1012D00027FE0346002B01D000F02AF900233B60D3
:1012E00000237B603B461946054803F091F903460D
:1012F000002B01D000F01CF900BF1837BD4680BD9F
:101300005C02002080B58EB000AF07F128030022F8
:101310001A605A609A60DA6007F1200300221A60AE
:101320005A603B1D00221A605A609A60DA601A61A6
:101330005A619A61324B334A1A60314B47225A60E4
:101340002F4B00229A602E4B4FF47A72DA602C4BAE
:1013500000221A612A4B00229A61294802F08AFB76
:101360000346002B01D000F0E3F84FF48053BB623A
:1013700007F128031946224802F0D2FD0346002B4C
:1013800001D000F0D5F81E4802F00EFC0346002BF9
:1013900001D000F0CDF800233B6200237B6207F10F
:1013A00020031946164803F033F90346002B01D0F9
:1013B00000F0BEF860237B600023BB600023FB606D
:1013C00000237B613B1D002219460D4802F0E6FC1C
:1013D0000346002B01D000F0ABF83B1D0422194658
:1013E000074802F0DBFC0346002B01D000F0A0F818
:1013F000034800F043F900BF3837BD4680BD00BF49
:10140000A40200200004004080B500AF114B124A36
:101410001A60104B4FF4E1325A600E4B00229A6072
:101420000C4B0022DA600B4B00221A61094B0C2294
:101430005A61084B00229A61064B0022DA61054886
:1014400003F044F90346002B01D000F071F800BF0F
:1014500080BD00BFEC0200200044004080B588B091
:1014600000AF07F1100300221A605A609A60DA6038
:101470002C4B9B692B4A43F020039361294B9B69BA
:1014800003F02003FB60FB68264B9B69254A43F071
:1014900004039361234B9B6903F00403BB60BB68A7
:1014A000204B9B691F4A43F0080393611D4B9B69C6
:1014B00003F008037B607B68002233211A4800F0A8
:1014C0004AFE00220121194800F045FE33233B610A
:1014D00001237B610023BB610223FB6107F1100341
:1014E0001946114800F09CFC01233B6101237B61FC
:1014F0000023BB610223FB6107F1100319460B486F
:1015000000F08EFC02233B6100237B610023BB6162
:1015100007F110031946054800F082FC00BF203790
:10152000BD4680BD0010024000080140000C014093
:1015300080B400AF72B600BF00BFFDE780B485B0D5
:1015400000AF154B9B69144A43F001039361124BA2
:101550009B6903F00103BB60BB680F4BDB690E4A5C
:1015600043F08053D3610C4BDB6903F080537B6005
:101570007B680A4B5B68FB60FB6823F0E063FB6001
:10158000FB6843F00073FB60044AFB68536000BFD4
:101590001437BD4680BC7047001002400000014077
:1015A00080B588B000AF786007F1100300221A60A0
:1015B0005A609A60DA607B681B68154A934223D1AF
:1015C000144B9B69134A43F008039361114B9B69C9
:1015D00003F00803FB60FB68C0233B6112237B61BF
:1015E0000323FB6107F1100319460B4800F018FCB8
:1015F000084BDB69074A43F40013D361054BDB69F1
:1016000003F40013BB60BB6800BF2037BD4680BD3C
:101610000054004000100240000C014080B485B02E
:1016200000AF78607B681B68B3F1804F0CD1114B21
:10163000DB69104A43F00103D3610E4BDB6903F011
:101640000103FB60FB6810E07B681B680A4A934259
:101650000BD1084BDB69074A43F00203D361054B0A
:10166000DB6903F00203BB60BB6800BF1437BD46F3
:1016700080BC7047001002400004004080B588B074
:1016800000AF786007F1100300221A605A609A6078
:10169000DA607B681B680F4A934217D10E4B9B6937
:1016A0000D4A43F0040393610B4B9B6903F0040361
:1016B000FB60FB68C0233B6102237B610223FB616B
:1016C00007F110031946054800F0AAFB00BF2037B8
:1016D000BD4680BD000400400010024000080140EB
:1016E00080B588B000AF786007F1100300221A605F
:1016F0005A609A60DA607B681B681F4A934237D150
:101700001E4BDB691D4A43F40033D3611B4BDB697D
:1017100003F40033FB60FB68184B9B69174A43F0E6
:1017200004039361154B9B6903F00403BB60BB6822
:1017300004233B6102237B610323FB6107F1100358
:1017400019460F4800F06CFB08233B6100237B61C6
:101750000023BB6107F110031946094800F060FB44
:1017600000220021262000F072FA262000F08BFAD9
:1017700000BF2037BD4680BD00440040001002403D
:101780000008014080B400AF00BFFDE780B400AFA7
:1017900000BFFDE780B400AF00BFFDE780B400AF3D
:1017A00000BFFDE780B400AF00BFFDE780B400AF2D
:1017B00000BFBD4680BC704780B400AF00BFBD46CF
:1017C00080BC704780B400AF00BFBD4680BC70478E
:1017D00080B500AF00F024F900BF80BD80B500AF38
:1017E000024803F073F800BF80BD00BFEC02002088
:1017F00080B400AF01231846BD4680BC704780B559
:1018000082B000AF7860396004F076FF034616229C
:101810001A604FF0FF3318460837BD4680BD80B5CB
:1018200082B000AF78604FF0FF317868FFF7E7FFD4
:1018300000BFFDE780B586B000AFF860B9607A60A0
:1018400000237B610AE0AFF300800146BB685A1CAD
:10185000BA60CAB21A707B6901337B617A697B68AE
:101860009A42F0DB7B6818461837BD4680BD80B4CD
:1018700083B000AF78604FF0FF3318460C37BD4699
:1018800080BC704780B483B000AF786039603B683B
:101890004FF400525A60002318460C37BD4680BCF6
:1018A000704780B483B000AF7860012318460C37CE
:1018B000BD4680BC704780B485B000AFF860B960A9
:1018C0007A60002318461437BD4680BC704700007C
:1018D00080B586B000AF7860144A154BD31A7B618F
:1018E0007B693B61134B1B68002B02D1114B124AE1
:1018F0001A60104B1A687B6813443A699A4207D2FF
:1019000004F0FAFE03460C221A604FF0FF3309E0A0
:10191000084B1B68FB60074B1A687B681344054A39
:101920001360FB6818461837BD4680BD0050002084
:10193000000400004C030020F004002080B400AF3D
:1019400000BFBD4680BC7047FFF7F8FF0B480C494D
:101950000C4A002302E0D458C4500433C4188C420B
:10196000F9D3094A094C002301E013600432A24272
:10197000FBD304F0C7FEFFF78FFB70470000002089
:10198000EC01002024920008EC010020F00400206B
:10199000FEE7000080B500AF084B1B68074A43F024
:1019A00010031360032000F047F90F2000F008F83F
:1019B000FFF7C4FD0023184680BD00BF0020024091
:1019C00080B582B000AF7860124B1A68124B1B785A
:1019D00019464FF47A73B3FBF1F3B2FBF3F31846F5
:1019E00000F05FF90346002B01D001230EE07B6875
:1019F0000F2B0AD8002279684FF0FF3000F027F94A
:101A0000064A7B681360002300E00123184608376C
:101A1000BD4680BD040000200C000020080000200E
:101A200080B400AF054B1B781A46054B1B68134466
:101A3000034A136000BFBD4680BC70470C00002005
:101A40005003002080B400AF024B1B681846BD460F
:101A500080BC70475003002080B584B000AF786030
:101A6000FFF7F0FFB8607B68FB60FB68B3F1FF3FF6
:101A700005D00A4B1B781A46FB681344FB6000BF75
:101A8000FFF7E0FF0246BB68D31AFA689A42F7D81C
:101A900000BF00BF1037BD4680BD00BF0C00002056
:101AA00080B485B000AF78607B6803F00703FB600B
:101AB0000C4BDB68BB60BA684FF6FF031340BB609A
:101AC000FB681A02BB68134343F0BF6343F400335F
:101AD000BB60044ABB68D36000BF1437BD4680BCFE
:101AE000704700BF00ED00E080B400AF044BDB683E
:101AF0001B0A03F007031846BD4680BC704700BFB1
:101B000000ED00E080B483B000AF0346FB7197F9AD
:101B10000730002B0BDBFB7903F01F02064997F916
:101B200007305B09012000FA02F241F8232000BFD0
:101B30000C37BD4680BC704700E100E080B483B044
:101B400000AF03463960FB7197F90730002B0ADBC1
:101B50003B68DAB20C4997F907301201D2B20B4454
:101B600083F800230AE03B68DAB20849FB7903F006
:101B70000F03043B1201D2B20B441A7600BF0C379C
:101B8000BD4680BC704700BF00E100E000ED00E012
:101B900080B489B000AFF860B9607A60FB6803F088
:101BA0000703FB61FB69C3F10703042B28BF042370
:101BB000BB61FB690433062B02D9FB69033B00E0E0
:101BC00000237B614FF0FF32BB6902FA03F3DA4373
:101BD000BB681A407B699A404FF0FF317B6901FA7C
:101BE00003F3D9437B680B40134318462437BD46A3
:101BF00080BC704780B582B000AF78607B68013BE5
:101C0000B3F1807F01D301230FE00A4A7B68013BD7
:101C100053600F214FF0FF30FFF790FF054B00227C
:101C20009A60044B07221A60002318460837BD4605
:101C300080BD00BF10E000E080B582B000AF7860EA
:101C40007868FFF72DFF00BF0837BD4680BD80B51F
:101C500086B000AF0346B9607A60FB7300237B61F6
:101C6000FFF742FF78617A68B9687869FFF790FFFB
:101C7000024697F90F3011461846FFF75FFF00BF85
:101C80001837BD4680BD80B582B000AF0346FB71FA
:101C900097F907301846FFF735FF00BF0837BD46F4
:101CA00080BD80B582B000AF78607868FFF7A2FF92
:101CB000034618460837BD4680BD80B485B000AFE6
:101CC00078600023FB737B6893F82130DBB2022B32
:101CD00008D07B6804229A637B68002283F8202066
:101CE000012320E07B681B681A687B681B6822F070
:101CF0000E021A607B681B681A687B681B6822F0FA
:101D000001021A607B681A6C7B68DB6B012101FAA7
:101D100002F25A607B68012283F821207B6800224E
:101D200083F82020FB7B18461437BD4680BC7047E3
:101D300080B584B000AF78600023FB737B6893F8B4
:101D40002130DBB2022B05D07B6804229A63012389
:101D5000FB7351E07B681B681A687B681B6822F084
:101D60000E021A607B681B681A687B681B6822F089
:101D700001021A607B681B68224A934229D07B6863
:101D80001B68214A934222D07B681B681F4A9342FA
:101D90001AD07B681B681E4A934212D07B681B686E
:101DA0001C4A93420AD07B681B681B4A934202D1AB
:101DB0004FF480130EE04FF080730BE04FF480334C
:101DC00008E04FF4805305E04FF4807302E01023E5
:101DD00000E00123114A53607B68012283F821202F
:101DE0007B68002283F820207B685B6B002B03D08C
:101DF0007B685B6B78689847FB7B18461037BD465D
:101E000080BD00BF080002401C00024030000240BC
:101E100044000240580002406C00024000000240B2
:101E200080B48BB000AF7860396000237B62002300
:101E30003B6269E101227B6A02FA03F3FB613B68C2
:101E40001B68FA691340BB61BA69FB699A4240F0AA
:101E500058813B685B689A4A93425ED0984A9342A5
:101E600075D8984A934258D0964A93426FD8964A6A
:101E7000934252D0944A934269D8944A93424CD0A8
:101E8000924A934263D8924A934246D0904A9342F0
:101E90005DD8122B2AD8122B59D801A252F823F060
:101EA0001B1F0008F51E0008071F0008491F000837
:101EB0004F1F00084F1F00084F1F00084F1F00084A
:101EC0004F1F00084F1F00084F1F00084F1F00083A
:101ED0004F1F00084F1F00084F1F00084F1F00082A
:101EE0004F1F0008FD1E0008111F0008794A934289
:101EF00013D02CE03B68DB683B6229E03B68DB6881
:101F000004333B6224E03B68DB6808333B621FE03C
:101F10003B68DB680C333B621AE03B689B68002B34
:101F200002D104233B6213E03B689B68012B05D17F
:101F300008233B627B68FA691A6109E008233B6267
:101F40007B68FA695A6103E000233B6200E000BF4E
:101F5000BB69FF2B01D87B6801E07B6804337B61A0
:101F6000BB69FF2B02D87B6A9B0002E07B6A083BBF
:101F70009B003B617B691A680F213B6901FA03F3FF
:101F8000DB431A40396A3B6901FA03F31A437B6960
:101F90001A603B685B6803F08053002B00F0B1804F
:101FA0004D4B9B694C4A43F0010393614A4B9B693B
:101FB00003F00103BB60BB68484A7B6A9B0802339D
:101FC00052F82330FB607B6A03F003039B000F226F
:101FD00002FA03F3DB43FA681340FB607B68404A74
:101FE000934213D07B683F4A93420DD07B683E4AB0
:101FF000934207D07B683D4A934201D1032306E018
:10200000042304E0022302E0012300E000237A6AB3
:1020100002F0030292009340FA681343FB602F49D9
:102020007B6A9B080233FA6841F823203B685B68AF
:1020300003F48013002B06D02D4B9A682C49BB6902
:1020400013438B6006E02A4B9A68BB69DB4328493F
:1020500013408B603B685B6803F40013002B06D0D1
:10206000234BDA682249BB691343CB6006E0204B5F
:10207000DA68BB69DB431E491340CB603B685B6891
:1020800003F40033002B06D0194B5A681849BB697A
:1020900013434B6006E0164B5A68BB69DB43144997
:1020A00013404B603B685B6803F48033002B21D006
:1020B0000F4B1A680E49BB6913430B6021E000BF48
:1020C000000032100000311000002210000021102A
:1020D000000012100000111000100240000001402A
:1020E00000080140000C01400010014000140140B4
:1020F000000401400B4B1A68BB69DB4309491340DC
:102100000B607B6A01337B623B681A687B6A22FA48
:1021100003F3002B7FF48EAE00BF00BF2C37BD460B
:1021200080BC70470004014080B485B000AF786087
:102130000B467B807B689A687B881340002B02D01B
:102140000123FB7301E00023FB73FB7B184614376C
:10215000BD4680BC704780B483B000AF78600B464A
:102160007B8013467B707B78002B03D07A887B685A
:102170001A6103E07B881A047B681A6100BF0C3780
:10218000BD4680BC7047000080B584B000AF786069
:102190007B68002B01D101232BE17B6893F83D3054
:1021A000DBB2002B06D17B68002283F83C207868E4
:1021B000FFF7F6F97B68242283F83D207B681B68D3
:1021C0001A687B681B6822F001021A607B681B6832
:1021D0001A687B681B6842F400421A607B681B68BF
:1021E0001A687B681B6822F400421A6001F0FCFB4D
:1021F000F8607B685B68814A934207D8FB68804A35
:10220000934294BF01230023DBB206E0FB687D4AC2
:10221000934294BF01230023DBB2002B01D00123A2
:10222000E7E0FB68784AA2FB03239B0CBB607B685A
:102230001B685B6823F03F017B681B68BA680A4330
:102240005A607B681B681B6A23F03F017B685B68F0
:102250006A4A934202D8BB68013309E0BB684FF475
:10226000967202FB03F3694AA2FB03239B09013325
:102270007A6812680B4313627B681B68DB6923F47E
:102280004F4222F0FF027B685B685C498B4219D8A1
:10229000FB68591E7B685B685B00B1FBF3F3591C5C
:1022A00040F6FC730B40002B0AD0FB68591E7B687C
:1022B0005B685B00B1FBF3F30133C3F30B0351E045
:1022C00004234FE07B689B68002B11D1FB68581EEC
:1022D0007B6859680B465B000B44B0FBF3F301339A
:1022E000C3F30B03002B0CBF01230023DBB212E06E
:1022F000FB68581E7B6859680B469B000B4499008D
:102300000B44B0FBF3F30133C3F30B03002B0CBFFF
:1023100001230023DBB2002B01D0012322E07B68E4
:102320009B68002B0ED1FB68581E7B6859680B46D2
:102330005B000B44B0FBF3F30133C3F30B0343F433
:1023400000430FE0FB68581E7B6859680B469B00F2
:102350000B4499000B44B0FBF3F30133C3F30B03BD
:1023600043F44043796809681343CB617B681B6879
:102370001B6823F0C0017B68DA697B681B6A1A431B
:102380007B681B680A431A607B681B689B6823F4A0
:10239000034323F0FF037A6811697A68D268114316
:1023A0007A6812680B4393607B681B68DB6823F0D4
:1023B000FF017B685A697B689B691A437B681B68CD
:1023C0000A43DA607B681B681A687B681B6842F006
:1023D00001021A607B6800221A647B68202283F85D
:1023E0003D207B6800221A637B68002283F83E2030
:1023F000002318461037BD4680BD00BFA0860100EF
:102400007F841E00FF083D0083DE1B43D34D621016
:1024100080B588B002AFF860084611461A460346F8
:102420007B810B463B811346FB80FFF70BFB7861FA
:10243000FB6893F83D30DBB2202B40F0D9807B69FC
:102440000093192301226D49F86800F0CDFC034682
:10245000002B01D00223CCE0FB6893F83C30012B29
:1024600001D10223C5E0FB68012283F83C20FB6810
:102470001B681B6803F00103012B07D0FB681B6876
:102480001A68FB681B6842F001021A60FB681B684F
:102490001A68FB681B6822F400621A60FB6821223C
:1024A00083F83D20FB68402283F83E20FB68002231
:1024B0001A64FB683A6A5A62FB68BA8C5A85FB68F0
:1024C0005B8D9AB2FB681A85FB684D4ADA62F88820
:1024D0003A8979897B690193BB6A00930346F8685E
:1024E00000F004FB0346002B52D0012381E07A69FF
:1024F000B96AF86800F092FD0346002B0DD0FB6826
:102500001B6C042B07D1FB681B681A68FB681B68EF
:1025100042F400721A6001236BE0FB685B6A1A7870
:10252000FB681B681A61FB685B6A5A1CFB685A628D
:10253000FB681B8D013B9AB2FB681A85FB685B8DBB
:102540009BB2013B9AB2FB685A85FB681B685B69CA
:1025500003F00403042B1BD1FB681B8D002B17D049
:10256000FB685B6A1A78FB681B681A61FB685B6A28
:102570005A1CFB685A62FB681B8D013B9AB2FB68D0
:102580001A85FB685B8D9BB2013B9AB2FB685A854A
:10259000FB681B8D002BAAD17A69B96AF86800F034
:1025A00085FD0346002B0DD0FB681B6C042B07D167
:1025B000FB681B681A68FB681B6842F400721A60AB
:1025C000012316E0FB681B681A68FB681B6842F46D
:1025D00000721A60FB68202283F83D20FB6800220D
:1025E00083F83E20FB68002283F83C20002300E0B3
:1025F000022318461837BD4680BD00BF02001000F8
:102600000000FFFF80B58CB002AFF86008461146AD
:102610001A4603467B810B463B811346FB80002311
:102620003B62FFF70FFA7862FB6893F83D30DBB24C
:10263000202B40F050827B6A0093192301228249AB
:10264000F86800F0D1FB0346002B01D0022343E2DF
:10265000FB6893F83C30012B01D102233CE2FB687C
:10266000012283F83C20FB681B681B6803F0010310
:10267000012B07D0FB681B681A68FB681B6842F0D7
:1026800001021A60FB681B681A68FB681B6822F469
:1026900000621A60FB68222283F83D20FB6840221A
:1026A00083F83E20FB6800221A64FB683A6B5A628A
:1026B000FB68BA8E5A85FB685B8D9AB2FB681A85F7
:1026C000FB68624ADA62F8883A8979897B6A019301
:1026D000BB6B00930346F86800F09EFA0346002B9C
:1026E00001D00123F8E1FB681B8D002B13D10023DF
:1026F000FB61FB681B685B69FB61FB681B689B698E
:10270000FB61FB69FB681B681A68FB681B6842F485
:1027100000721A60CCE1FB681B8D012B1ED1FB6897
:102720001B681A68FB681B6822F480621A6072B624
:1027300000BF0023BB61FB681B685B69BB61FB6872
:102740001B689B69BB61BB69FB681B681A68FB68F7
:102750001B6842F400721A6062B635E0FB681B8D9C
:10276000022B1ED1FB681B681A68FB681B6842F4C9
:1027700000621A6072B600BF00237B61FB681B68B1
:102780005B697B61FB681B689B697B617B69FB689C
:102790001B681A68FB681B6822F480621A6062B6C4
:1027A00012E0FB681B681A68FB681B6842F48062D1
:1027B0001A6000233B61FB681B685B693B61FB6837
:1027C0001B689B693B613B6972E1FB681B8D032BB6
:1027D00000F21F81FB681B8D012B23D17A6AB96B34
:1027E000F86800F0ABFC0346002B01D0012373E135
:1027F000FB681B681A69FB685B6AD2B21A70FB68D7
:102800005B6A5A1CFB685A62FB681B8D013B9AB2DB
:10281000FB681A85FB685B8D9BB2013B9AB2FB6833
:102820005A8545E1FB681B8D022B52D17B6A0093D0
:10283000BB6B00220649F86800F0D6FA0346002B6D
:1028400008D0012348E100BF020010000000FFFF94
:102850000400010072B600BFFB681B681A68FB68C1
:102860001B6842F400721A60FB681B681A69FB68F7
:102870005B6AD2B21A70FB685B6A5A1CFB685A62C8
:10288000FB681B8D013B9AB2FB681A85FB685B8D68
:102890009BB2013B9AB2FB685A8562B600BFFB68E7
:1028A0001B681A69FB685B6AD2B21A70FB685B6AC4
:1028B0005A1CFB685A62FB681B8D013B9AB2FB688D
:1028C0001A85FB685B8D9BB2013B9AB2FB685A8507
:1028D000EEE07B6A0093BB6B00228149F86800F050
:1028E00083FA0346002B01D00123F5E0FB681B6847
:1028F0001A68FB681B6822F480621A6072B600BF17
:10290000FB681B681A69FB685B6AD2B21A70FB68C5
:102910005B6A5A1CFB685A62FB681B8D013B9AB2CA
:10292000FB681A85FB685B8D9BB2013B9AB2FB6822
:102930005A856C4B1B68DB086B4AA2FB03231A0AFF
:1029400013469B001344DA00D31A3B623B6A013BF7
:102950003B623B6A002B18D1FB6800221A63FB68BC
:10296000202283F83D20FB68002283F83E20FB688C
:102970001B6C43F02002FB681A6462B600BFFB6860
:10298000002283F83C200123A6E0FB681B685B69FA
:1029900003F00403042BD9D1FB681B681A68FB6899
:1029A0001B6842F400721A60FB681B681A69FB68B6
:1029B0005B6AD2B21A70FB685B6A5A1CFB685A6287
:1029C000FB681B8D013B9AB2FB681A85FB685B8D27
:1029D0009BB2013B9AB2FB685A8562B600BFFB68A6
:1029E0001B681A69FB685B6AD2B21A70FB685B6A83
:1029F0005A1CFB685A62FB681B8D013B9AB2FB684C
:102A00001A85FB685B8D9BB2013B9AB2FB685A85C5
:102A10004EE07A6AB96BF86800F090FB0346002B31
:102A200001D0012358E0FB681B681A69FB685B6AE8
:102A3000D2B21A70FB685B6A5A1CFB685A62FB6868
:102A40001B8D013B9AB2FB681A85FB685B8D9BB2BC
:102A5000013B9AB2FB685A85FB681B685B6903F00F
:102A60000403042B24D1FB681B8D032B07D1FB68C7
:102A70001B681A68FB681B6822F480621A60FB6896
:102A80001B681A69FB685B6AD2B21A70FB685B6AE2
:102A90005A1CFB685A62FB681B8D013B9AB2FB68AB
:102AA0001A85FB685B8D9BB2013B9AB2FB685A8525
:102AB000FB681B8D002B7FF488AEFB68202283F817
:102AC0003D20FB68002283F83E20FB68002283F84B
:102AD0003C20002300E0022318462837BD4680BD75
:102AE000040001000400002089B5F81480B588B006
:102AF00002AFF860084611461A4603467B810B4632
:102B00003B811346FB80FB681B681A68FB681B68E7
:102B100042F480721A607B6A00933B6A00224FF095
:102B20000111F86800F060F90346002B0DD0FB6836
:102B30001B681B6803F48073B3F5807F03D1FB68C7
:102B40004FF400721A6403235FE07B89DBB21A46FC
:102B5000FB681B6802F0FE021A617B6A3A6A2D4923
:102B6000F86800F0BBF90346002B01D001234CE0CC
:102B700000237B61FB681B685B697B61FB681B68EA
:102B80009B697B617B697A6A396AF86800F046FA6A
:102B90000346002B0DD0FB681B6C042B07D1FB6890
:102BA0001B681A68FB681B6842F400721A600123F4
:102BB0002BE0FB88012B05D13B89DAB2FB681B684F
:102BC0001A6121E03B891B0A9BB2DAB2FB681B68E1
:102BD0001A617A6A396AF86800F020FA0346002B15
:102BE0000DD0FB681B6C042B07D1FB681B681A68AF
:102BF000FB681B6842F400721A60012305E03B8900
:102C0000DAB2FB681B681A61002318461837BD4604
:102C100080BD00BF0200010080B588B002AFF8603F
:102C2000084611461A4603467B810B463B811346F4
:102C3000FB80FB681B681A68FB681B6842F48062B3
:102C40001A60FB681B681A68FB681B6842F4807294
:102C50001A607B6A00933B6A00224FF00111F8680A
:102C600000F0C2F80346002B0DD0FB681B681B6800
:102C700003F48073B3F5807F03D1FB684FF40072D7
:102C80001A640323AAE07B89DBB21A46FB681B683F
:102C900002F0FE021A617B6A3A6A5249F86800F053
:102CA0001DF90346002B01D0012397E000237B612F
:102CB000FB681B685B697B61FB681B689B697B61C8
:102CC0007B697A6A396AF86800F0A8F90346002B34
:102CD0000DD0FB681B6C042B07D1FB681B681A68BE
:102CE000FB681B6842F400721A60012376E0FB88DF
:102CF000012B05D13B89DAB2FB681B681A6121E020
:102D00003B891B0A9BB2DAB2FB681B681A617A6ABC
:102D1000396AF86800F082F90346002B0DD0FB6891
:102D20001B6C042B07D1FB681B681A68FB681B68C7
:102D300042F400721A60012350E03B89DAB2FB686A
:102D40001B681A617A6A396AF86800F067F9034605
:102D5000002B0DD0FB681B6C042B07D1FB681B6894
:102D60001A68FB681B6842F400721A60012335E0A0
:102D7000FB681B681A68FB681B6842F480721A6063
:102D80007B6A00933B6A00224FF00111F86800F063
:102D90002BF80346002B0DD0FB681B681B6803F45F
:102DA0008073B3F5807F03D1FB684FF400721A641F
:102DB000032313E07B89DBB243F00103DAB2FB6843
:102DC0001B681A617B6A3A6A0649F86800F086F85F
:102DD0000346002B01D0012300E0002318461837DA
:102DE000BD4680BD0200010080B584B000AFF86030
:102DF000B9603B601346FB7148E03B68B3F1FF3FAD
:102E000044D0FEF71FFE0246BB69D31A3A689A42C5
:102E100002D33B68002B39D1BB681B0CDBB2012B02
:102E20000DD1FB681B685B69DA43BB6813409BB23A
:102E3000002B0CBF01230023DBB21A460CE0FB6819
:102E40001B689B69DA43BB6813409BB2002B0CBF25
:102E500001230023DBB21A46FB799A4216D1FB68A4
:102E600000221A63FB68202283F83D20FB680022C1
:102E700083F83E20FB681B6C43F02002FB681A6459
:102E8000FB68002283F83C20012323E0BB681B0C75
:102E9000DBB2012B0DD1FB681B685B69DA43BB68B1
:102EA00013409BB2002B0CBF01230023DBB21A4658
:102EB0000CE0FB681B689B69DA43BB6813409BB25C
:102EC000002B0CBF01230023DBB21A46FB799A4288
:102ED00093D0002318461037BD4680BD80B584B01E
:102EE00000AFF860B9607A603B6071E0FB681B6816
:102EF0005B6903F48063B3F5806F23D1FB681B68C3
:102F00001A68FB681B6842F400721A60FB681B6851
:102F10006FF480625A61FB6800221A63FB6820220A
:102F200083F83D20FB68002283F83E20FB681B6C81
:102F300043F00402FB681A64FB68002283F83C201B
:102F4000012367E07B68B3F1FF3F41D0FEF77AFDD4
:102F500002463B68D31A7A689A4202D37B68002BF8
:102F600036D1BB681B0CDBB2012B0CD1FB681B6894
:102F70005B69DA43BB6813409BB2002B14BF01238B
:102F80000023DBB20BE0FB681B689B69DA43BB687C
:102F900013409BB2002B14BF01230023DBB2002B94
:102FA00016D0FB6800221A63FB68202283F83D20BC
:102FB000FB68002283F83E20FB681B6C43F0200274
:102FC000FB681A64FB68002283F83C20012321E09F
:102FD000BB681B0CDBB2012B0CD1FB681B685B6967
:102FE000DA43BB6813409BB2002B14BF01230023BC
:102FF000DBB20BE0FB681B689B69DA43BB681340DC
:103000009BB2002B14BF01230023DBB2002B7FF403
:103010006DAF002318461037BD4680BD80B584B023
:1030200000AFF860B9607A6034E0F86800F0E3F867
:103030000346002B01D0012334E0BB68B3F1FF3F0E
:1030400028D0FEF7FFFC02467B68D31ABA689A4282
:1030500002D3BB68002B1DD1FB681B685B6903F0C2
:103060008003802B16D0FB6800221A63FB682022A5
:1030700083F83D20FB68002283F83E20FB681B6C30
:1030800043F02002FB681A64FB68002283F83C20AE
:10309000012307E0FB681B685B6903F08003802B5A
:1030A000C3D1002318461037BD4680BD80B584B01B
:1030B00000AFF860B9607A6034E0F86800F09BF81F
:1030C0000346002B01D0012334E0BB68B3F1FF3F7E
:1030D00028D0FEF7B7FC02467B68D31ABA689A423A
:1030E00002D3BB68002B1DD1FB681B685B6903F032
:1030F0000403042B16D0FB6800221A63FB6820220D
:1031000083F83D20FB68002283F83E20FB681B6C9F
:1031100043F02002FB681A64FB68002283F83C201D
:10312000012307E0FB681B685B6903F00403042BC1
:10313000C3D1002318461037BD4680BD80B584B08A
:1031400000AFF860B9607A6049E0FB681B685B69B2
:1031500003F01003102B19D1FB681B686FF01002ED
:103160005A61FB6800221A63FB68202283F83D2025
:10317000FB68002283F83E20FB681A6CFB681A6427
:10318000FB68002283F83C20012330E0FEF75AFC64
:1031900002467B68D31ABA689A4202D3BB68002BF6
:1031A0001DD1FB681B685B6903F04003402B16D000
:1031B000FB6800221A63FB68202283F83D20FB682D
:1031C000002283F83E20FB681B6C43F02002FB6862
:1031D0001A64FB68002283F83C20012307E0FB68A7
:1031E0001B685B6903F04003402BAED100231846F7
:1031F0001037BD4680BD80B483B000AF78607B6877
:103200001B685B6903F48063B3F5806F1BD17B6837
:103210001B686FF480625A617B6800221A637B68C6
:10322000202283F83D207B68002283F83E207B68C3
:103230001B6C43F004027B681A647B68002283F8ED
:103240003C20012300E0002318460C37BD4680BC1B
:103250007047000080B586B000AF78607B68002BB7
:1032600001D1012372E27B681B6803F00103002B8C
:1032700000F08780924B5B6803F00C03042B0CD0AA
:103280008F4B5B6803F00C03082B12D18C4B5B68EF
:1032900003F48033B3F5803F0BD1894B1B6803F4F3
:1032A0000033002B6CD07B685B68002B68D1012356
:1032B0004CE27B685B68B3F5803F06D1804B1B68AE
:1032C0007F4A43F4803313602EE07B685B68002BF9
:1032D0000CD17B4B1B687A4A23F480331360784B04
:1032E0001B68774A23F4802313601DE07B685B68CA
:1032F000B3F5A02F0CD1724B1B68714A43F48023A5
:1033000013606F4B1B686E4A43F4803313600BE00D
:103310006B4B1B686A4A23F480331360684B1B684D
:10332000674A23F4802313607B685B68002B13D00B
:10333000FEF788FB386108E0FEF784FB02463B6934
:10334000D31A642B01D9032300E25D4B1B6803F4FD
:103350000033002BF0D014E0FEF774FB386108E076
:10336000FEF770FB02463B69D31A642B01D9032395
:10337000ECE1534B1B6803F40033002BF0D100E069
:1033800000BF7B681B6803F00203002B63D04C4B2B
:103390005B6803F00C03002B0BD0494B5B6803F018
:1033A0000C03082B1CD1464B5B6803F48033002BC5
:1033B00016D1434B1B6803F00203002B05D07B683A
:1033C0001B69012B01D00123C0E13D4B1B6823F099
:1033D000F8027B685B69DB00394913430B603AE014
:1033E0007B681B69002B20D0364B01221A60FEF748
:1033F00029FB386108E0FEF725FB02463B69D31A3A
:10340000022B01D90323A1E12D4B1B6803F002031A
:10341000002BF0D02A4B1B6823F0F8027B685B6915
:10342000DB00274913430B6015E0264B00221A608E
:10343000FEF708FB386108E0FEF704FB02463B6933
:10344000D31A022B01D9032380E11D4B1B6803F023
:103450000203002BF0D17B681B6803F00803002BEC
:103460003AD07B689B69002B19D0174B01221A6058
:10347000FEF7E8FA386108E0FEF7E4FA02463B6935
:10348000D31A022B01D9032360E10D4B5B6A03F0D1
:103490000203002BF0D0012000F0CEFA1CE00A4B12
:1034A00000221A60FEF7CEFA38610FE0FEF7CAFA82
:1034B00002463B69D31A022B08D9032346E100BF19
:1034C000001002400000424280044242924B5B6A7C
:1034D00003F00203002BE9D17B681B6803F00403AF
:1034E000002B00F0A6800023FB758B4BDB6903F0FB
:1034F0008053002B0DD1884BDB69874A43F0805302
:10350000D361854BDB6903F08053BB60BB6801234B
:10351000FB75824B1B6803F48073002B18D17F4B23
:103520001B687E4A43F480731360FEF78BFA3861A0
:1035300008E0FEF787FA02463B69D31A642B01D9EB
:10354000032303E1754B1B6803F48073002BF0D059
:103550007B68DB68012B06D16F4B1B6A6E4A43F018
:10356000010313622DE07B68DB68002B0CD16A4BF2
:103570001B6A694A23F001031362674B1B6A664AA0
:1035800023F0040313621CE07B68DB68052B0CD17D
:10359000614B1B6A604A43F0040313625E4B1B6A73
:1035A0005D4A43F0010313620BE05B4B1B6A5A4A0E
:1035B00023F001031362584B1B6A574A23F004039C
:1035C00013627B68DB68002B15D0FEF73BFA38618D
:1035D0000AE0FEF737FA02463B69D31A41F2883215
:1035E000934201D90323B1E04B4B1B6A03F0020362
:1035F000002BEED014E0FEF725FA38610AE0FEF762
:1036000021FA02463B69D31A41F28832934201D92A
:1036100003239BE0404B1B6A03F00203002BEED117
:10362000FB7D012B05D13C4BDB693B4A23F08053EA
:10363000D3617B68DB69002B00F08780364B5B68C9
:1036400003F00C03082B61D07B68DB69022B46D1A9
:10365000334B00221A60FEF7F5F9386108E0FEF7F7
:10366000F1F902463B69D31A022B01D903236DE01D
:10367000294B1B6803F00073002BF0D17B681B6A99
:10368000B3F5803F08D1244B5B6823F400327B689C
:103690009B68214913434B601F4B5B6823F47412F2
:1036A0007B68196A7B685B6A0B431B4913434B6059
:1036B0001B4B01221A60FEF7C5F9386108E0FEF7DE
:1036C000C1F902463B69D31A022B01D903233DE01D
:1036D000114B1B6803F00073002BF0D035E0104B4A
:1036E00000221A60FEF7AEF9386108E0FEF7AAF989
:1036F00002463B69D31A022B01D9032326E0064B6D
:103700001B6803F00073002BF0D11EE07B68DB69BF
:10371000012B07D1012319E0001002400070004086
:10372000600042420B4B5B68FB60FB6803F4803235
:103730007B681B6A9A4206D1FB6803F470127B68AF
:103740005B6A9A4201D0012300E000231846183733
:10375000BD4680BD0010024080B584B000AF7860E7
:1037600039607B68002B01D10123D0E06A4B1B68D4
:1037700003F007033A689A4210D9674B1B6823F09D
:10378000070265493B6813430B60634B1B6803F0FA
:1037900007033A689A4201D00123B8E07B681B68AE
:1037A00003F00203002B20D07B681B6803F00403A6
:1037B000002B05D0594B5B68584A43F4E0635360D3
:1037C0007B681B6803F00803002B05D0534B5B6834
:1037D000524A43F460535360504B5B6823F0F0024D
:1037E0007B689B684D4913434B607B681B6803F003
:1037F0000103002B40D07B685B68012B07D1474B4E
:103800001B6803F40033002B15D101237FE07B6894
:103810005B68022B07D1414B1B6803F00073002B40
:1038200009D1012373E03D4B1B6803F00203002B19
:1038300001D101236BE0394B5B6823F003027B6805
:103840005B68364913434B60FEF7FCF8F8600AE00A
:10385000FEF7F8F80246FB68D31A41F28832934229
:1038600001D9032353E02D4B5B6803F00C027B6806
:103870005B689B009A42EBD1274B1B6803F0070360
:103880003A689A4210D2244B1B6823F0070222495F
:103890003B6813430B60204B1B6803F007033A6837
:1038A0009A4201D0012332E07B681B6803F00403D5
:1038B000002B08D0194B5B6823F4E0627B68DB685F
:1038C000164913434B607B681B6803F00803002B09
:1038D00009D0124B5B6823F460527B681B69DB00E4
:1038E0000E4913434B6000F021F802460B4B5B6816
:1038F0001B0903F00F030A49CB5C22FA03F3094AC0
:103900001360094B1B681846FEF75AF80023184647
:103910001037BD4680BD00BF0020024000100240AD
:10392000608E0008040000200800002080B487B0EA
:1039300000AF0023FB600023BB6000237B610023FA
:103940007B6000233B611E4B5B68FB60FB6803F000
:103950000C03042B02D0082B03D027E0194B3B614A
:1039600027E0FB689B0C03F00F03174AD35C7B60D6
:10397000FB6803F48033002B10D0114B5B685B0CA9
:1039800003F00103114AD35CBB607B680D4A03FB63
:1039900002F2BB68B2FBF3F37B6104E07B680C4A84
:1039A00002FB03F37B617B693B6102E0054B3B61FA
:1039B00000BF3B6918461C37BD4680BC704700BF3E
:1039C0000010024000127A00788E0008888E0008ED
:1039D00000093D0080B400AF024B1B681846BD468D
:1039E00080BC70470400002080B500AFFFF7F2FFF5
:1039F0000246054B5B681B0A03F007030349CB5CD7
:103A000022FA03F3184680BD00100240708E0008B1
:103A100080B500AFFFF7DEFF0246054B5B68DB0AAF
:103A200003F007030349CB5C22FA03F3184680BD79
:103A300000100240708E000880B485B000AF78603E
:103A40000A4B1B680A4AA2FB03235B0A7A6802FB43
:103A500003F3FB6000BFFB685A1EFA60002BF9D12C
:103A600000BF00BF1437BD4680BC70470400002073
:103A7000D34D621080B582B000AF78607B68002BB8
:103A800001D1012341E07B6893F83D30DBB2002B8C
:103A900006D17B68002283F83C207868FDF7BEFDE4
:103AA0007B68022283F83D207B681A687B680433B8
:103AB0001946104600F0FCFA7B68012283F8462084
:103AC0007B68012283F83E207B68012283F83F2037
:103AD0007B68012283F840207B68012283F8412023
:103AE0007B68012283F842207B68012283F843200F
:103AF0007B68012283F844207B68012283F84520FB
:103B00007B68012283F83D20002318460837BD4614
:103B100080BD000080B485B000AF78607B6893F80A
:103B20003D30DBB2012B01D0012332E07B68022261
:103B300083F83D207B681B68184A93420ED07B684F
:103B40001B68B3F1804F09D07B681B68144A93420D
:103B500004D07B681B68134A934211D17B681B68B1
:103B60009B6803F00703FB60FB68062B10D07B68A3
:103B70001B681A687B681B6842F001021A6007E044
:103B80007B681B681A687B681B6842F001021A6038
:103B9000002318461437BD4680BC7047002C0140F6
:103BA000000400400008004080B582B000AF78609B
:103BB0007B68002B01D1012341E07B6893F83D3005
:103BC000DBB2002B06D17B68002283F83C207868AA
:103BD00000F039F87B68022283F83D207B681A6880
:103BE0007B6804331946104600F062FA7B680122B4
:103BF00083F846207B68012283F83E207B680122FF
:103C000083F83F207B68012283F840207B680122F3
:103C100083F841207B68012283F842207B680122DF
:103C200083F843207B68012283F844207B680122CB
:103C300083F845207B68012283F83D200023184645
:103C40000837BD4680BD80B483B000AF786000BF48
:103C50000C37BD4680BC704780B584B000AF78603B
:103C600039603B68002B09D17B6893F83E30DBB2AA
:103C7000012B14BF01230023DBB222E03B68042B9D
:103C800009D17B6893F83F30DBB2012B14BF0123CD
:103C90000023DBB215E03B68082B09D17B6893F861
:103CA0004030DBB2012B14BF01230023DBB208E05C
:103CB0007B6893F84130DBB2012B14BF0123002352
:103CC000DBB2002B01D001235EE03B68002B04D166
:103CD0007B68022283F83E2013E03B68042B04D16A
:103CE0007B68022283F83F200BE03B68082B04D15D
:103CF0007B68022283F8402003E07B68022283F87D
:103D000041207B681B6801223968184600F05CFC82
:103D10007B681B681E4A934207D17B681B685A6CFC
:103D20007B681B6842F400425A647B681B68184A2F
:103D300093420ED07B681B68B3F1804F09D07B683B
:103D40001B68144A934204D07B681B68124A934252
:103D500011D17B681B689B6803F00703FB60FB685D
:103D6000062B10D07B681B681A687B681B6842F0C2
:103D700001021A6007E07B681B681A687B681B6891
:103D800042F001021A60002318461037BD4680BD7C
:103D9000002C0140000400400008004080B586B0BF
:103DA00000AFF860B9607A600023FB75FB6893F898
:103DB0003C30012B01D10223AEE0FB68012283F8E5
:103DC0003C207B680C2B00F29F8001A252F823F06C
:103DD000053E0008093F0008093F0008093F0008A8
:103DE000453E0008093F0008093F0008093F000858
:103DF000873E0008093F0008093F0008093F000806
:103E0000C73E0008FB681B68B968184600F0BEF999
:103E1000FB681B689A69FB681B6842F008029A619C
:103E2000FB681B689A69FB681B6822F004029A61B0
:103E3000FB681B689969BB681A69FB681B680A43C1
:103E40009A6164E0FB681B68B968184600F004FAE0
:103E5000FB681B689A69FB681B6842F400629A6100
:103E6000FB681B689A69FB681B6822F480629A6190
:103E7000FB681B689969BB681B691A02FB681B68B1
:103E80000A439A6143E0FB681B68B968184600F072
:103E90004DFAFB681B68DA69FB681B6842F0080290
:103EA000DA61FB681B68DA69FB681B6822F00402B0
:103EB000DA61FB681B68D969BB681A69FB681B6813
:103EC0000A43DA6123E0FB681B68B968184600F012
:103ED00097FAFB681B68DA69FB681B6842F40062AA
:103EE000DA61FB681B68DA69FB681B6822F4806290
:103EF000DA61FB681B68D969BB681B691A02FB6839
:103F00001B680A43DA6102E00123FB7500BFFB680E
:103F1000002283F83C20FB7D18461837BD4680BD43
:103F200080B584B000AF786039600023FB737B6894
:103F300093F83C30012B01D10223B4E07B680122CD
:103F400083F83C207B68022283F83D207B681B6855
:103F50009B68BB60BB6823F07703BB60BB6823F43E
:103F60007F43BB607B681B68BA689A603B681B68CC
:103F7000B3F5005F3ED0B3F5005F00F28780B3F584
:103F8000805F00F08680B3F5805F7FD8702B1AD0F9
:103F9000702B7BD8602B50D0602B77D8502B3CD027
:103FA000502B73D8402B58D0402B6FD8302B64D077
:103FB000302B6BD8202B60D0202B67D8002B5CD007
:103FC000102B5AD062E07B6818683B6899683B68A0
:103FD0005A683B68DB6800F0D8FA7B681B689B680E
:103FE000BB60BB6843F07703BB607B681B68BA6843
:103FF0009A604FE07B6818683B6899683B685A682C
:104000003B68DB6800F0C1FA7B681B689A687B68D4
:104010001B6842F480429A603CE07B6818683B6809
:1040200059683B68DB681A4600F038FA7B681B6801
:104030005021184600F08FFA2CE07B6818683B6826
:1040400059683B68DB681A4600F056FA7B681B68C3
:104050006021184600F07FFA1CE07B6818683B6816
:1040600059683B68DB681A4600F018FA7B681B68E1
:104070004021184600F06FFA0CE07B681A683B6834
:104080001B681946104600F066FA03E00123FB7333
:1040900000E000BF7B68012283F83D207B6800229E
:1040A00083F83C20FB7B18461037BD4680BD0000DE
:1040B00080B485B000AF786039607B681B68FB60B6
:1040C0007B682F4A93420BD07B68B3F1804F07D0B7
:1040D0007B682C4A934203D07B682B4A934208D1D9
:1040E000FB6823F07003FB603B685B68FA6813436E
:1040F000FB607B68224A93420BD07B68B3F1804F10
:1041000007D07B681F4A934203D07B681E4A9342C4
:1041100008D1FB6823F44073FB603B68DB68FA68F6
:104120001343FB60FB6823F080023B685B69134329
:10413000FB607B68FA681A603B689A687B68DA62A1
:104140003B681A687B689A627B680D4A934203D188
:104150003B681A697B681A637B6801225A617B6835
:104160001B6903F00103002B05D07B681B6923F05A
:1041700001027B681A6100BF1437BD4680BC7047DE
:10418000002C0140000400400008004080B487B0CB
:1041900000AF786039607B681B6A7B617B681B6A53
:1041A00023F001027B681A627B685B683B617B6875
:1041B0009B69FB60FB6823F07003FB60FB6823F0E6
:1041C0000303FB603B681B68FA681343FB607B6971
:1041D00023F002037B613B689B687A6913437B6130
:1041E0007B681C4A93420CD17B6923F008037B61F6
:1041F0003B68DB687A6913437B617B6923F00403C6
:104200007B617B68134A934211D13B6923F480732D
:104210003B613B6923F400733B613B685B693A692E
:1042200013433B613B689B693A6913433B617B687D
:104230003A695A607B68FA689A613B685A687B6899
:104240005A637B687A691A6200BF1C37BD4680BC1E
:10425000704700BF002C014080B487B000AF786089
:1042600039607B681B6A7B617B681B6A23F01002E4
:104270007B681A627B685B683B617B689B69FB605B
:10428000FB6823F4E043FB60FB6823F44073FB60AE
:104290003B681B681B02FA681343FB607B6923F0D1
:1042A00020037B613B689B681B017A6913437B6138
:1042B0007B681D4A93420DD17B6923F080037B61AB
:1042C0003B68DB681B017A6913437B617B6923F0E0
:1042D00040037B617B68144A934213D13B6923F40A
:1042E00080633B613B6923F400633B613B685B692E
:1042F0009B003A6913433B613B689B699B003A69A9
:1043000013433B617B683A695A607B68FA689A613B
:104310003B685A687B689A637B687A691A6200BF57
:104320001C37BD4680BC7047002C014080B487B06C
:1043300000AF786039607B681B6A7B617B681B6AB1
:1043400023F480727B681A627B685B683B617B68E0
:10435000DB69FB60FB6823F07003FB60FB6823F004
:104360000303FB603B681B68FA681343FB607B69CF
:1043700023F400737B613B689B681B027A691343DB
:104380007B617B681D4A93420DD17B6923F40063F6
:104390007B613B68DB681B027A6913437B617B6945
:1043A00023F480637B617B68144A934213D13B6999
:1043B00023F480533B613B6923F400533B613B682A
:1043C0005B691B013A6913433B613B689B691B01B5
:1043D0003A6913433B617B683A695A607B68FA68C3
:1043E000DA613B685A687B68DA637B687A691A62CB
:1043F00000BF1C37BD4680BC704700BF002C014089
:1044000080B487B000AF786039607B681B6A3B611D
:104410007B681B6A23F480527B681A627B685B6846
:104420007B617B68DB69FB60FB6823F4E043FB6036
:10443000FB6823F44073FB603B681B681B02FA684F
:104440001343FB603B6923F400533B613B689B686B
:104450001B033A6913433B617B680F4A934209D1BE
:104460007B6923F480437B613B685B699B017A69CC
:1044700013437B617B687A695A607B68FA68DA610A
:104480003B685A687B681A647B683A691A6200BFA5
:104490001C37BD4680BC7047002C014080B487B0FB
:1044A00000AFF860B9607A60FB681B6A7B61FB68EB
:1044B0001B6A23F00102FB681A62FB689B693B617F
:1044C0003B6923F0F0033B617B681B013A691343AE
:1044D0003B617B6923F00A037B617A69BB68134304
:1044E0007B61FB683A699A61FB687A691A6200BF6E
:1044F0001C37BD4680BC704780B487B000AFF86001
:10450000B9607A60FB681B6A7B61FB681B6A23F0F9
:104510001002FB681A62FB689B693B613B6923F4EC
:1045200070433B617B681B033A6913433B617B69C2
:1045300023F0A0037B61BB681B017A6913437B6195
:10454000FB683A699A61FB687A691A6200BF1C3796
:10455000BD4680BC704780B485B000AF78603960DC
:104560007B689B68FB60FB6823F07003FB603A6824
:10457000FB68134343F00703FB607B68FA689A60AB
:1045800000BF1437BD4680BC704780B487B000AF11
:10459000F860B9607A603B60FB689B687B617B690F
:1045A00023F47F437B613B681A027B681A43BB6834
:1045B00013437A6913437B61FB687A699A6000BF91
:1045C0001C37BD4680BC704780B487B000AFF86030
:1045D000B9607A60BB6803F01F03012202FA03F39B
:1045E0007B61FB681A6A7B69DB431A40FB681A62CD
:1045F000FB681A6ABB6803F01F03796801FA03F3CA
:104600001A43FB681A6200BF1C37BD4680BC704766
:1046100080B485B000AF786039607B6893F83C3037
:10462000012B01D1022346E07B68012283F83C2064
:104630007B68022283F83D207B681B685B68FB6017
:104640007B681B689B68BB60FB6823F07003FB60A2
:104650003B681B68FA681343FB607B681B68FA6859
:104660005A607B681B68164A93420ED07B681B68B1
:10467000B3F1804F09D07B681B68124A934204D083
:104680007B681B68104A93420CD1BB6823F08003FF
:10469000BB603B685B68BA681343BB607B681B68A0
:1046A000BA689A607B68012283F83D207B6800220B
:1046B00083F83C20002318461437BD4680BC704761
:1046C000002C0140000400400008004080B582B08A
:1046D00000AF78607B68002B01D1012342E07B684A
:1046E00093F84130DBB2002B06D17B68002283F8BF
:1046F00040207868FCF7F4FF7B68242283F841208F
:104700007B681B68DA687B681B6822F40052DA60F9
:10471000786800F0B7FD7B681B681A697B681B68C6
:1047200022F490421A617B681B685A697B681B6897
:1047300022F02A025A617B681B68DA687B681B6872
:1047400042F40052DA607B6800225A647B682022BF
:1047500083F841207B68202283F842207B68002276
:104760005A63002318460837BD4680BD80B58AB01D
:1047700002AFF860B9603B601346FB8000237B61A9
:10478000FB6893F84130DBB2202B75D1BB68002B5E
:1047900002D0FB88002B01D101236EE0FB680022D0
:1047A0005A64FB68212283F84120FDF74BF97861B8
:1047B000FB68FA889A84FB68FA88DA84FB689B684D
:1047C000B3F5805F08D1FB681B69002B04D100237F
:1047D000FB61BB68BB6103E0BB68FB610023BB619D
:1047E0002EE03B6800937B6900228021F86800F08E
:1047F0001CFB0346002B05D0FB68202283F84120D8
:1048000003233AE0FB69002B0BD1BB691B881A46D6
:10481000FB681B68C2F308025A60BB690233BB61C4
:1048200007E0FB691A78FB681B685A60FB69013373
:10483000FB61FB68DB8C9BB2013B9AB2FB68DA84BC
:10484000FB68DB8C9BB2002BCBD13B6800937B6970
:1048500000224021F86800F0E8FA0346002B05D05A
:10486000FB68202283F84120032306E0FB68202216
:1048700083F84120002300E0022318462037BD467C
:1048800080BD80B584B000AFF860B9601346FB808E
:10489000FB6893F84230DBB2202B12D1BB68002BAF
:1048A00002D0FB88002B01D101230BE0FB68002222
:1048B0001A63FB881A46B968F86800F00FFB0346D4
:1048C00000E0022318461037BD4680BD80B5BAB05F
:1048D00000AF78607B681B681B68C7F8E4307B68B2
:1048E0001B68DB68C7F8E0307B681B685B69C7F84A
:1048F000DC300023C7F8D8300023C7F8D430D7F80D
:10490000E43003F00F03C7F8D830D7F8D830002BC5
:104910000FD1D7F8E43003F02003002B09D0D7F8EB
:10492000E03003F02003002B03D0786800F0ECFBAC
:104930005BE2D7F8D830002B00F0DE80D7F8DC300F
:1049400003F00103002B06D1D7F8E03003F4907395
:10495000002B00F0D180D7F8E43003F00103002BE6
:104960000BD0D7F8E03003F48073002B05D07B68C0
:104970005B6C43F001027B685A64D7F8E43003F0C3
:104980000403002B0BD0D7F8DC3003F00103002B1D
:1049900005D07B685B6C43F002027B685A64D7F8F1
:1049A000E43003F00203002B0BD0D7F8DC3003F027
:1049B0000103002B05D07B685B6C43F004027B682D
:1049C0005A64D7F8E43003F00803002B11D0D7F86D
:1049D000E03003F02003002B05D1D7F8DC3003F0E2
:1049E0000103002B05D07B685B6C43F008027B68F9
:1049F0005A647B685B6C002B00F0F281D7F8E430DE
:104A000003F02003002B08D0D7F8E03003F0200398
:104A1000002B02D0786800F077FB7B681B685B692D
:104A200003F04003002B14BF01230023DBB2C7F8BF
:104A3000D4307B685B6C03F00803002B03D1D7F8FC
:104A4000D430002B4FD0786800F081FA7B681B6867
:104A50005B6903F04003002B41D07B681B68143373
:104A6000C7F89C30D7F89C3053E8003FC7F898301F
:104A7000D7F8983023F04003C7F8D0307B681B6824
:104A80001433D7F8D020C7F8A820C7F8A430D7F837
:104A9000A410D7F8A82041E80023C7F8A030D7F821
:104AA000A030002BD9D17B68DB6B002B13D07B6847
:104AB000DB6B7E4A5A637B68DB6B1846FDF738F97F
:104AC0000346002B16D07B68DB6B5B6B7A68D26B7E
:104AD000104698470EE0786800F093F90AE078688D
:104AE00000F08FF906E0786800F08BF97B6800220F
:104AF0005A6475E100BF73E17B681B6B012B40F0CA
:104B00004F81D7F8E43003F01003002B00F0488108
:104B1000D7F8E03003F01003002B00F041810023B0
:104B2000BB607B681B681B68BB607B681B685B683D
:104B3000BB60BB687B681B685B6903F04003002BAC
:104B400000F0B6807B68DB6B1B685B68A7F8BE3043
:104B5000B7F8BE30002B00F045817B689B8DB7F81D
:104B6000BE209A4280F03E817B68B7F8BE20DA858D
:104B70007B68DB6B9B69202B00F088807B681B685F
:104B80000C33C7F88830D7F8883053E8003FC7F8AF
:104B90008430D7F8843023F48073C7F8B8307B684A
:104BA0001B680C33D7F8B820C7F89420C7F89030AA
:104BB000D7F89010D7F8942041E80023C7F88C303C
:104BC000D7F88C30002BD9D17B681B6814337B67F6
:104BD0007B6F53E8003F3B673B6F23F00103C7F84F
:104BE000B4307B681B681433D7F8B420C7F8802032
:104BF000FB67F96FD7F8802041E80023BB67BB6FE4
:104C0000002BE1D17B681B6814333B663B6E53E895
:104C1000003FFB65FB6D23F04003C7F8B0307B68B5
:104C20001B681433D7F8B020FA66BB66B96EFA6E0B
:104C300041E800237B667B6E002BE3D17B6820225A
:104C400083F842207B6800221A637B681B680C3360
:104C5000FB64FB6C53E8003FBB64BB6C23F01003A8
:104C6000C7F8AC307B681B680C33D7F8AC20BA654A
:104C70007B65796DBA6D41E800233B653B6D002B88
:104C8000E3D17B68DB6B1846FDF717F87B680222DF
:104C90005A637B689A8D7B68DB8D9BB2D31A9BB27B
:104CA0001946786800F0B6F89CE000BF1350000881
:104CB0007B689A8D7B68DB8D9BB2D31AA7F8CE30C8
:104CC0007B68DB8D9BB2002B00F08E80B7F8CE3076
:104CD000002B00F089807B681B680C33BB63BB6BC7
:104CE00053E8003F7B637B6B23F49073C7F8C830B5
:104CF0007B681B680C33D7F8C8207A643B64396C36
:104D00007A6C41E80023FB63FB6B002BE3D17B68EB
:104D10001B6814337B627B6A53E8003F3B623B6A4B
:104D200023F00103C7F8C4307B681B681433D7F83D
:104D3000C4203A63FB62F96A3A6B41E80023BB6224
:104D4000BB6A002BE3D17B68202283F842207B687A
:104D500000221A637B681B680C333B613B6953E894
:104D6000003FFB60FB6823F01003C7F8C0307B688E
:104D70001B680C33D7F8C020FA61BB61B969FA69C6
:104D800041E800237B617B69002BE3D17B68022231
:104D90005A63B7F8CE301946786800F03BF823E044
:104DA000D7F8E43003F08003002B09D0D7F8E030C7
:104DB00003F08003002B03D0786800F03EF914E084
:104DC000D7F8E43003F04003002B0ED0D7F8E030E2
:104DD00003F04003002B08D0786800F07DF904E070
:104DE00000BF02E000BF00E000BFE837BD4680BD65
:104DF00080B483B000AF786000BF0C37BD4680BC84
:104E0000704780B483B000AF786000BF0C37BD46F8
:104E100080BC704780B483B000AF78600B467B8065
:104E200000BF0C37BD4680BC704780B586B000AF70
:104E3000F860B9603B601346FB713BE03B6AB3F13D
:104E4000FF3F37D0FCF7FEFD02463B68D31A3A6AB3
:104E50009A4202D33B6A002B01D103233AE0FB685C
:104E60001B68DB6803F00403002B23D0BB68802B96
:104E700020D0BB68402B1DD0FB681B681B6803F06B
:104E80000803082B16D100237B61FB681B681B6895
:104E90007B61FB681B685B687B617B69F86800F07D
:104EA00056F8FB6808225A64FB68002283F8402009
:104EB00001230FE0FB681B681A68BB681340BA68DF
:104EC0009A420CBF01230023DBB21A46FB799A42B7
:104ED000B4D0002318461837BD4680BD80B485B0D5
:104EE00000AFF860B9601346FB80FB68BA689A624D
:104EF000FB68FA889A85FB68FA88DA85FB680022E5
:104F00005A64FB68222283F84220FB681B69002B4D
:104F100007D0FB681B68DA68FB681B6842F4807284
:104F2000DA60FB681B685A69FB681B6842F0010283
:104F30005A61FB681B68DA68FB681B6842F0200254
:104F4000DA60002318461437BD4680BC704780B431
:104F500095B000AF78607B681B680C337B637B6B1C
:104F600053E8003F3B633B6B23F49073FB647B6827
:104F70001B680C33FA6C3A64FB63F96B3A6C41E8DA
:104F80000023BB63BB6B002BE5D17B681B6814332C
:104F90003B623B6A53E8003FFB61FB6923F001037E
:104FA000BB647B681B681433BA6CFA62BB62B96A73
:104FB000FA6A41E800237B627B6A002BE5D17B68BB
:104FC0001B6B012B19D17B681B680C33FB60FB68E2
:104FD00053E8003FBB60BB6823F010037B647B6831
:104FE0001B680C337A6CBA617B617969BA6941E8F4
:104FF00000233B613B69002BE5D17B68202283F8CD
:1050000042207B6800221A6300BF5437BD4680BC33
:10501000704780B584B000AF78607B685B6AFB60E6
:10502000FB680022DA85FB680022DA84F868FFF763
:10503000E8FE00BF1037BD4680BD80B485B000AF2C
:1050400078607B6893F84130DBB2212B3ED17B68DE
:105050009B68B3F5805F14D17B681B69002B10D16E
:105060007B681B6AFB60FB681B881A467B681B68B1
:10507000C2F308025A607B681B6A9A1C7B681A623A
:1050800008E07B681B6A591C7A6811621A787B6891
:105090001B685A607B68DB8C9BB2013B9BB27A68D1
:1050A0001946D184002B0FD17B681B68DA687B68B6
:1050B0001B6822F08002DA607B681B68DA687B6814
:1050C0001B6842F04002DA60002300E00223184629
:1050D0001437BD4680BC704780B582B000AF7860A1
:1050E0007B681B68DA687B681B6822F04002DA6024
:1050F0007B68202283F841207868FFF779FE00233F
:1051000018460837BD4680BD80B58CB000AF7860CA
:105110007B6893F84230DBB2222B40F0AE807B6894
:105120009B68B3F5805F17D17B681B69002B13D197
:105130000023FB627B689B6ABB627B681B685B68C1
:105140009BB2C3F308039AB2BB6A1A807B689B6A5E
:105150009A1C7B689A6226E07B689B6AFB6200234C
:10516000BB627B689B68B3F5805F07D07B689B68F8
:10517000002B0AD17B681B69002B06D17B681B685A
:105180005B68DAB2FB6A1A7008E07B681B685B68D0
:10519000DBB203F07F03DAB2FB6A1A707B689B6AAA
:1051A0005A1C7B689A627B68DB8D9BB2013B9BB289
:1051B0007A681946D185002B5DD17B681B68DA6857
:1051C0007B681B6822F02002DA607B681B68DA6863
:1051D0007B681B6822F48072DA607B681B685A69FE
:1051E0007B681B6822F001025A617B68202283F8E9
:1051F00042207B6800225A637B681B6B012B35D1F0
:105200007B6800221A637B681B680C337B617B69B7
:1052100053E8003F3B613B6923F010037B627B68EE
:105220001B680C337A6A3A62FB61F9693A6A41E8B1
:105230000023BB61BB69002BE5D17B681B681B6841
:1052400003F01003102B0AD10023FB607B681B685E
:105250001B68FB607B681B685B68FB60FB687B68A6
:105260009B8D19467868FFF7D5FD02E07868FBF75B
:10527000F5FE002302E0002300E002231846303749
:10528000BD4680BD80B584B000AF78607B681B6888
:105290001B6923F440517B68DA687B681B680A430A
:1052A0001A617B689A687B681B691A437B685B6933
:1052B0001343BB607B681B68DB6823F4B05323F0A7
:1052C0000C037A681268B9680B43D3607B681B686B
:1052D0005B6923F440717B689A697B681B680A43A9
:1052E0005A617B681B682C4A934203D1FEF790FBFE
:1052F000F86002E0FEF778FBF860FA6813469B005E
:1053000013449A001A447B685B689B00B2FBF3F37A
:10531000224AA2FB03235B091901FA6813469B008A
:1053200013449A001A447B685B689B00B2FBF3F25B
:105330001A4BA3FB02035B09642000FB03F3D31A9F
:105340001B013233154AA2FB03235B0903F0F00370
:105350001944FA6813469B0013449A001A447B6868
:105360005B689B00B2FBF3F20C4BA3FB02035B09EF
:10537000642000FB03F3D31A1B013233074AA2FB5C
:1053800003235B0903F00F027B681B680A449A60E1
:1053900000BF1037BD4680BD003801401F85EB516E
:1053A00080B584B000AF0346FB71FB790A2B02D0B5
:1053B000FB790D2B32D1224B1B781A46214B002151
:1053C0009954022220491F4801F039F90346002B65
:1053D0000DD11E4B1E4A1F491A4801F0B7F81C4B4D
:1053E0001B681A4A12681146184600F0A1F90222F9
:1053F0001949144801F023F90346002B0AD107F19B
:105400000C031A4615490F4801F0A0F8FB6818462E
:1054100000F0C4F90A4B00221A700DE0084B1B780B
:105420001E2B09D8064B1B785A1CD1B2044A1170A6
:105430001946044AFB79535400BF1037BD4680BD5E
:1054400074030020540300203C8E00081400002048
:1054500010000020408E0008488E00084C8E000886
:1054600080B483B000AF0346FB80094B1B681B6808
:1054700000225A6200BF064B1B681B685A6AFB88F1
:105480009A42F8D300BF00BF0C37BD4680BC7047BE
:105490007803002080B582B000AF7860054A7B6851
:1054A0001360044B1B681846FEF734FB00BF083737
:1054B000BD4680BD7803002080B584B000AF0022D7
:1054C00001212348FCF747FE0220FFF7C9FF012214
:1054D00001211F48FCF73FFE0A20FFF7C1FF002211
:1054E00001211B48FCF737FE00BF02211848FCF7DA
:1054F0001BFE0346002BF8D0164B1B681B685B6A2B
:10550000FB6000BF02211248FCF70EFE0346012B90
:10551000F8D0104B1B681B685B6ABB60BA68FB68FD
:10552000D31A7B607868FBF765FB03460A49184687
:10553000FBF7B8FB03464FF080411846FBF766FCCB
:1055400003463B603B6818461037BD4680BD00BF30
:10555000000C014078030020287E0C3D80B500AF90
:10556000104B1A88104B1B681B685A630D4B1A8826
:105570000D4B1B681B689A63002201210B48FCF746
:10558000EAFD012202210948FCF7E5FD0122102174
:105590000648FCF7E0FD002220210448FCF7DBFD73
:1055A00000BF80BD200000207C03002000080140D7
:1055B00080B500AF104B1A88104B1B681B685A63EC
:1055C0000D4B1A880D4B1B681B689A630122012141
:1055D0000B48FCF7C0FD002202210948FCF7BBFD87
:1055E000002210210648FCF7B6FD012220210448C4
:1055F000FCF7B1FD00BF80BD200000207C0300202F
:105600000008014080B500AF104B1A88104B1B6892
:105610001B685A630D4B1A880D4B1B681B689A63F5
:10562000012201210B48FCF796FD002202210948C6
:10563000FCF791FD012210210648FCF78CFD0022A9
:1056400020210448FCF787FD00BF80BD200000201A
:105650007C0300200008014080B500AF104B1A8881
:10566000104B1B681B685A630D4B1A880D4B1B6847
:105670001B689A63002201210B48FCF76CFD012294
:1056800002210948FCF767FD002210210648FCF7BB
:1056900062FD012220210448FCF75DFD00BF80BDB2
:1056A000200000207C0300200008014080B500AFEE
:1056B0000F4B1B681B6800225A630D4B1B681B684D
:1056C00000229A63002201210A48FCF744FD0022CF
:1056D00002210848FCF73FFD002210210548FCF795
:1056E0003AFD002220210348FCF735FD00BF80BDB4
:1056F0007C0300200008014080B582B000AF7860D4
:105700000A4A7B681360094B1B6800211846FEF7A4
:10571000A3FA064B1B6804211846FEF79DFAFFF713
:10572000C5FF00BF0837BD4680BD00BF7C03002019
:1057300080B582B000AF78603960164A7B6813602C
:10574000154A3B681360144B1B68B3F5167F02DDE6
:10575000FFF704FF19E0104B1B68B3F5C87F02DAAE
:10576000FFF726FF11E00B4B1B68B3F5C87F02DA89
:10577000FFF772FF09E0074B1B68B3F5167F02DDE8
:10578000FFF740FF01E0FFF791FF00BF0837BD467C
:1057900080BD00BF180000201C00002080B483B032
:1057A00000AF78607B68B3F57A7F02DD4FF47A73DF
:1057B0007B607B689AB2034B1A8000BF0C37BD46F2
:1057C00080BC70472000002080B588B004AF7860AE
:1057D0001B4A7B6813600023FB73194B1868642312
:1057E00002930123019307F10F03009301236B221E
:1057F000D021FCF70DFE0023FB73114B18686423C6
:1058000002930123019307F10F03009301231C224C
:10581000D021FCF7FDFD0023FB73094B18686423BE
:1058200002930123019307F10F03009301231B222D
:10583000D021FCF7EDFD00BF1037BD4680BD00BF95
:105840008003002080B588B004AF264B186864231D
:1058500002930E2301933B46009301233B22D02168
:10586000FCF7D0FE3B781BB21B021AB27B781BB24E
:1058700013431AB21C4B1A80BB781BB21B021AB21C
:10588000FB781BB213431AB2184B1A803B791BB238
:105890001B021AB27B791BB213431AB2144B1A8043
:1058A0003B7A1BB21B021AB27B7A1BB213431AB2A9
:1058B000104B1A80BB7A1BB21B021AB2FB7A1BB2C6
:1058C00013431AB20C4B1A803B7B1BB21B021AB259
:1058D0007B7B1BB213431AB2084B1A8000BF1037F0
:1058E000BD4680BD80030020840300208603002085
:1058F000880300208A0300208C0300208E030020F0
:1059000080B582B000AF00237B603AE0FFF79AFFDA
:105910002F4BB3F900301846FBF770F902462D4BB8
:105920001B6819461046FBF7B5F803461A46294B83
:105930001A60294BB3F900301846FBF75FF90246AD
:10594000264B1B6819461046FBF7A4F803461A4677
:10595000224B1A60224BB3F900301846FBF74EF980
:105960000246204B1B6819461046FBF793F8034686
:105970001A461C4B1A600520FCF76EF87B68013351
:105980007B607B68B3F5FA7FC0DB124B1B6816495E
:105990001846FBF73BFA03461A460E4B1A600F4BAC
:1059A0001B6811491846FBF731FA03461A460B4BA0
:1059B0001A600C4B1B680C491846FBF727FA034684
:1059C0001A46084B1A6000BF0837BD4680BD00BFAD
:1059D000840300209003002086030020940300200D
:1059E00088030020980300200000FA4380B584B0AB
:1059F00000AFFCF727F8B860344B1B68BA68D31ABD
:105A00001846FBF7F7F8034631491846FBF7FEF94D
:105A100003467B602D4ABB681360FFF713FF2D4BD5
:105A2000B3F900301846FBF7E9F802462A4B1B6829
:105A300019461046FBF72CF803464FF08D411846E7
:105A4000FBF7E4F903463B6024493868FBF72AF981
:105A50000346FB60FB6823F0004321491846FBF72F
:105A6000BFFA0346002B02D04FF00003FB607968B9
:105A7000F868FBF717F903461A461A4B1B681946D4
:105A80001046FBF707F803461A46164B1A60154BEB
:105A90001B6815491846FBF705F903461A46114BD2
:105AA0001A60104B1B6823F0004310491846FBF79F
:105AB00097FA0346002B03D00A4B4FF000021A60FE
:105AC000084B1B6818461037BD4680BDA003002058
:105AD00000007A448403002090030020C3F51C4199
